:020000040800F2
:10000000080500200501000871080008F107000834
:100010006D080008E9010008DB100008000000007E
:10002000000000000000000000000000A10B00081C
:100030009502000800000000E5080008B50C000863
:100040001F0100081F0100081F0100081F01000810
:100050001F0100081F0100081F0100081F01000800
:100060001F0100081F0100081F0100081F010008F0
:100070001F0100081F0100081F0100081F010008E0
:100080001F0100081F0100081F0100081F010008D0
:100090001F0100081F0100081F0100081F010008C0
:1000A0001F0100081F0100081F0100081F010008B0
:1000B0001F0100081F0100081F0100081F010008A0
:1000C0001F0100081F0100081F0100081F01000890
:1000D0001F010008190D0008F50D00081F01000898
:1000E0001F0100081F0100081F010008DFF810D0E1
:1000F00000F068F800480047B9130008AFF300802B
:10010000080500200648804706480047FEE7FEE74E
:10011000FEE7FEE7FEE7FEE7FEE7FEE7FEE7FEE7B7
:10012000B90C0008ED00000840EA01039B0703D06A
:1001300009E008C9121F08C0042AFAD203E011F826
:10014000013B00F8013B521EF9D27047D2B201E0E8
:1001500000F8012B491EFBD270470022F6E710B5CC
:1001600013460A4604461946FFF7F0FF204610BD25
:10017000421C10F8011B0029FBD1801A704730B5D2
:1001800004460020034600E05B1C934203D2E05C7F
:10019000CD5C401BF8D030BD30B50B460146002089
:1001A0002022012409E021FA02F59D4205D303FA39
:1001B00002F5491B04FA02F52844151EA2F10102BA
:1001C000F1DC30BD064C074D06E0E06840F001036D
:1001D00094E8070098471034AC42F6D3FFF78AFF43
:1001E000601700088017000800BFFEE710B504463E
:1001F00023480078012827D122482349097844540C
:100200000D2C02D1012021490870204800780128D6
:1002100014D10A2C12D10020194908701B4908700A
:100220001948027817491A48FFF77EFF322115480E
:10023000FFF793FF00201449087020E0124800786F
:10024000401C114908701AE00D480078022803D1BB
:10025000204601F035FA12E009480078032803D15E
:10026000204601F0CDF90AE005480078042803D1C2
:10027000204601F05FF902E0204601F003F910BDCD
:1002800029000020A10000202B0000202A000020CF
:10029000D30000207047000030B5FDEEC00A10EE1C
:1002A000904A00EE904AF8EEE00A70EE600A9FED88
:1002B0000A1A60EE810AFDEEE00A10EE905A04E0A0
:1002C0004FF47A7001F048F8641E002CF8DC15B188
:1002D000A8B201F041F830BD00007A442DE9F041A8
:1002E000024600250026002000230024002791F864
:1002F00003C00CF00F0591F803C00CF0100CBCF11A
:10030000000F03D091F802C04CEA050591F800C037
:10031000BCF1000F31D0146800202BE04FF0010C2D
:100320000CFA00F3B1F800C00CEA03069E4220D19B
:1003300083004FF00F0C0CFA03F7BC4305FA03FCE3
:100340004CEA040491F803C0BCF1280F06D14FF029
:10035000010C0CFA00FCC2F814C00AE091F803C0CA
:10036000BCF1480F05D14FF0010C0CFA00FCC2F8AB
:1003700010C0401C0828D1D31460B1F800C0BCF1F3
:10038000FF0F34DD546800202EE000F1080C4FF020
:10039000010808FA0CF3B1F800C00CEA03069E420B
:1003A00021D183004FF00F0C0CFA03F7BC4305FA80
:1003B00003FC4CEA040491F803C0BCF1280F05D1FA
:1003C00000F1080C08FA0CF8C2F8148091F803C088
:1003D000BCF1480F07D100F1080C4FF0010808FAF2
:1003E0000CF8C2F81080401C0828CED35460BDE839
:1003F000F081000038B5044600200090002520461A
:10040000FFF7B6FE102800D038BDE0782C2809D0C0
:10041000E0792C2806D0E07A2C2803D0E07B2C2829
:1004200000D0F1E7002006E0215C2C2901D1691CF5
:10043000CDB2411CC8B21028F6DB042D00D0E3E792
:1004400020783038642110FB01F16078303800EBFF
:10045000800001EB4001A0783038084400B24549E3
:10046000088020793038642110FB01F16079303840
:1004700000EB800001EB4001A0793038084400B265
:100480003C494880207A3038642110FB01F1607AC1
:10049000303800EB800001EB4001A07A303808448E
:1004A00000B234498880207B3038642110FB01F190
:1004B000607B303800EB800001EB4001A07B3038DE
:1004C000084400B22B49C880002020600846B0F9DB
:1004D0000000B1F90410884207DC2648B0F9020098
:1004E0002449B1F90610884200DD8DE72149B1F9B0
:1004F0000410204AB2F90020881A00EBD0711D4A7E
:10050000128802EB610109B21A4A11811146B1F950
:100510000610B2F90220881A00EBD071154A5288F1
:1005200002EB610109B2134A51811046B0F904008F
:100530001146B1F90010401A0A2190FBF1F0114662
:10054000C9885288891A48430A4988810846B0F9FF
:10055000081009A000F0C4FD0648B0F90A1008A070
:1005600000F0BEFD0348818907A000F0B9FD00BF7F
:100570004AE700006E000020783A2025640A000057
:10058000793A2025640A0000617265613A20256489
:100590000A00000010B50AA10B4800F0B1FD0A489E
:1005A000FFF7E6FD84B22146074800F035FC232121
:1005B0000548FFF7D2FD01200449087010BD000076
:1005C00061705F69700000007E000020290000203B
:1005D00010B50AA10B4800F093FD0A48FFF7C8FDCB
:1005E00084B22146074800F017FC23210548FFF795
:1005F000B4FD01200449087010BD00007374615FF0
:10060000697000007E000020290000207CB50446AF
:1006100000200190002500BF06E0215C2C2901D1BB
:10062000691CCDB2411CC8B21028F6DB042D00D0E5
:100630007CBDE0782C2809D0E0792C2806D0E07A1F
:100640002C2803D0E07B2C2800D0F1E7207830382C
:10065000642110FB01F16078303800EB800001EB81
:100660004001A0783038084400B25A490880207907
:100670003038642110FB01F16079303800EB8000E4
:1006800001EB4001A0793038084400B2514948805C
:10069000207A3038642110FB01F1607A303800EBA9
:1006A000800001EB4001A07A3038084400B249498B
:1006B0008880207B3038642110FB01F1607B30386A
:1006C00000EB800001EB4001A07B3038084400B211
:1006D0004049C8802046FFF74BFDC5B23D48B0F900
:1006E00000003C49B1F90410884207DC3948B0F9F0
:1006F00002003849B1F90610884200DD98E7354913
:10070000B1F90410334AB2F90020881A00EBD07115
:10071000304A128802EB610109B22E4A118111465A
:10072000B1F90610B2F90220881A00EBD071294AFB
:10073000528802EB610109B2264A51811046B0F994
:1007400004001146B1F90010401A0A2190FBF1F0A3
:100750001146C9885288891A48431E498881002059
:100760000090E07C2D2810D1002006E000F114015B
:10077000615C0DF80010411CC8B20128F6DB9DF841
:10078000000030381349C8810FE0002006E000F176
:100790001301615C0DF80010411CC8B20128F6DBA2
:1007A0009DF8000030380B49C8810A48B0F908109C
:1007B00009A000F095FC0748B0F90A1008A000F065
:1007C0008FFC0448B0F90E1007A000F089FC00BFB0
:1007D0002EE700006E000020783A2025640A000011
:1007E000793A2025640A000069643A2025640A00E9
:1007F00000BFFEE710B50446062212A12046FFF70F
:10080000BEFC20B9214611A000F06AFC14E00522CC
:100810000FA12046FFF7B3FC20B921460BA000F042
:100820005FFC09E00F220CA12046FFF7A8FC18B9D5
:10083000214606A000F054FC32210B48FFF78DFC46
:1008400010BD00007374615F6970000025730000C3
:1008500061705F6970000000594148424F4F4D2060
:1008600056657253696F6E00D300002000BFFEE72B
:100870007047000070B5002100230F22C47804B334
:10088000154C246804F4E064C4F5E064210AC1F165
:100890000403CA40447804FA03F1847814402143E5
:1008A00009010E4C0678A155047804F01F050124B7
:1008B000AC4005786D11AD0005F1E025C5F80041AB
:1008C00009E0047804F01F050124AC40044D0678CB
:1008D000761145F8264070BD0CED00E000E400E024
:1008E00080E100E07047000029B1064AD269024366
:1008F000044BDA6104E0034AD2698243014BDA61B6
:10090000704700000010024029B1064A9269024374
:10091000044B9A6104E0034A92698243014B9A6155
:10092000704700000010024030B500210022002472
:1009300000232D4D6D6805F00C0121B1042905D06F
:10094000082923D105E0294D056022E0274D0560E7
:100950001FE0254D6D6805F47012234D6D6805F498
:100960008034022505EB92421CB9214D55430560A8
:100970000BE01D4D6D6805F400351DB11C4D554350
:10098000056002E0194D5543056002E0174D056012
:1009900000BF00BF144D6D6805F0F0010909154D49
:1009A0006B5C0568DD4045600F4D6D6805F4E061E6
:1009B000090A104D6B5C4568DD4085600A4D6D6825
:1009C00005F46051C90A0B4D6B5C4568DD40C5609C
:1009D000054D6D6805F44041890B074D6B5CC5689A
:1009E000B5FBF3F5056130BD0010024000127A003E
:1009F00000093D00140000202400002010B515A2BD
:100A000018A11B4800F07CFB1948FFF7B1FB84B22A
:100A10002146174800F000FA23211548FFF79DFBF7
:100A20004FF4967000F098FC12A213A1104800F049
:100A300067FB0F48FFF79CFB84B221460C4800F08F
:100A4000EBF923210A48FFF788FBB0EE000AFFF715
:100A500023FC10BD45535033325F574946495F541C
:100A60004553540061705F737369643A25730000E5
:100A70007E0000200000000061705F70643A257302
:100A80000000000070B5044622460BA10D4800F09E
:100A900037FB0C48FFF76CFB85B22946094800F08C
:100AA000BBF923210748FFF758FB07480470B0EE55
:100AB000000AFFF7F1FB70BD61695F6D6F64653A15
:100AC000256400007E0000202800002010B532229E
:100AD0000AA10E4800F014FB0C48FFF749FB84B252
:100AE00021460A4800F098F923210848FFF735FB12
:100AF000B0EE000AFFF7D0FB10BD00007769666911
:100B00005F6D6F64653A2563000000007E00002081
:100B100010B515A217A11A4800F0F2FA1848FFF70D
:100B200027FB84B22146164800F076F923211448A9
:100B3000FFF713FB4FF4967000F00EFC11A215A105
:100B40000F4800F0DDFA0E48FFF712FB84B2214691
:100B50000B4800F061F923210948FFF7FEFAB0EED7
:100B6000000AFFF799FB10BD596168626F6F6D3223
:100B7000000000007374615F737369643A25730049
:100B80007E000020796168626F6F6D3839303732CE
:100B9000390000007374615F70643A2573000000CF
:100BA000704710B500F002F810BD00000CB5002031
:100BB000019000903348006840F48030314908606B
:100BC00000BF3048006800F4003000900198401CDD
:100BD0000190009818B90198B0F5A06FF1D129489B
:100BE000006800F4003010B10120009001E0002006
:100BF00000900098012843D12348006840F010007D
:100C0000214908600846006820F003000860084693
:100C1000006840F0020008601A48406819494860BE
:100C20000846406848600846406840F48060486074
:100C30000846406820F47C1048600846406840F44C
:100C4000E81048600846006840F08070086000BF07
:100C50000C48006800F000700028F9D0094840688E
:100C600020F00300074948600846406840F0020051
:100C7000486000BF0348406800F00C000828F9D124
:100C80000CBD00000010024000200240042808D1E2
:100C90004FF0E021096941F004014FF0E0221161B9
:100CA00007E04FF0E021096921F004014FF0E02254
:100CB000116170477047000010B51348006840F09C
:100CC00001001149086008464068104908400E4973
:100CD0004860084600680E4908400B49086008460D
:100CE000006820F4802008600846406820F4FE0078
:100CF00048604FF41F008860FFF753FF4FF000601B
:100D00000449086010BD0000001002400000FFF818
:100D1000FFFFF6FE08ED00E010B5002440F225517B
:100D2000054800F015F930B1034800F0CDF9C4B220
:100D3000204600F003F810BD0038014010B504460D
:100D400000BF8021044800F0F6F80028F9D02146C1
:100D5000014800F0BEF910BD0038014010B586B062
:100D60000446012144F20400FFF7CEFD4FF4007069
:100D7000ADF8140018208DF8170003208DF8160028
:100D800005A91A48FFF7AAFA4FF48060ADF81400DD
:100D900004208DF8170005A91448FFF79FFA019465
:100DA0000020ADF80800ADF80A00ADF80C00ADF871
:100DB00010000C20ADF80E0001A90D4800F018F944
:100DC000002240F227710A4800F0ECF8002240F2BD
:100DD0002551074800F0E6F84021054800F096F854
:100DE0000121034800F09BF806B010BD0008014047
:100DF0000038014010B540F22551064800F0A8F82F
:100E000030B1044800F060F9C4B22046FFF7EEF9B3
:100E100010BD00000044004070B504460D4603E0DC
:100E2000207800F007F8641C281EA5F101018DB29E
:100E3000F6D170BD10B5044600BF8021044800F013
:100E40007AF80028F9D02146014800F042F910BD97
:100E50000044004010B586B0044601214804FFF765
:100E600043FD01210520FFF74FFD0420ADF81400DC
:100E700018208DF8170003208DF8160005A92148C9
:100E8000FFF72CFA0820ADF8140004208DF81700A5
:100E900005A91C48FFF722FA01940020ADF80800CC
:100EA000ADF80A00ADF80C00ADF810000C20ADF85C
:100EB0000E0001A9144800F09BF8002240F22771AF
:100EC000114800F06FF8012240F225510E4800F061
:100ED00069F840210C4800F019F801210A4800F097
:100EE0001EF826208DF8000001208DF80100042056
:100EF0008DF8020001208DF803006846FFF7BAFC68
:100F000006B010BD000801400044004001F400722A
:100F1000B2F5007F00D100BFCA430280704721B103
:100F2000828942F40052828104E082894DF6FF7387
:100F30001A408281704702460020B1F5007F00D13F
:100F400000BF13880B400BB1012000E00020704768
:100F500070B50246002400230025002040F66A16E2
:100F6000B14200D100BFC1F3421501F01F030126B9
:100F700006FA03F3012D02D19689334006E0022DD3
:100F800002D1168A334001E0968A33400C120126C2
:100F900006FA04F41688344013B10CB1012000E0C5
:100FA000002070BDF0B50346002400260025002077
:100FB00040F66A17B94200D100BF1846C1F3421487
:100FC00001F01F06012707FA06F5012C01D10C30AC
:100FD00004E0022C01D1103000E014301AB107688F
:100FE0002F43076002E00768AF430760F0BD0000D1
:100FF0002DE9F04786B005460E460024A24600BF04
:10100000A1460027B08900B100BF2F462C8A4CF6BC
:10101000FF700440F08804432C82AC894EF6F31034
:101020000440B08831890843718908430443AC8186
:10103000AC8A4FF6FF400440B0890443AC8201A85B
:10104000FFF772FC1F48874202D1DDF810A001E0D3
:10105000DDF80CA0A88900F4004040B10AEBCA00FA
:1010600000EB0A1031684900B0FBF1F807E00AEB29
:10107000CA0000EB0A1031688900B0FBF1F8642067
:10108000B8FBF0F004012009642101FB1089A88954
:1010900000F4004040B1322000EBC900B0FBF1F099
:1010A00000F00700044308E0322000EB091064213F
:1010B000B0FBF1F000F00F0004432C8106B0BDE856
:1010C000F08700000038014001468888C0F308001E
:1010D0007047C1F308028280704700BFFEE700003E
:1010E0000FB4054B10B503A9044A029800F02CF880
:1010F00010BC5DF814FB00009513000838000020B8
:101100000FB4084B10B504A902AA039800F01CF80C
:10111000044602A9002000F0F3F8204610BC5DF858
:1011200014FB00000113000802E008C8121F08C1E8
:10113000002AFAD170477047002001E001C1121F58
:10114000002AFBD1704700002DE9FF4F8BB09A4673
:101150000F460546002606E025280BD052460D997D
:1011600090476D1C761C28780028F5D10FB03046CA
:10117000BDE8F08F0024A0460122604900E004434E
:1011800015F8013F203B02FA03F00842F7D1287816
:101190002E2817D115F8010F44F004042A280ED088
:1011A0006FF02F022878A0F1300109290AD808EB46
:1011B000880102EB410100EB01086D1CF2E757F8D2
:1011C000048B6D1C287869283ED006DC0028CDD021
:1011D00063280BD0642804D136E0732810D075281A
:1011E0004BD052460D999047761C85E017F8040BBA
:1011F0008DF8000000208DF80100E946012003E091
:1012000057F8049B4FF0FF3061074FF0000401D402
:101210000AE0641C44450DDA8442FADB19F8041034
:101220000029F6D106E0641C8442FCDB19F80410A6
:101230000029F8D1264404E019F8010B52460D9913
:101240009047641EF8D257E001CF4FF00A0B0028F8
:1012500002DA40422D2102E0210504D52B218DF830
:101260002410012103E0E10705D02021F7E70DF16B
:10127000200908910CE00021F9E701CF4FF00A0B9B
:10128000F9E75946FEF788FF01F1300209F8012D10
:101290000028F6D1ADEB090000F1200B600701D466
:1012A0004FF00108D84502DDA8EB0B0000E000205C
:1012B0008046002406E009A85246005D0D9990473B
:1012C000641C761C08988442F5DB04E0302052460A
:1012D0000D999047761CB8F10001A8F10108F5DCE2
:1012E00005E019F8010B52460D999047761CBBF1A9
:1012F0000001ABF1010BF4DC6D1C34E7092801009F
:101300000A68531C0B6010707047000010B50E483F
:1013100000680E49B0FBF1F0C4B26FF00400FFF7B3
:10132000B5FCE11704EB5171C910094A1170104660
:10133000007800EB4001C1EBC0104FF6FF7101EAED
:10134000C0000449088010BD0000002040420F008A
:10135000340000203600002001460D4A12884A431E
:101360004FF0E0235A6100229A6101221A6100BF06
:101370004FF0E022106900F001021AB100F480324F
:10138000002AF5D000224FF0E0231A619A617047DD
:101390003600002070B504460D46E1B20548FFF75F
:1013A00098FE00BF80210348FFF7C5FD0028F9D053
:1013B000204670BD00380140FFF77EFCFFF7A6FF16
:1013C0004FF4E130FFF7CAFC4FF4E130FFF742FD84
:1013D000B0EE000AFEF760FF12A0FFF781FEFFF7F4
:1013E00075FBFFF795FBFFF709FB0520FFF74AFBAD
:1013F000FFF7D0F8B0EE000AFEF74EFF1048FFF7F7
:10140000F9F9FFF7E5F8B0EE000AFEF745FF0C48E2
:10141000FFF7F0F900F016F86420FFF79DFF00BF1A
:10142000FEE7000077616974696E6720666F72205D
:1014300077696669207374617274210D0A00000077
:10144000D30000200D48007818B902200C4908701C
:1014500012E00A480078042803D1032008490870E4
:101460000AE006480078052803D1042004490870E2
:1014700002E00520024908707047000028000020A3
:101480002900002010B50446242C0AD124480078F5
:1014900038B901202249087032212248FEF75DFE4A
:1014A00010BD1F480078012837D1232C14D100200B
:1014B0001B4908701C49087032221A491B48FEF764
:1014C00033FE1A48FEF796FF0120194908703221B1
:1014D0001448FEF742FE13E0242C09D100201249E3
:1014E00008700F49087032210E48FEF736FE07E0FB
:1014F0000D4801780078401C0B4A1070094844548C
:1015000009480078322808DD00200749087004499E
:10151000087032210348FEF720FE00BFC0E700003C
:1015200030000020A100002031000020D300002066
:101530003200002010B50446242C0AD12948007836
:1015400038B901202749087032212748FEF705FEE7
:1015500010BD24480078012841D1232C1ED1002041
:101560002049087021490870012021490870322261
:101570001D492048FEF7D8FD1E491FA0FFF7B0FD0A
:1015800032221C491D48FEF7CFFD32211648FEF7D6
:10159000E4FD32211748FEF7E0FD13E0242C09D1C9
:1015A0000020124908700F49087032210E48FEF7DA
:1015B000D4FD07E00D4801780078401C0B4A1070FC
:1015C0000948445409480078322808DD00200749BA
:1015D00008700449087032210348FEF7BEFD00BFC1
:1015E000B6E7000030000020A100002031000020FC
:1015F00032000020D300002025730A003C000020A8
:1016000010B50446242C0AD12848007838B90120A6
:101610002649087032212648FEF79FFD10BD234859
:10162000007801283FD1212C18D100201F490870D3
:101630002049087032221E491F48FEF775FD1E48DA
:10164000FEF7E4FF01201D49087032211A48FEF719
:1016500084FD32211648FEF780FD17E0242C09D1C5
:101660000020144908701149087032211048FEF713
:1016700074FD0BE0232C09D0402C07D00D480178D5
:101680000078401C0B4A10700948445409480078FF
:10169000322808DD0020074908700449087032210B
:1016A0000348FEF75AFD00BFB8E7000030000020F5
:1016B000A100002031000020D300002032000020D3
:1016C00010B50446242C0AD12148007838B90120ED
:1016D0001F49087032211F48FEF73FFD10BD1C480E
:1016E0000078012831D1232C0ED100201849087030
:1016F00019490870322217491848FEF715FD3221A2
:101700001448FEF72AFD13E0242C09D100201249C9
:1017100008700F49087032210E48FEF71EFD07E0E1
:101720000D4801780078401C0B4A10700948445459
:1017300009480078322808DD00200749087004496C
:10174000087032210348FEF708FD00BFC6E700001D
:1017500030000020A100002031000020D300002034
:1017600080170008000000203C000000281100083D
:10177000BC1700083C000020CC0400003811000811
:1017800000A24A040000000000000000010203045F
:101790000607080900000000010203040102030417
:1017A0000607080902040608000000000000000007
:0C17B0000000000000000000000000002D
:0400000508000105E9
:00000001FF
