S011000074685F73656E736F722E737265633E
S3150000000000040020090B000069090000190B00001C
S31500000010190B0000190B0000190B0000190B00004A
S31500000020000000000000000000000000190B0000A6
S31500000030190B000000000000190B0000190B00004E
S30D00000040750300009D04000099
S315000000487047D4D480B56F4640F24C4041F68021C3
S31500000058C2F20000C0F2000100F03AF840F220486F
S31500000068C2F200084046002100F022FE44F2402970
S3150000007840F2244640F23C4440F24045C0F20F09A3
S31500000088C2F20006C2F20004C2F200050120494687
S3150000009800F020FC4046314600F01EFEB06831698B
S315000000A820602960F2E7D4D4022818BF704740F2CE
S315000000B8444041F6C821C2F20000C0F2000100F037
S315000000C875BAD4D480B56F46FFF7BCFF002080BD53
S315000000D8F0B503AF2DE9000B0246087848F2000395
S315000000E8C4F2110303EB00201061116088684FF019
S315000000F8000E5060087B4FF0010C1072C86944F27C
S3150000010804055063086AC2F838E0D063EFF3108339
S315000001188CF310880878C4F208054FF000442E685E
S3150000012824FA00F026EA00002860286883F310887D
S3150000013810681469436A84F802E01069F024C472EE
S315000001489878146900F0030020701069FA24847105
S31500000158587814694EF200196070187820241569C9
S3150000016844EA8000E87158791469CEF200092072D1
S31500000178D878146940F2D048A07418791369C00079
S3150000018801305872106923238372106909F5407586
S3150000019880F80DE0487B91F90F400001C2F2000893
S315000001A846F20036285548F82420C4F2000656F8C8
S315000001B8240009F5C07320F4803046F8240056F868
S315000001C8240004F01F000CFA00F06409BFF35F8FE7
S315000001D843F8240049F82400487B91F910100001DF
S315000001E8685448F8212056F8210020F4803046F853
S315000001F8210056F8210001F01F000CFA00F0490909
S31500000208BFF35F8F43F8210049F8210043F24321E9
S31500000218C5F24931C2E906EEC2E908EE82F82DE0D8
S3150000022882F82EE082F82FE082F830E00020D160D4
S31500000238BDE8000BF0BDD4D480F82E30037AC0E9AF
S315000002480612012B0AD10379002180F829105900DA
S31500000258013180F82810012180F82A10012180F840
S315000002682D100023C0E9082390F82A2080F82C30A6
S3150000027880F82B2080F82F3080F8313080F8333022
S3150000028890F82D20002A18BF80F831100169B42291
S315000002988A7090F83010B9B1002180F8301090F8C3
S315000002A82A102922012908BF2822815C0269D170F7
S315000002B890F82B1090F82C20013980F82B10511C3F
S315000002C880F82C100020704700695121C172002067
S315000002D87047D4D480F82E30037AC0E90612012B71
S315000002E809D10379002180F82910590080F82810CF
S315000002F8012180F82A10002180F82D10C0E9082174
S3150000030890F82A2080F82C1080F82B2080F82F10DF
S3150000031880F8311080F8331090F82D10B422002997
S315000003281CBF012180F8311001698A7090F83010DD
S31500000338B9B1002180F8301090F82A102922012935
S3150000034808BF2822815C0269D17090F82B1090F8BA
S315000003582C20013980F82B10511C80F82C10002015
S31500000368704700695121C17200207047EFF303807E
S315000003784FF0704101EB006046F200328015C4F27E
S315000003880002835823F4803383508058EFF30380A8
S3150000039801EB006040F2D0418015C2F20001085816
S315000003A801690A7BD2071AD190F82A3090F82C20D6
S315000003B8934222D1026A002A41D080B56F4690F84E
S315000003C82D30002B45D090F83130002B4ED000232D
S315000003D8012A80F8313056D08B72026A50E090F8C4
S315000003E82D2012B190F83120F2B1002202620122CA
S315000003F880F82F205420C872704790F82D30022AB2
S3150000040804D1002B1EBF5220C872704790F82820CE
S31500000418CA7090F82B1090F82C20013980F82B1010
S31500000428511C80F82C10704749798269436AD15467
S31500000438D0E908230169013A0133C0E9082390F895
S315000004482E20002AD6D05222CA72012180F83010F6
S3150000045870478369D0F824C0A2F1010E13F80C3056
S315000004680CF10102C0E908E2CB7080BD49798269C6
S31500000478436AD154D0E908134A1E591CC0E9082119
S315000004880169012A02D120228A720169FF23CB70F1
S3150000049880BDD4D4D0B502AF82B0EFF303804FF05D
S315000004A8704101EB006040F2D0418015C2F20001B4
S315000004B80C582069C17A01F0F701C17294F82F002F
S315000004C8C0B12069F021C172A06B00281ABFD0E91B
S315000004D80012CDE900126846E16B01600121017145
S315000004E8616B8847A06B00281CBFDDE90012C0E9D4
S315000004F8001236E094F82A1094F82C0081420ED1A6
S31500000508206A70BB94F82D000221002808BF032139
S3150000051894F830202069B2B30022C2723AE060B182
S3150000052894F82D1002284FF000000BD100291CBFAB
S3150000053894F8290040F0010004E02920012908BFA9
S315000005482820205C21690022CA722169C87094F8A3
S315000005582B0094F82C10013884F82B00481C84F8DA
S315000005682C00EFF303804FF0704101EB006046F278
S3150000057800318015C4F20001425822F480324250FC
S31500000588405802B0D0BDF022C2722069827802F0CB
S31500000598CF028270A06B00281ABFD0E90023CDE9EC
S315000005A800236846E26B026099E7D4D480B56F46AB
S315000005B845F25422C5F24F020260084600F002F8DE
S315000005C8002080BDF0B503AF2DE9000B0446008876
S315000005D8D0B341F6D82843F240090025C0F20008F6
S315000005E8C4F2080904E000BF2088013585422BD2F1
S315000005F8002608E009F81600C820012100F06AF96B
S315000006080136032EF0D0606838F8162000EBC501D5
S3150000061889889142F4D150F8350000F0B85119F99B
S315000006281600B1F1807F07D10028E9D419F8160021
S3150000063860F07F00DEE700BFB0F1FF3FE0DC19F8AD
S31500000648160000F07F00D5E740F2CC4CEFF310819E
S31500000658012080F31088C2F2000CDCF800203AB9B9
S3150000066840F60352C4F208020023137040231370A5
S31500000678DCF800200132CCF8002081F310882188AC
S3150000068829B340F6000E0021C4F2080E08E000BFA8
S315000006980EEB861040F8253020880131814216D2AB
S315000006A8636803EBC106B58853F831302E0AD803C0
S315000006B8EDB2EDD50EEB861050F8252022F48032E7
S315000006C840F8252023F4803240F82520E0E7EFF3B0
S315000006D81081012080F31088DCF8000020B1DCF8D6
S315000006E800000138CCF80000DCF8000038B940F604
S315000006F80350C4F20800002202708022027081F3BF
S315000007081088BDE8000BF0BD4EF22000C4F20100CF
S31500000718817940F200420068C2F2000252F82110C4
S31500000728C0F3026021FA00F040F2E441C2F200018F
S3150000073808607047F0B503AF2DE9000B4EF2804410
S31500000748C4F201044CF204154AF20350C4F201053E
S3150000075824F8820C0120288028880028FCD147F23A
S3150000076800010120C4F2000125F8040C8860086025
S3150000077840F2004842F6005041F20021C2F2000859
S31500000788C0F23110C0F27A014EF220064FF4004250
S315000007984CF2002388E8070008F10C01C4F20106B0
S315000007A8C0F6EB330DC1B079316858F82000C1F3B3
S315000007B8026140F2E449C840C2F20009C9F80000E3
S315000007C8002004F86D0C092086F88200207810B9FC
S315000007D8607880073FD0207848B901202070C8206B
S315000007E8012100F077F800BF20780128FCD100200D
S315000007F8607020700020B074307F0007FCD54FF47D
S31500000808985030810020B072307F8006FCD50320D6
S31500000818287641F22120C2F2000030600520B0712E
S31500000828B079316858F82000C1F30261C840C9F8A8
S31500000838000042F20C00C4F20000F121017001210F
S3150000084800F8041CF02101704FF4254024F8820CAE
S31500000858BDE8000BF0BD4FF47A7000F001F8C9E767
S315000008687047D4D4B0B502AF43F22404C4F20804E6
S315000008780025C8200121257100F02CF8257000BF3D
S3150000088820780028FCD1207840F00200207000BFB4
S3150000089820788007FCD4002004F8020C14F8020C17
S315000008A80028FBD10020012104F11C0212F81030A7
S315000008B803F07F0302F8103012F91030002BFBD436
S315000008C8C9074FF001004FF0000108BFB0BDEDE7C2
S315000008D87047D4D440F2E442C2F20002126841F2F0
S315000008E80023C0F27A039A4201FB00F00FD340F6C8
S315000008F8FF01C0F23D0111444DF68362C4F21B327A
S31500000908A1FB0212110DA0FB0101D9B11FE04CF6A3
S31500000918002348F63811C3F69A33C0F24101B3FBF7
S31500000928F2F2884206D24FF47A714843B0FBF2F0ED
S31500000938800807E09200B0FBF2F0884207D24FF435
S315000009487A714843002808BF704700F005B84FF091
S31500000958FF3000F001B8D4D401380028FCD1704724
S31500000968F0B503AF2DE9000B46F22018C4F20008D3
S31500000978B8F80000B8F8201040F28C4501EA0009E2
S315000009881FFA89F60024C2F2000502E00134102C91
S315000009980AD026FA04F0C007F8D055F82410002922
S315000009A8F4D0E0B28847F1E7A8F81090BDE8000B4C
S315000009B8F0BDD4D4F0B503AF4DF804BD84B048F209
S315000009C848060320C4F2000600F072F86FF0FF0034
S315000009D841F6D42430604FF0FF3000230121C0F2E5
S315000009E800040122CDE9020034F8135001FA03F39A
S315000009F8002D18BF9843D2074FF000024FF00103AD
S31500000A08F2D14EF280320190002001A9CEF2000206
S31500000A1851F8203006EB8005AB6242F820300130F1
S31500000A280328F5D1032000F017F846F2003200201B
S31500000A380121C4F2000200BF34F81030002B18BFA1
S31500000A4842F82030C9074FF001004FF00001F3D1FA
S31500000A5804B05DF804BBF0BD0122EFF3108182F308
S31500000A68108840F2D842C2F2000232F8103023B1A0
S31500000A7832F81030013B22F8103032F8102012B14B
S31500000A8881F3108870474EF2FE3CC4F2010C41F621
S31500000A986432BCF80030C0F2000232F8100043F4A9
S31500000AA8254222EA0000ACF8000081F3108870475E
S31500000AB880B56F460122EFF3108182F3108840F269
S31500000AC8D842C2F2000232F810308BB94EF2FE3C20
S31500000AD841F66433C4F2010CC0F20003BCF800E02E
S31500000AE833F8103043EA0E0343F42543ACF80030DC
S31500000AF832F81030013322F8103081F3108880BDA7
S31500000B0880B56F4600F006F8FFF7DCFAFEE7D4D4A6
S31500000B1800BE7047F0B503AF2DE9000B4EF608503E
S31500000B28CEF200004FF47001C0F8801040F20001C8
S31500000B38C0F2000101600020FFF7B6FAFFF7FAFDE0
S31500000B480120FFF7B1FA41F6E828C0F20008D8F804
S31500000B58006040F20000C2F2000080F30A8896B1F5
S31500000B68D8F804003546041D04E000BF013D04F131
S31500000B780C0408D060790028F8D154E90101091A53
S31500000B8800F02AF9F2E7D8F80890B9F1000F13D067
S31500000B98D8F80C004D4600F1080403E0013D04F1C5
S31500000BA8100409D060790028F8D154E902022168B6
S31500000BB8121A00F015F9F1E7FFF7A6FDFFF752FE46
S31500000BC80320FFF775FF40F60E510920C4F208010D
S31500000BD84FF6FF72013821F8022FFBD10320FFF7E9
S31500000BE83BFF0320FFF764FF0420C4F20E00002138
S31500000BF8016041608160C1600320FFF72DFF02207C
S31500000C08FFF752FAA6B1D8F804004FF48075041D10
S31500000C1804E000BF013E04F10C0409D06079B5EB8D
S31500000C28002FF7D154E90101091A00F0D5F8F1E7C8
S31500000C38B9F1000F16D0D8F80C004FF4807600F101
S31500000C48080404E0B9F1010904F110040AD0607936
S31500000C58B6EB002FF6D154E902022168121A00F009
S31500000C68BFF8EFE740F2F444C2F20004204600F071
S31500000C7893F8204600F0A6F841F6CA3041F6CA3184
S31500000C88C0F20000C0F20001091A8C10012C06DB24
S31500000C98051F00BF55F8040F8047013CFAD1FFF73E
S31500000CA889FE0020BDE8000BBDE8F040FFF710BE46
S31500000CB8002918BF7047014642F23010088043F2F7
S31500000CC8210021F8020F40F24C40C2F20000022235
S31500000CD80023FFF7FFBAD4D4F0B503AF4DF804BD2F
S31500000CE80C4601464FF4604040F24C450880E0202F
S31500000CF8C2F2000521F8020F284602220023FFF758
S31500000D08E9FA2846214606220023FFF795FA2088A5
S31500000D1800BA000CA08100F063FC9FED170B55ECA0
S31500000D28106B32462B4600F04FFC9FED150B53EC2B
S31500000D38102B00F0F9FD9FED140B53EC102B00F06F
S31500000D484FFA00F08EFEE1782279A06042EA01218E
S31500000D5888B2A18200F044FC32462B4600F034FCEF
S31500000D689FED0B0B53EC102B00F0DEFD00F079FE27
S31500000D7820615DF804BBF0BD00000000E0FFEF4015
S31500000D880000000000E0654000000000008046C04A
S31500000D980000000000005940D0B502AF05490446DE
S31500000DA8054A00F01DF805480549204400F014F8E6
S31500000DB8D0BD00BF48000000000000000000000091
S31500000DC8000000000249401A02490860704700BF47
S31500000DD808000000F00400200A46002100F00AB8C6
S31500000DE8D0B502AF00239A4203D0CC5CC454013379
S31500000DF8F9E7D0BD00239A4208BF7047C1540133B2
S31500000E08F9E7D4D4D4D4D4D42DE9F04F81B052EC38
S31500000E18101B002658EC113BC8F210064FF0010CC7
S31500000E2822F000474C1E07EB060528F00040B541A6
S31500000E3861D38519B3EB0C04B5415CD3CD1A4FF0D9
S31500000E48000677EB000038BF01261846002E1CBFA7
S31500000E5808461946434696461CBF1346C646754677
S31500000E68C3F30A56CEF30A5C6FF31F556FF31F538D
S31500000E78BCF1000F60D0002E7DD088EA0209DA00A6
S31500000E8842EA5072EB0042F4000243EA5173C00092
S31500000E98B44500F08E80ACEB06043F2C00F2878048
S31500000EA8C4F12006C4F1400720FA04F802FA06F550
S31500000EB848EA050AC7F12005B4F1200858BF22FA06
S31500000EC808FA002E20FA05FB02FA07F545EA0B0593
S31500000ED822FA04F258BF00FA06F500FA07F058BFDE
S31500000EE80020284318BF0120B8F1000F40EA0A0085
S31500000EF858BF00225DE000254C1EC7F6F07577EB5B
S31500000F0805040AD342F4002040EC111BB0EE410A56
S31500000F18F0EE610A01B0BDE8F08F5C1E70EB0504C7
S31500000F2870D348F4002040EC113BB0EE410AF0EED5
S31500000F38610A01B0BDE8F08F002D06BFB1FA81F74E
S31500000F482037B5FA85F7A7F10B09B7F12B0405FA8F
S31500000F5809FCC7F12B0521FA05F545EA0C05C7F189
S31500000F680C0C58BF01FA04F501FA09F158BF002123
S31500000F78002E7FF482AF002B06BFB0FA80F404F18E
S31500000F882006B3FA83F6C6F12B07A6F10B04A34095
S31500000F9820FA07F73B43B6F12B07C6F10C0658BFF4
S31500000FA800FA07F300FA04F058BF002065E70022AC
S31500000FB8012043F400030EF00048C900B9F1FF3FD1
S31500000FC80DDD09185A41D30155D55FEA520200F0E2
S31500000FD801004FEA31010CF1010C01434BE081EAB3
S31500000FE8000783EA0206091A47EA060763EB0202C4
S31500000FF80FBB9FED771BB0EE410AF0EE610A01B018
S31500001008BDE8F08F87EA05040C4340F0968083EA32
S315000010180100BCF101039FED700B80EA030066F541
S31500001028801388EA02077B4056EC105B18431CBF06
S3150000103816460D46AEE00020B0EBD25F1BD1002A63
S3150000104806BFB1FA81F02030B2FA82F0A0F10803A7
S31500001058C0F12807ACEB030C283802FA03F221FA90
S3150000106807F742EA070258BF01FA00F201FA03F14C
S3150000107858BF002111E040F2FF7084450DDB48F0AF
S31500001088E040002140F07F6040EC111BB0EE410AC1
S31500001098F0EE610A01B0BDE8F08FBCF1000F2ADC62
S315000010A8CCF101000CF13F06C0F1200721FA00F34C
S315000010B802FA06F502FA07F73B436FF01E07B7EB8D
S315000010C80C0758BF22FA07F3C24021FA07F4254352
S315000010D81CF11F0458BF01FA04F501FA06F14FF096
S315000010E8000C58BF0021294318BF0121002F41EAEF
S315000010F8030158BF0022C80840EA4275C2F3D3006C
S3150000110801F0070740EA0C5040EA080600F072F8BA
S31500001118022830D0012822D0C0BB681C46F1000145
S31500001128042F9CBF284631463DD105F001002D18F5
S3150000113846F1000600F06EF82CE080EA05061E432C
S315000011483FF4E4AE51EA070643EA00062ED0B0EEB5
S31500001158401A002EF0EE601A7FF470AED6E63846D6
S31500001168002F18BF0120B8F1000F18BF4FF0010873
S3150000117800EA080007E0B8FA88F03946002F18BFD9
S315000011880121400908402D1846F10006002F18BF16
S3150000119800F040F846EC115BB0EE410AF0EE610A49
S315000011A801B0BDE8F08F05460E46EFE7002E7FF446
S315000011B8ADAE03EA010008EA020141EC110BB0EEFC
S315000011C8410AF0EE610A01B0BDE8F08F00BF00BF2A
S315000011D80000000000000000000000000000F87F8A
S315000011E880B541EC100B43EC112BFFF70DFE51ECCB
S315000011F8100B80BDF1EE100AC0F3815001380228A9
S3150000120884BF002070470249794451F8200070478E
S315000012185C090000F1EE100A40F01000E1EE100A39
S3150000122800207047D4D4D4D42DE9F04F85B055ECBE
S3150000123810EB4FF6020751EC118BCFF6FF77A94654
S3150000124881EA05000C46C5F30A53A3F2FF7600F0BF
S31500001258004C6FF31F546FF31F59C1F30A52BE4275
S3150000126821BFA2F2FF764FF60107CFF6FF77BE42FF
S3150000127810D8002625F00047BEF10100C7F6F07623
S3150000128877EB06007ED345F4002040EC10EB05B062
S31500001298BDE8F08FCDE902320020CDF810C00090ED
S315000012A844F480114FEA58500191002640EAC120C3
S315000012B84FF23331C7F2045149F4801B091AA0FBD7
S315000012C801456C42A4FB0114C90F41EA4401A1FB84
S315000012D800456C42A1FB0414C90F41EA4401A1FB75
S315000012E800456C42A1FB0414C90F41EA44014FEAC8
S315000012F8C8240139A4FB01450024E0FB0156D5F1B9
S31500001308010064EB0605A1FB0556A0FB010176006A
S3150000131846EAD576C00F40EA410010EB450045463F
S3150000132846EBD171E13861F100074FEA4B0141EA1A
S31500001338DE7A4FEA4E01A7FB013C4FF00008E7FBB7
S315000013480AC8A0FB0A791CEB09028946A0FB010121
S3150000135848F10006C81944F10001C01852EB010310
S31500001368DDE9021046F10007081A0099B4EB575F49
S31500001378084415D1A3FB0512019C4FEA4E5600F20C
S31500001388FE301AE021F00045B8F1010075EB0600C1
S3150000139837D341F4002040EC108B05B0BDE8F08F40
S315000013A85FEA5707019C4FEA33034FEA0E56A3FB41
S315000013B8051200F2FF30F146DA4603FB0422D1F1AA
S315000013C8000C07FB052266EB0202049E40F2FF7141
S315000013D8A646884209DB46F0E04040F07F600021DF
S315000013E840EC101B05B0BDE8F08F012823DB510047
S315000013F86FF31F5747EA005241EADC714FEA4C0087
S315000014088AE087EA060050EA0E0009D185EA060056
S3150000141850EA080044D19FED6A0B05B0BDE8F08F8D
S3150000142885EA060050EA08000ED100204CEC100BA5
S3150000143805B0BDE8F08F10F1350F39DC002046EC19
S31500001448100B05B0BDE8F08F5EEA07007DD058EABC
S31500001458050025D04FF0000ABAEB175F40F08580EB
S31500001468B9F1000F06BFBEFA8EF000F12001B9FAF5
S3150000147889F1A1F10B00C1F12B0709FA00F62EFA42
S3150000148807F747EA0609C1F10C06B1F12B0758BF61
S315000014980EFA07F90EFA00FE58BF4FF0000E65E087
S315000014A84CEA0600002140EC101B05B0BDE8F08FA1
S315000014B8C0F1010123FA01F2C1F1200307FA03F38F
S315000014C813436FF01E02121A58BF27FA02F3A5FB40
S315000014D803C427FA01F258BF002200F1340705FBBE
S315000014E802416FF01304241A14300EFB031129FA73
S315000014F804F44FEA410141EADC780AFA07F141EAC5
S31500001508040158BF09FA00F109FA07F058BF00208C
S31500001518B0EB4C0061EB080103F00107C0194FF06E
S31500001528000741F10001281A7EEB010038BF0127A8
S31500001538581C42F10001002F04BF184611463143DA
S3150000154841EC100B05B0BDE8F08F9FED1D0B58EA76
S3150000155805014FF0000051EC103B1CBF61460346E5
S3150000156841EC103B05B0BDE8F08F0026BAEB155FDD
S31500001578CDF810C0CDE902321DD1002C06BFB8FA4D
S3150000158888F000F12001B4FA84F1A1F10B00C1F151
S315000015982B05844028FA05F52C43B1F12B0558BFD5
S315000015A808FA05F408FA00F806EB010058BF4FF0F0
S315000015B800080C3873E6009672E600BF00BF00BF4D
S315000015C8000000000000F87F80B541EC100B43ECEA
S315000015D8112BFFF729FE51EC100B80BDD4D4D4D4BF
S315000015E8002802BF9FED140B51EC100B704780B515
S315000015F8B0FA80F181F01F02D2F1140CC2F1340264
S31500001608C2F1200320FA03F358BF00FA0CF383F45F
S31500001618801E40F21E43591A9040BCF1000F0EEB93
S31500001628015158BF002041EC100BBDE8804051EC39
S31500001638100B704700BF00BF00000000000000004C
S315000016482DE9F04F81B055EC101B4FF6020756EC0A
S3150000165811ABCFF6FF7786EA05022C4602F0004C5E
S315000016683246C5F30A596FF31F52A9F2FF736FF397
S315000016781F54C6F30A5EBB4221BFAEF2FF734FF694
S315000016880107CFF6FF77BB420FD8002325F00047A6
S31500001698481EC7F6F07377EB03004CD345F40020D9
S315000016A840EC101B01B0BDE8F08F4FF0000B44F47E
S315000016B88013D2024FEACA2042EA5A52A0FB0345D7
S315000016C842F0004700264FF00048E7FB0356A0FB10
S315000016D80123A7FB01102D1846F100061B1948F136
S315000016E800445818654109EB0E0346F100045B44B3
S315000016F8A3F2FF33E7022CD4470047EAD27167000A
S3150000170847EAD5746F0047EAD0755200084640F29A
S31500001718FF718B4222DA002B46DD6FF31F5444EA31
S3150000172803572B46514247EA0C0778EB000180F035
S31500001738968001339AE026F00045BAF1010075EB70
S31500001748030015D346F4002040EC10AB01B0BDE809
S31500001758F08F013340F2FF718B42DCDB4CF0E04046
S3150000176840F07F60002140EC101B01B0BDE8F08F0F
S3150000177887EA030008430AD15AEA05000FD04CEA63
S315000017880300002140EC101B01B0BDE8F08F85EA8C
S31500001798030050EA0A0070D151EA0700EFD19FED25
S315000017A8600B01B0BDE8F08FC3F101063F2E6AD881
S315000017B8C6F1200903F13F0B22FA06F1B6F1200E15
S315000017C800FA09F741EA070105FA0BF758BF20FAAC
S315000017D80EF113F11F0A58BF002739436FF01E0791
S315000017E8FF1A009100FA0BF3BAF1000F22FA07F17B
S315000017F825FA07F741EA030125FA06F358BF02FA64
S315000018080AF102FA0BF258BF0022114318BF012150
S31500001818009ABEF1000F20FA06F042EA010204FA25
S3150000182809F143EA010304FA0BF158BF24FA0EF34F
S315000018383943BAF1000F58BF05FA0AF1BEF1000F95
S3150000184858BF002024FA06F740EA010058BF0027CF
S31500001858514247EA0C0778EB0001FFF46AAF80EAC9
S315000018680800104304D103F001001B1847F10007D4
S3150000187847EC103B01B0BDE8F08F51EA070018BFEE
S315000018885AEA050005D100204CEC100B01B0BDE862
S31500001898F08F4FF00008B8EB175F1BD1002C06BF7E
S315000018A8B1FA81F000F12003B4FA84F3A3F10B0036
S315000018B8C3F12B06C3F10C0B844021FA06F6344318
S315000018C8B3F12B0658BF01FA06F401FA00F158BF26
S315000018D8002101E04FF0000BB8EB155F7FF4E7AE8F
S315000018E8002A06BFBAFA8AF000F12003B2FA82F398
S315000018F8A3F10B00C3F12B0582402AFA05F52A430A
S31500001908B3F12B0558BF0AFA05F20AFA00FAABEB4F
S31500001918030058BF4FF0000A00F10C0BC7E600BFE2
S31500001928000000000000F87F80B541EC100B43EC86
S31500001938112BFFF785FE51EC100B80BDB0B554ECAA
S31500001948102B2146C4F30A53A3F281306FF31F51BB
S31500001958FD2809D8500F40EAC10122F06040B0F1D5
S31500001968805F16D9013118E052EA01000AD040F228
S31500001978FF70834206D1500FFF2240EAC10040F4AF
S31500001988800115E040F27E40834219D9FF220021EA
S315000019980EE004BF01F0010001444FF68040CA0D75
S315000019A8CFF6FF7018BF013000EB030218BF002105
S315000019B804F0004040EAC250084300EE100AB0BDE9
S315000019C840F2813E002B18BF01F5801108BF4FF485
S315000019D8607EAEEB030CBCF1340F02DD0021002261
S315000019E8E6E79E4501D1002315E0CCF14005DCF180
S315000019F82000C5F1200301FA05FE22FA03F343EAA3
S31500001A080E0358BF02FA00F302FA05F058BF002089
S31500001A18034318BF012322FA0CF0CCF1200201FA85
S31500001A2802F21043BCF1200258BF21FA02F021FA53
S31500001A380CF120F06045002A58BF00212B43400FC7
S31500001A4840EAC101B3F1805F01D9013103E004BF67
S31500001A5801F001000144CA0D1CBF81F400010122F6
S31500001A68A6E780B541EC100BFFF768FF10EE100AE9
S31500001A7880BD011400AC1E0100000000A086010014
S31500001A8844000000010CDF00010000000000000017
S31500001A980000000049000000000000007A1A00005B
S31500001AA8000001040001000000000104010100001B
S31500001AB8000001000801000000000100000300000A
S31500001AC804000000A81A000000000000810182013D
S31500001AD8020403040404D4D40000002000000020FB
S31500001AE803000000001B000004000000241B000087
S31500001AF801000000E01A000000000020000000209D
S31500001B080000000320040020F40400200000000365
S31500001B18F4040020F4040020000000030000002064
S31500001B28000000200000006000010C0300000020F7
S31500001B38000000200000000800000203000000204A
S31500001B48000000204800000000000103F404002003
S31500001B58F404002048000000000001030100020010
S31500001B68080010002000D4D4020000000100000084
S31500001B780300000000000106362E312E30004275A3
S31500001B88696C7420776974682052656E6573617331
S31500001B9820416476616E63656420466C6578696287
S31500001BA86C6520536F667477617265205061636B4C
S31500001BB86167652076657273696F6E20362E312EE1
S30700001BC83000E5
S3090100A100FFFFFFFF58
S3090100A200FFFDFFFF59
S70500000B09E6
