S01100005247425F6C696768742E73726563C1
S3150000000000040020010600008D0400001106000017
S31500000010110600001106000011060000110600007E
S3150000002000000000000000000000000011060000B3
S315000000301106000000000000110600001106000075
S3150000004080B56F4640F2284040F6B871C2F2000013
S31500000050C0F2000100F02AF8002000F0A9FB012000
S3150000006000F0A6FB022000F0A3FB40F22044C2F2FF
S31500000070000400BF204600210622052300F0C8FB2D
S31500000080F8E7D4D4022818BF704740F2284040F65B
S31500000090B871C2F20000C0F2000100F007B8D4D473
S315000000A080B56F46FFF7CCFF002080BD80B56F4658
S315000000B045F25422C5F24F020260084600F018F8D5
S315000000C0002080BDC8B2012383409BB24FF4803C20
S315000000D0002A08BF0CFA00F36FF0010000EAD11005
S315000000E008220101C4F20802002053507047D4D4FC
S315000000F0F0B503AF2DE9000B04460088D0B340F6F7
S31500000100C47843F240090025C0F20008C4F2080989
S3150000011004E000BF2088013585422BD2002608E086
S3150000012009F81600C820012100F06AF90136032EED
S31500000130F0D0606838F8162000EBC5018988914236
S31500000140F4D150F8350000F0B85119F91600B1F1A4
S31500000150807F07D10028E9D419F8160060F07F00E7
S31500000160DEE700BFB0F1FF3FE0DC19F8160000F053
S315000001707F00D5E740F2704CEFF31081012080F349
S315000001801088C2F2000CDCF800203AB940F603529F
S31500000190C4F208020023137040231370DCF8002019
S315000001A00132CCF8002081F31088218829B340F66B
S315000001B0000E0021C4F2080E08E000BF0EEB861008
S315000001C040F8253020880131814216D2636803EB5E
S315000001D0C106B58853F831302E0AD803EDB2EDD5F5
S315000001E00EEB861050F8252022F4803240F82520A8
S315000001F023F4803240F82520E0E7EFF31081012058
S3150000020080F31088DCF8000020B1DCF8000001382B
S31500000210CCF80000DCF8000038B940F60350C4F210
S315000002200800002202708022027081F31088BDE867
S31500000230000BF0BD4EF22000C4F20100817940F2BD
S3150000024000420068C2F2000252F82110C0F30260B8
S3150000025021FA00F040F28041C2F2000108607047C6
S31500000260F0B503AF2DE9000B4EF28044C4F2010451
S315000002704CF204154AF20350C4F2010524F8820C2C
S315000002800120288028880028FCD147F2000101209F
S31500000290C4F2000125F8040C8860086040F20048AA
S315000002A042F6005041F20021C2F20008C0F23110BD
S315000002B0C0F27A014EF220064FF400424CF20023BF
S315000002C088E8070008F10C01C4F20106C0F6EB331A
S315000002D00DC1B079316858F82000C1F3026140F2CF
S315000002E08049C840C2F20009C9F80000002004F89D
S315000002F06D0C092086F88200207810B96078800796
S315000003003FD0207848B901202070C820012100F094
S3150000031077F800BF20780128FCD10020607020709B
S315000003200020B074307F0007FCD54FF49850308120
S315000003300020B072307F8006FCD50320287641F27B
S315000003402120C2F2000030600520B071B07931681A
S3150000035058F82000C1F30261C840C9F8000042F213
S315000003600C00C4F20000F1210170012100F8041C08
S31500000370F02101704FF4254024F8820CBDE8000BF3
S31500000380F0BD4FF47A7000F001F8C9E77047D4D495
S31500000390B0B502AF43F22404C4F208040025C82015
S315000003A00121257100F02CF8257000BF2078002867
S315000003B0FCD1207840F00200207000BF2078800732
S315000003C0FCD4002004F8020C14F8020C0028FBD11F
S315000003D00020012104F11C0212F8103003F07F0303
S315000003E002F8103012F91030002BFBD4C9074FF079
S315000003F001004FF0000108BFB0BDEDE77047D4D44F
S3150000040040F28042C2F20002126841F20023C0F2BA
S315000004107A039A4201FB00F00FD340F6FF01C0F2C7
S315000004203D0111444DF68362C4F21B32A1FB021258
S31500000430110DA0FB0101D9B11FE04CF6002348F6CF
S315000004403811C3F69A33C0F24101B3FBF2F2884287
S3150000045006D24FF47A714843B0FBF2F0800807E009
S315000004609200B0FBF2F0884207D24FF47A7148430B
S31500000470002808BF704700F005B84FF0FF3000F0C5
S3150000048001B8D4D401380028FCD17047F0B503AFC9
S315000004902DE9000B46F22018C4F20008B8F8000057
S315000004A0B8F8201040F2304501EA00091FFA89F633
S315000004B00024C2F2000502E00134102C0AD026FA0C
S315000004C004F0C007F8D055F824100029F4D0E0B2A3
S315000004D08847F1E7A8F81090BDE8000BF0BDD4D42A
S315000004E0F0B503AF4DF804BD84B048F248040320CC
S315000004F0C4F2000400F05CF841F25001C0F20001C1
S315000005006FF0FF000E8820604FF0FF3003900290DE
S31500000510002E01901CBF6FF0010001904EF2803258
S31500000520002001A9CEF2000251F8203004EB80052C
S31500000530AB6242F8203001300328F5D1032000F0E9
S315000005400BF8002E1EBF46F20030C4F20000066013
S3150000055004B05DF804BBF0BD0122EFF3108182F315
S31500000560108840F27442C2F2000232F8103023B111
S3150000057032F81030013B22F8103032F8102012B158
S3150000058081F3108870474EF2FE3CC4F2010C41F232
S315000005905202BCF80030C0F2000232F8100043F4F8
S315000005A0254222EA0000ACF8000081F3108870476B
S315000005B080B56F460122EFF3108182F3108840F276
S315000005C07442C2F2000232F810308BB94EF2FE3C91
S315000005D041F25203C4F2010CC0F20003BCF800E081
S315000005E033F8103043EA0E0343F42543ACF80030E9
S315000005F032F81030013322F8103081F3108880BDB4
S3150000060080B56F4600F006F8FFF74AFDFEE7D4D442
S3150000061000BE7047F0B503AF2DE9000B4EF608504B
S31500000620CEF200004FF47001C0F8801040F20001D5
S31500000630C0F2000101600020FFF724FDFFF710FE65
S315000006400120FFF71FFD40F6D478C0F20008D8F865
S31500000650006040F20000C2F2000080F30A8896B102
S31500000660D8F804003546041D04E000BF013D04F13E
S315000006700C0408D060790028F8D154E90101091A60
S3150000068000F058FCF2E7D8F80890B9F1000F13D043
S31500000690D8F80C004D4600F1080403E0013D04F1D2
S315000006A0100409D060790028F8D154E902022168C3
S315000006B0121A00F043FCF1E7FFF7BCFDFFF768FEF6
S315000006C00320FFF775FF40F60E510920C4F208011A
S315000006D04FF6FF72013821F8022FFBD10320FFF7F6
S315000006E03BFF0320FFF764FF0420C4F20E00002145
S315000006F0016041608160C1600320FFF72DFF022089
S31500000700FFF7C0FCA6B1D8F804004FF48075041DAD
S3150000071004E000BF013E04F10C0409D06079B5EB9A
S31500000720002FF7D154E90101091A00F003FCF1E7A3
S31500000730B9F1000F16D0D8F80C004FF4807600F10E
S31500000740080404E0B9F1010904F110040AD0607943
S31500000750B6EB002FF6D154E902022168121A00F016
S31500000760EDFBEFE740F29444C2F20004204600F0AD
S31500000770C1FB204600F0D4FB41F2E60041F2E6015F
S31500000780C0F20000C0F20001091A8C10012C06DB31
S31500000790051F00BF55F8040F8047013CFAD1FFF74B
S315000007A09FFE0020BDE8000BBDE8F040FFF726BE27
S315000007B0022888BF7047F0B503AF4DF804BD41F27B
S315000007C0620241F25C01C0F20002C0F2000132F89E
S315000007D0104041F2680240F2284631F81010C0F28B
S315000007E00002C2F2000632F8105030460022FFF72F
S315000007F069FC304621460022FFF764FC3046294654
S3150000080000225DF804BBBDE8F040FFF75BBCD4D422
S31500000810F0B503AF2DE9000B0229044644D00129A7
S3150000082022D0002940F06080062A238000F27381DE
S31500000830DFE812F00700A101F70046018F001D0254
S31500000840330240F22845C2F20005284640F209115B
S315000008500122FFF737FC20884FF47A71FFF7D0FDAD
S31500000860284640F2091137E3062A638000F2C58064
S31500000870DFE812F00700E700880098003D006B01F2
S31500000880910140F22845C2F2000528464FF48071D6
S315000008900122FFF717FC60884FF47A71FFF7B0FD6D
S315000008A028464FF4807171E2062AA38000F2F48094
S315000008B0DFE812F0070021019300D70036009C0103
S315000008C0B20140F22845C2F2000528464FF486716F
S315000008D00122FFF7F7FBA0884FF47A71FFF790FD2E
S315000008E028464FF48671A4E2BDE8000BF0BD40F245
S315000008F02845C2F2000528464FF480710122FFF711
S31500000900E1FB28464FF481710122FFF7DBFB60888B
S315000009104FF47A71FFF774FD28464FF480715EE15B
S3150000092040F22845C2F2000528464FF4867101229E
S31500000930FFF7C8FB284640F206210122FFF7C2FB5B
S31500000940A0884FF47A71FFF75BFD28464FF4867155
S3150000095086E140F22845C2F20005284640F2091118
S315000009600122FFF7AFFB284640F20B110122FFF7E9
S31500000970A9FB20884FF47A71FFF742FD284640F222
S315000009800911AEE140F22845C2F2000528464FF4AF
S3150000099081710122FFF796FB60884FF47A71FFF7A9
S315000009A02FFD1FE1581F80B24FF6FB71884200F2FF
S315000009B09F81981F80B2042800F2CA8141F270011B
S315000009C0C0F2000151F8206041F28401C0F200013A
S315000009D051F82090C0F104088FE140F22845C2F298
S315000009E00005284640F206210122FFF76BFBA0888E
S315000009F04FF47A71FFF704FD35E140F22844C2F264
S31500000A00000420464FF480710022FFF75BFB20466E
S31500000A1040F201110022FFF755FB20464FF4817189
S31500000A208CE040F22845C2F20005284640F20B1140
S31500000A300122FFF747FB20884FF47A71FFF7E0FCAD
S31500000A4052E140F22845C2F20005284640F2011163
S31500000A500122FFF737FB60884FF47A71FFF7D0FC6D
S31500000A6091E1581F80B24FF6FB71884200F29381E4
S31500000A70981F80B2042800F2BE8141F27001C0F2D4
S31500000A80000151F8206041F28401C0F2000151F8E2
S31500000A902090C0F1040883E140F22844C2F2000429
S31500000AA020464FF486710022FFF70CFB204640F2E9
S31500000AB001210022FFF706FB204640F206213DE019
S31500000AC0581F80B24FF6FB71884200F2B781981F1B
S31500000AD080B2042800F2E28141F27001C0F2000106
S31500000AE051F8206041F28401C0F2000151F82090D3
S31500000AF0C0F10408A7E140F22845C2F200052846E5
S31500000B0040F201210122FFF7DDFAA0884FF47A7145
S31500000B10FFF776FC8AE140F22844C2F20004204640
S31500000B2040F209110022FFF7CDFA20464FF48571F5
S31500000B300022FFF7C7FA204640F20B110022BDE85B
S31500000B40000BBDE8F040FFF7BDBA40F22845C2F2FF
S31500000B500005284640F201110122FFF7B3FA2846A4
S31500000B604FF481710122FFF7ADFA60884FF47A7174
S31500000B70FFF746FC30E040F22845C2F20005284661
S31500000B804FF485710122FFF79DFA20884FF47A71A0
S31500000B90FFF736FC9DE140F22845C2F200052846E3
S31500000BA04FF480710122FFF78DFA284640F20111B9
S31500000BB00122FFF787FA28464FF481710122FFF7D9
S31500000BC081FA60884FF47A71FFF71AFC28464FF4D1
S31500000BD080710022FFF776FA284640F201110022C2
S31500000BE0FFF770FA28464FF48171CFE040F22845AE
S31500000BF0C2F20005284640F201210122FFF762FAFF
S31500000C00284640F206210122FFF75CFAA0884FF43D
S31500000C107A71FFF7F5FB20E040F22845C2F20005A5
S31500000C2028464FF486710122FFF74CFA284640F217
S31500000C3001210122FFF746FA284640F20621012249
S31500000C40FFF740FAA0884FF47A71FFF7D9FB2846E0
S31500000C504FF486710022FFF735FA284640F201214B
S31500000C600022FFF72FFA284640F20621E1E040F283
S31500000C702845C2F2000528464FF485710122FFF788
S31500000C8021FA284640F20B110122FFF71BFA2088B1
S31500000C904FF47A71FFF7B4FB20E040F22845C2F228
S31500000CA00005284640F209110122FFF70BFA2846F3
S31500000CB04FF485710122FFF705FA284640F20B1121
S31500000CC00122FFF7FFF920884FF47A71FFF798FBAE
S31500000CD0284640F209110022FFF7F4F928464FF49E
S31500000CE085710022FFF7EEF9284640F20B11F3E07A
S31500000CF04FF005084FF00109042640F22845C2F2DC
S31500000D00000528464FF480710122FFF7DBF93046D3
S31500000D104FF47A71FFF774FB284640F20111012265
S31500000D20FFF7D0F948464FF47A71FFF769FB28467A
S31500000D304FF480710022FFF7C5F9284640F20111F1
S31500000D400022FFF7BFF940464FF47A71FFF758FBD0
S31500000D5040F22845C2F2000528464FF48071012270
S31500000D60FFF7B0F9284640F201110122FFF7AAF970
S31500000D7060884FF47A71FFF743FB28464FF4807181
S31500000D800022FFF79FF9284640F201110022FFF7E3
S31500000D9099F96088A4E04FF005084FF00109042690
S31500000DA040F22845C2F2000528464FF4867101221A
S31500000DB0FFF788F930464FF47A71FFF721FB284692
S31500000DC040F201210122FFF77DF948464FF47A717E
S31500000DD0FFF716FB28464FF486710022FFF772F9DB
S31500000DE0284640F201210022FFF76CF940464FF4F5
S31500000DF07A71FFF705FB40F22845C2F20005284646
S31500000E004FF486710122FFF75DF9284640F2012171
S31500000E100122FFF757F9A0884FF47A71FFF7F0FA2D
S31500000E2028464FF486710022FFF74CF9284640F217
S31500000E3001210022FFF746F9A08851E04FF005088E
S31500000E404FF00109042640F22845C2F20005284663
S31500000E5040F209110122FFF735F930464FF47A7155
S31500000E60FFF7CEFA28464FF485710122FFF72AF9DB
S31500000E7048464FF47A71FFF7C3FA284640F2091143
S31500000E800022FFF71FF928464FF485710022FFF76D
S31500000E9019F940464FF47A71FFF7B2FA40F2284545
S31500000EA0C2F20005284640F209110122FFF70AF9AD
S31500000EB028464FF485710122FFF704F920884FF484
S31500000EC07A71FFF79DFA284640F209110022FFF7D2
S31500000ED0F9F828464FF485710022FFF7F3F82088C9
S31500000EE0C0F10A004FF47A71BDE8000BBDE8F0408E
S31500000EF0FFF786BAD0B502AF05490446054A00F0A9
S31500000F001DF805480549204400F014F8D0BD00BF7F
S31500000F10400000000000000000000000000000008B
S31500000F200249401A02490860704700BF08000000E5
S31500000F30900400200A46002100F00AB8D0B502AF9E
S31500000F4000239A4203D0CC5CC4540133F9E7D0BDE8
S31500000F5000239A4208BF7047C1540133F9E7D4D43D
S31500000F600400000000010000040000000101000070
S31500000F70040000000201000000000100080100005A
S31500000F800400000009010000040000000A0100003E
S31500000F90040000000B010000040000000C0100002A
S31500000FA00400000001020000040000000602000028
S31500000FB000000100000300000B000000600F0000AD
S31500000FC000000000020403040404D4D4000000203E
S31500000FD00000002003000000EC0F000004000000E9
S31500000FE01010000001000000CC0F000000000020DF
S31500000FF000000020000000032004002094040020CC
S315000010000000000394040020940400200000000364
S3150000101000000020000000200000006000010C031A
S31500001020000000200000002000000008000002036D
S315000010300000002000000020400000000000010326
S3150000104094040020940400204000000000000103E6
S315000010500000010002000800100020000901000144
S315000010600C010A01010101020B0102010602D4D49E
S315000010700500000005000000060000000700000053
S31500001080080000000100000002000000020000004D
S31500001090020000000200000000000106362E312E7C
S315000010A030004275696C7420776974682052656EE9
S315000010B06573617320416476616E63656420466C76
S315000010C0657869626C6520536F6674776172652016
S315000010D05061636B6167652076657273696F6E2018
S30B000010E0362E312E300011
S3090100A100FFFFFFFF58
S3090100A200FFFDFFFF59
S70500000601F3
