S01200007577745F73656E736F722E73726563B9
S315000000000004002015070000A105000025070000D8
S31500000010250700002507000025070000250700002A
S31500000020000000000000000000000000250700009E
S315000000302507000000000000250700002507000036
S3150000004080B56F4640F2304040F65831C2F20000AB
S31500000050C0F2000100F036F800F034FC40F224440F
S3150000006040F2204644F24025C2F20004C2F20006E5
S31500000070C0F20F05204600F0D5FC40F2EE204FF40A
S315000000807A7100F047FA204600F0EAFC206829461B
S315000000903060022000F03EFAECE7D4D4022818BF04
S315000000A0704740F2304040F65831C2F20000C0F2CC
S315000000B0000100F007B8D4D480B56F46FFF7C0FF43
S315000000C0002080BD80B56F4645F25422C5F24F022E
S315000000D00260084600F096F8002080BDF0B503AF38
S315000000E02DE9000740F6643A43F2400690460D4675
S315000000F002F0B8590024C0F2000AC4F2080608E06B
S3150000010006F81400C820012100F004FA0134032C7B
S3150000011018D03AF81400A842F8D116F91400B9F12B
S31500000120807F07D10028F1D416F8140060F07F0014
S31500000130E6E700BFB0F1FF3FE8DC16F8140000F078
S315000001407F00DDE70120EFF3108280F3108840F294
S315000001507840C2F20000016839B940F60351C4F292
S31500000160080100230B7040230B70036840F6000162
S315000001700133036082F310885FEAC832C4F20801D3
S315000001804FEA152201D4EBB20CE001EB8216EBB27A
S3150000019056F8235025F4803546F8235028F4803548
S315000001A046F8235001EB821141F82380EFF31081CA
S315000001B0012282F31088026812B10268013A0260D5
S315000001C0006838B940F60350C4F2080000220270F5
S315000001D08022027081F310880020BDE80007F0BD80
S315000001E06FF03F0000EA9100C9B200EB810040F6D3
S315000001F00001C4F208014058C0F34001002011700C
S315000002007047D4D4F0B503AF2DE9000B044600883F
S31500000210D0B340F6643843F240090025C0F2000826
S31500000220C4F2080904E000BF2088013585422BD2BC
S31500000230002608E009F81600C820012100F06AF936
S315000002400136032EF0D0606838F8162000EBC501A1
S3150000025089889142F4D150F8350000F0B85119F967
S315000002601600B1F1807F07D10028E9D419F81600ED
S3150000027060F07F00DEE700BFB0F1FF3FE0DC19F879
S31500000280160000F07F00D5E740F2784CEFF31081BE
S31500000290012080F31088C2F2000CDCF800203AB985
S315000002A040F60352C4F20802002313704023137071
S315000002B0DCF800200132CCF8002081F31088218878
S315000002C029B340F6000E0021C4F2080E08E000BF74
S315000002D00EEB861040F8253020880131814216D277
S315000002E0636803EBC106B58853F831302E0AD8038C
S315000002F0EDB2EDD50EEB861050F8252022F48032B3
S3150000030040F8252023F4803240F82520E0E7EFF37B
S315000003101081012080F31088DCF8000020B1DCF8A1
S3150000032000000138CCF80000DCF8000038B940F6CF
S315000003300350C4F20800002202708022027081F38A
S315000003401088BDE8000BF0BD4EF22000C4F201009B
S31500000350817940F200420068C2F2000252F8211090
S31500000360C0F3026021FA00F040F28841C2F20001B7
S3150000037008607047F0B503AF2DE9000B4EF28044DC
S31500000380C4F201044CF204154AF20350C4F201050A
S3150000039024F8820C0120288028880028FCD147F206
S315000003A000010120C4F2000125F8040C88600860F1
S315000003B040F2004842F6005041F20021C2F2000825
S315000003C0C0F23110C0F27A014EF220064FF400421C
S315000003D04CF2002388E8070008F10C01C4F201067C
S315000003E0C0F6EB330DC1B079316858F82000C1F37F
S315000003F0026140F28849C840C2F20009C9F800000B
S31500000400002004F86D0C092086F88200207810B9C7
S31500000410607880073FD0207848B901202070C82036
S31500000420012100F077F800BF20780128FCD10020D8
S31500000430607020700020B074307F0007FCD54FF448
S31500000440985030810020B072307F8006FCD50320A2
S31500000450287641F22120C2F2000030600520B071FA
S31500000460B079316858F82000C1F30261C840C9F874
S31500000470000042F20C00C4F20000F12101700121DB
S3150000048000F8041CF02101704FF4254024F8820C7A
S31500000490BDE8000BF0BD4FF47A7000F001F8C9E733
S315000004A07047D4D4B0B502AF43F22404C4F20804B2
S315000004B00025C8200121257100F02CF8257000BF09
S315000004C020780028FCD1207840F00200207000BF80
S315000004D020788007FCD4002004F8020C14F8020CE3
S315000004E00028FBD10020012104F11C0212F8103073
S315000004F003F07F0302F8103012F91030002BFBD402
S31500000500C9074FF001004FF0000108BFB0BDEDE78D
S315000005107047D4D440F28842C2F20002126841F217
S315000005200023C0F27A039A4201FB00F00FD340F693
S31500000530FF01C0F23D0111444DF68362C4F21B3245
S31500000540A1FB0212110DA0FB0101D9B11FE04CF66F
S31500000550002348F63811C3F69A33C0F24101B3FBC3
S31500000560F2F2884206D24FF47A714843B0FBF2F0B9
S31500000570800807E09200B0FBF2F0884207D24FF401
S315000005807A714843002808BF704700F005B84FF05D
S31500000590FF3000F001B8D4D401380028FCD17047F0
S315000005A0F0B503AF2DE9000B46F22018C4F200089F
S315000005B0B8F80000B8F8201040F2384501EA000902
S315000005C01FFA89F60024C2F2000502E00134102C5D
S315000005D00AD026FA04F0C007F8D055F824100029EE
S315000005E0F4D0E0B28847F1E7A8F81090BDE8000B18
S315000005F0F0BDD4D4F0B503AF4DF804BD84B048F2D5
S3150000060048040320C4F2000400F05CF840F6F03120
S31500000610C0F200016FF0FF000E8820604FF0FF303F
S3150000062003900290002E01901CBF6FF00100019014
S315000006304EF28032002001A9CEF2000251F820309D
S3150000064004EB8005AB6242F8203001300328F5D177
S31500000650032000F00BF8002E1EBF46F20030C4F255
S315000006600000066004B05DF804BBF0BD0122EFF3A4
S31500000670108182F3108840F27C42C2F2000232F806
S31500000680103023B132F81030013B22F8103032F826
S31500000690102012B181F3108870474EF2FE3CC4F26E
S315000006A0010C40F6F232BCF80030C0F2000232F81B
S315000006B0100043F4254222EA0000ACF8000081F362
S315000006C01088704780B56F460122EFF3108182F3E0
S315000006D0108840F27C42C2F2000232F810308BB928
S315000006E04EF2FE3C40F6F233C4F2010CC0F20003B7
S315000006F0BCF800E033F8103043EA0E0343F4254318
S31500000700ACF8003032F81030013322F8103081F3A3
S31500000710108880BD80B56F4600F006F8FFF7CCFC68
S31500000720FEE7D4D400BE7047F0B503AF2DE9000B49
S315000007304EF60850CEF200004FF47001C0F880105B
S3150000074040F20001C0F2000101600020FFF7A6FCA4
S31500000750FFF710FE0120FFF7A1FC40F67438C0F247
S315000007600008D8F8006040F20000C2F2000080F3F2
S315000007700A8896B1D8F804003546041D04E000BF87
S31500000780013D04F10C0408D060790028F8D154E941
S315000007900101091A00F0BEF9F2E7D8F80890B9F19C
S315000007A0000F13D0D8F80C004D4600F1080403E002
S315000007B0013D04F1100409D060790028F8D154E90C
S315000007C002022168121A00F0A9F9F1E7FFF7BCFD51
S315000007D0FFF768FE0320FFF775FF40F60E5109206C
S315000007E0C4F208014FF6FF72013821F8022FFBD13F
S315000007F00320FFF73BFF0320FFF764FF0420C4F24A
S315000008000E000021016041608160C1600320FFF796
S315000008102DFF0220FFF742FCA6B1D8F804004FF4E2
S315000008208075041D04E000BF013E04F10C0409D0EC
S315000008306079B5EB002FF7D154E90101091A00F0F0
S3150000084069F9F1E7B9F1000F16D0D8F80C004FF4AA
S31500000850807600F1080404E0B9F1010904F11004FE
S315000008600AD06079B6EB002FF6D154E9020221686E
S31500000870121A00F053F9EFE740F29444C2F2000472
S31500000880204600F027F9204600F03AF940F64A40A3
S3150000089040F64A41C0F20000C0F20001091A8C106D
S315000008A0012C06DB051F00BF55F8040F8047013CED
S315000008B0FAD1FFF79FFE0020BDE8000BBDE8F0402F
S315000008C0FFF726BE40F23040C2F200000D2105229D
S315000008D0FFF704BCF0B503AF4DF8048D40F2304588
S315000008E004460020C2F20005607228460D2104224B
S315000008F0FFF7F4FB4FF4F07001214FF00108FFF70A
S3150000090009FE28460D211022FFF7E8FB3C200121B5
S31500000910FFF700FE04F1080628460D213246FFF7D0
S315000009205FFC207A012100284FF0F00008BF84F810
S315000009300980FFF7EFFD40F23040C2F200000D21C2
S3150000094032465DF8048BBDE8F040FFF749BCD4D4CD
S31500000950D0B502AF044640F23040C2F200000D218D
S315000009600422FFF7BBFB012C10D105200121FFF764
S31500000970D1FD40F23040C2F200000D211022FFF7F7
S31500000980ADFB3C200121FFF7C5FD0BE03C2001211A
S31500000990FFF7C0FD40F23040C2F200000D211022E8
S315000009A0FFF79CFB01200121BDE8D040FFF7B2BD57
S315000009B0F0B503AF2DE9000B82B040F230490026B6
S315000009C0C2F20009A7F11908002500BF48460D210B
S315000009D00422C6F34606FFF781FB02200121FFF73A
S315000009E099FD48460D211022FFF778FB0F200121C3
S315000009F0FFF790FD48460D214246FFF7F1FB17F839
S31500000A00194C2D200121FFF785FD012C08BF66F04A
S31500000A107F06072D05F10105D8D3F0B202B0BDE877
S31500000A20000BF0BDB0B502AFFFF754FFCC20002499
S31500000A30C5B200F00100FFF78BFF6808072C04F130
S31500000A400104F5D344200024C5B200F00100FFF7ED
S31500000A507FFF6808072C04F10104F5D3B0BDD4D498
S31500000A60F0B503AF4DF804BD0446FFF733FFCC20C5
S31500000A70002500BFC6B200F00100FFF769FF70084D
S31500000A80072D05F10105F5D3BE200025C6B200F0FD
S31500000A900100FFF75DFF7008072D05F10105F5D38D
S31500000AA0FFF786FFA071FFF783FFA179E07141EAA6
S31500000AB0002000EE100A9FED061AB8EE400A20EE5E
S31500000AC0010AA08084ED000A5DF804BBF0BD00BFFA
S31500000AD00000803DD0B502AF05490446054A00F046
S31500000AE01DF805480549204400F014F8D0BD00BFA4
S31500000AF040000000000000000000000000000000B0
S31500000B000249401A02490860704700BF0800000009
S31500000B10900400200A46002100F00AB8D0B502AFC2
S31500000B2000239A4203D0CC5CC4540133F9E7D0BD0C
S31500000B3000239A4208BF7047C1540133F9E7D4D461
S31500000B40050000000D000000000001000801000083
S31500000B50000001000003000003000000400B00003D
S31500000B6000000000020403040404D4D400000020A2
S31500000B7000000020030000008C0B000004000000B1
S31500000B80B00B0000010000006C0B0000000000200C
S31500000B900000002000000003200400209404002030
S31500000BA000000003940400209404002000000003C9
S31500000BB000000020000000200000006000010C037F
S31500000BC000000020000000200000000800000203D2
S31500000BD0000000200000002040000000000001038B
S31500000BE0940400209404002040000000000001034B
S31500000BF000000100020008001000200000000106AD
S31500000C00362E312E30004275696C7420776974680F
S31500000C102052656E6573617320416476616E63650B
S31500000C206420466C657869626C6520536F667477DC
S31500000C30617265205061636B6167652076657273CA
S30F00000C40696F6E20362E312E30004B
S3090100A100FFFFFFFF58
S3090100A200FFFDFFFF59
S70500000715DE
