:020000040000FA
:1000000000040020AD040000D9010000D30100006D
:10001000D3010000D3010000D3010000D301000090
:10002000000000000000000000000000B904000013
:10003000D3010000000000001D020000D1040000F8
:10004000C70D0000D10F0000F10E0000650A00008E
:10005000CD1900009F1A0000551A00006319000016
:1000600043070000F91B0000271B0000CD0900001A
:04007000CD090000B6
:020000040000FA
:1000740040EA01039B0703D009E008C9121F08C026
:10008400042AFAD203E011F8013B00F8013B521EA6
:10009400F9D27047D2B201E000F8012B491EFBD21D
:1000A40070470022F6E710B513460A46044619467F
:1000B400FFF7F0FF204610BD80B584B040F2A06089
:1000C400C2F20000016843F244030131016040F6CA
:1000D40008610120C2F20001CDE9000140F23510AF
:1000E40040F21C4CC0F200000CA1C0F200034FF41B
:1000F4008072C2F2000CCDF808C002F00FFC40F28E
:100104001841C2F20001086008B104B080BD0020AB
:10011400002104B0BDE8804001F01FBC4144435FAE
:100124005468726561640000012001F00FFFFBE771
:1001340010B5044601F0E0FB2046BDE81040FFF78F
:10014400F3BF000080B584B040F2A060C2F20000AA
:10015400016843F248030131016041F208210120A2
:10016400C2F20001CDE9000140F2C11040F2804C1E
:10017400C0F200000CA1C0F200034FF48072C2F27E
:10018400000CCDF808C002F0C9FB40F27C41C2F279
:100194000001086008B104B080BD0020002104B053
:1001A400BDE8804001F0D9BB436F6D5F5468726550
:1001B40061640000012001F0C9FEFBE710B50446AC
:1001C40001F09AFB2046BDE81040FFF7F3BF00BEE4
:1001D400704700002DE9F04146F22018C4F20008EF
:1001E400B8F80000B8F8201040F2106501EA0006E3
:1001F400B7B20024C2F2000527FA04F0C00704D005
:1002040055F8241009B1204688470134102CF3D145
:10021400A8F81060BDE8F0810F4B1968EFF309826C
:100224001EF0100F08BF22ED108A22E9F04FEFF301
:100234000B8342F8043D0A604FF0100080F31188EC
:10024400BFF34F8FBFF36F8F01F076FF4FF00000C5
:1002540080F3118801F006BBB807002080B584B094
:1002640040F2A060C2F20000016843F24C03013185
:10027400016041F208610120C2F20001CDE90001F0
:1002840040F2D92040F2E44CC0F200000CA1C0F2CC
:1002940000034FF48072C2F2000CCDF808C002F0E3
:1002A4003DFB40F2E041C2F20001086008B104B035
:1002B40080BD0020002104B0BDE8804001F04DBBAA
:1002C40050756D705F44726976657200012001F0AB
:1002D4003DFEFBE710B5044601F00EFB2046BDE8E9
:1002E4001040FFF7F3BF0000B0B543F22404C4F29A
:1002F40008040025C8200121257100F079F8257033
:1003040020780028FCD1207840F00200207000BF43
:1003140020788007FCD4002004F8020C14F8020CA6
:100324000028FBD10020012104F11C0212F8103036
:1003340003F07F0302F8103012F91030002BFBD4C5
:10034400C9074FF001004FF0000108BFB0BDEDE751
:1003540080B50122EFF3108182F3108840F2B0627D
:10036400C2F2000232F810308BB94EF2FE3C43F276
:100374008013C4F2010CC0F20003BCF800E033F8AF
:10038400103043EA0E0343F42543ACF8003032F84E
:100394001030013322F8103081F3108880BD01221F
:1003A400EFF3108182F3108840F2B062C2F20002CF
:1003B40032F8103023B132F81030013B22F81030FB
:1003C40032F810208AB94EF2FE3CC4F2010C43F21A
:1003D4008012BCF80030C0F2000232F8100043F47E
:1003E400254222EA0000ACF8000081F3108870472F
:1003F40040F24452C2F20002126801FB00F041F2E2
:100404000021C0F27A018A420FD340F6FF01C0F204
:100414003D0111444DF68362C4F21B32A1FB02126A
:10042400110DA0FB0101E9B11FE04CF60021C3F658
:100434009A3148F63813C0F24103B1FBF2F1984205
:1004440007D24FF47A7200FB02F0B0FBF1F080089F
:1004540008E08900B0FBF1F0984206D24FF47A71BB
:1004640000FB01F028B100F068BA4FF0FF3000F053
:1004740064BA70477047022818BF704740F2A460FE
:1004840043F28801C2F20000C0F20001AFF3008021
:1004940080B545F25422C5F24F020260084601F0CD
:1004A40043F9002080BD000000F03AF800F018FE87
:1004B400FEE700001EF0040F0CBFEFF30880EFF31B
:1004C4000980014908470000291E000010B51020CA
:1004D400EFF3118480F3118802F066FB30B14EF61D
:1004E4000450CEF200004FF08051016084F3118873
:1004F40010BD4EF22000C4F201008179006840F280
:100504000042C2F20002C0F3026052F8211021FA44
:1005140000F040F24451C2F200010860704700004C
:1005240010B54EF60850CEF200004FF47001C0F83A
:10053400801040F20001C0F200010160002000249C
:10054400FFF799FF00F0FEF80120FFF794FF40F257
:100554000000C2F2000080F30A88002000F032F8A4
:10056400FFF7C7FFFFF7C0FE0320FFF7F1FE40F6D9
:100574001050C4F208004FF6FF7100BF20F81410A9
:100584000134092CFAD10320FFF709FF0320FFF7F8
:10059400DFFE0420C4F20E0000210160416081608E
:1005A400C1600320FFF7FBFE0220FFF764FF012078
:1005B40000F008F800F07CF90020BDE8104000F0DD
:1005C40075B90000F0B581B043F23415C0F20005EE
:1005D4002E68044676B16868071D00BF7879A0428A
:1005E40004D157E90101091AFFF75BFD013E07F148
:1005F4000C07F3D1AE6886B1E86800F1080500BFC6
:100604006879A04205D155E902022968121AFFF758
:100614002FFD013E05F11005F2D101B0F0BD00003F
:1006240080B584B040F2A060C2F20000016843F2D9
:1006340050030131016041F608210120C2F200019A
:10064400CDE9000140F29D6040F24C5CC0F2000034
:100654000CA1C0F200034FF48072C2F2000CCDF87A
:1006640008C002F05BF940F24851C2F20001086090
:1006740008B104B080BD0020002104B0BDE8804072
:1006840001F06BB95448535F4D6561737572650031
:10069400012001F05BFCFBE710B5044601F02CF9E6
:1006A4002046BDE81040FFF7F3BF000080B584B0DA
:1006B40040F2A060C2F20000016843F25403013129
:1006C400016041F608610120C2F20001CDE9000198
:1006D40040F2297040F2B05CC0F200000CA1C0F2FC
:1006E40000034FF48072C2F2000CCDF808C002F08F
:1006F40015F940F2AC51C2F20001086008B104B02F
:1007040080BD0020002104B0BDE8804001F025B97F
:100714005751535F4D65617375726500012001F097
:1007240015FCFBE710B5044601F0E6F82046BDE8E9
:100734001040FFF7F3BF000000BE00BFFEE700203B
:1007440000F099BF2DE9F0414EF2FE34C4F20104E9
:100754004AF203504CF200162080C4F20106012034
:10076400B08000BFB0880028FCD147F2000101200E
:10077400C4F2000130808860086040F2004742F60D
:10078400005041F20022C2F20007C0F231104FF4CF
:100794000041C0F27A02C7E90002C7E902104CF234
:1007A4000020C0F6EB304EF220053961C4F2010599
:1007B4007861A879296857F82000C1F3026140F2F2
:1007C4004458C840C2F20008C8F800000020607510
:1007D400092085F8820094F8820018B994F88300FF
:1007E40080075ED094F8820050B9012084F882001A
:1007F400C8200121FFF7FCFD94F882000128FBD1F9
:10080400002084F8830084F882000020A87400BFCC
:10081400287F0007FCD54FF4985028810020A87247
:10082400287F8006FCD50320307741F22120C2F2D4
:10083400000028600520A871A879296857F82000CD
:10084400C1F30261C840C8F8000042F20800C4F2D3
:100854000000F121017101210170F021017195F86D
:10086400590040F0400085F8590000BF95F959003F
:10087400B0F1FF3FFADC012085F85100C52085F86E
:10088400590095F8590000F0BF0085F8590000BFE1
:1008940095F959000028FBD44FF425402080BDE889
:1008A400F0814FF47A70FFF7E5FDAEE77047000082
:1008B40070B584B048F248060320C4F20006FFF77E
:1008C40047FD6FF0FF0043F24C1430604FF0FF30EF
:1008D4000021C0F200040122CDE9020054F82130C5
:1008E40002FA01F5002B18BFA84301310D29F5D1F7
:1008F4004EF280320190002001A9CEF2000200BF26
:1009040051F8203006EB8005AB6242F8203001300C
:100914000328F5D10320FFF742FD46F20031002001
:10092400C4F2000154F820200AB141F8202001301B
:100934000D2804BF04B070BDF4E701380028FCD1D1
:10094400704700002DE9F04104460088A0B343F24B
:10095400400700250FF26408C4F20807002600BF10
:10096400606858F8262000EBC500416891421CD10C
:10097400006800F0B85117F91600B1F1807F07D173
:10098400002812D417F8160060F07F0007E000BFBB
:10099400B0F1FF3F09DC17F8160000F07F0007F8FC
:1009A4001600C8200121FFF723FD0136032ED7D1FD
:1009B400208801358542D1D3BDE8F08102040000CE
:1009C400030400000404000010B582B0EFF30380B8
:1009D40040F2FC7101EA800046F2C021C4F2000139
:1009E400425822F48032425040F2C062C2F2000205
:1009F4004158104450F8404C6069E168019001A8E6
:100A04008847A068C16809B10121017702B010BD0F
:100A14007047FFF7FDBF10B5044651B120690021AE
:100A2400C0F8D8112069C0F8E8112168204600F008
:100A3400E3F894F82600002184F82800A0692269CC
:100A4400C4E907101020C0F2110084F82C1084F8B7
:100A54002A10C2F8D80120690321C0F8E81110BD9A
:100A640010B5EFF3038040F2C0616FF35F20C2F270
:100A7400000101EB80004FF6EC7350F8404CCFF6C8
:100A8400EE732169D1F8D001D1F8D0211A40C1F810
:100A9400D021C10600F4881201D4C2B909E0216949
:100AA4004B6AC3F380031A43012A10D14A6A5207DE
:100AB40031D4810715D494F82C10002964D010F097
:100AC400010161D094F82B00E8B3012148E0012032
:100AD40084F82B0020460121FFF79DFF20460121C9
:100AE4003FE094F82B0070B394F82600002184F8BA
:100AF4002800A0692269C4E907101020C0F211007F
:100B040084F82C1084F82A10C2F8D801012103209B
:100B14004FF4F47222E0012084F82B000420C1F881
:100B2400400120682169406B30220068012808BF19
:100B34003122C1F890202069D0F8D81141F48011F5
:100B4400C0F8D8110FE094F829000221002808BF4A
:100B540003211020C0F211004FF4EC722369985065
:100B6400204600F02DF8EFF3038046F2C0216FF326
:100B74005F20C4F2000151F8202022F4803241F8B1
:100B8400202051F8200010BD94F8291071B194F878
:100B9400271001290AD194F8301039B120690321B2
:100BA400C0F8E8112069C0F8E411DCE7C007DAD026
:100BB4002068406B007D0028D5D020460421D0E772
:100BC40010B582B00446806B00281ABFD0E9002318
:100BD400CDE900236846E26B636BC0E900219847C6
:100BE400A06B18B1DDE90012C0E90012002084F8FE
:100BF4002B0002B010BD00002DE9F043026901236F
:100C0400136102690027576102691362036900BF17
:100C14001A6AD207FCD1026844F2402C526BC0F22B
:100C24000F0C177A4FF4804507F007071F67B2F8D7
:100C3400093007695BBA7B67036806695B6B4EF230
:100C4400001ED3E90037CEF2000E012B0EF54074DE
:100C54004FEA071708BF013747F02003C6F8903062
:100C6400036840F2C0685F6B5B683F7D63454FEA91
:100C7400073608BF45EA0736036906F203171F66FD
:100C8400137BD77ADB0343EA07230769C2F2000820
:100C9400C7F8883010270369C0F2110707F580767A
:100CA400C3F8D46103694FF00109C3F8D87103692B
:100CB4000327C3F8E4710369C3F8E8710B7C0D6A78
:100CC4001B01635546F2003348F82500C4F20003C3
:100CD40053F8256005F01F0726F4803643F8256095
:100CE40053F8256009FA07F60EF5C0776D09BFF3CE
:100CF4005F8F47F825604EF825600D7C8E692D01C5
:100D0400A55548F8260053F8265025F4803543F8B5
:100D1400265053F8265006F01F0509FA05F5760902
:100D2400BFF35F8F47F826504EF826500D7CCE69EE
:100D34002D01A55548F8260053F8265025F4803592
:100D440043F8265053F8265006F01F0509FA05F516
:100D54007609BFF35F8F47F826504EF826500D7C76
:100D640049692D01655448F8210053F8214024F4C1
:100D7400803443F8214053F8213001F01F0309FA6D
:100D840003F34909BFF35F8F47F821304EF8213050
:100D94004FF0004301694B610168126949684FF4DF
:100DA4009673614508BF78234CF60021C3F69A3147
:100DB400B1FBF2F10069B3FBF1F10631C167BDE8A3
:100DC400F08310B582B0EFF3038046F2C0216FF3D5
:100DD4005F20C4F2000151F8202022F4803241F84F
:100DE400202051F82000EFF3038040F2C0616FF33C
:100DF4005F20C2F2000101EB800050F8404C94F8EF
:100E04002D00B0B1E06900286ED02168496B097DDE
:100E140021B120460521FFF7D3FEE06901282CD03B
:100E2400022825D003284BD120690221C0F8A41040
:100E340046E0A069022803D820690221C0F8A41062
:100E4400E069012803D120690621C0F8A0102068B8
:100E5400406B007D18B120460521FFF7B1FE2069E3
:100E6400D0F8580100900098012084F82D003BE050
:100E740020690621C0F8A01022E094F82A10206905
:100E8400A1B10221C0F8E41120690422C0F8A02015
:100E94002069C0F840112069D0F8D81121F48011DC
:100EA400C0F8D811012084F82C0009E0D0F8D01142
:100EB40021F00201C0F8D01120690421C0F84011CA
:100EC400D4E90401226AD0F85801019001988854A9
:100ED400D4E90710013900F10100C4E9071003D176
:100EE40020690021C0F8A41002B010BD10B5EFF3C2
:100EF400038040F2C0616FF35F20C2F2000101EB96
:100F0400800050F8404C2068406B007D18B12046AA
:100F14000521FFF755FE94F8290030B194F8270015
:100F2400012802D194F8300020B3E06910BB94F892
:100F34002A102069A1B10321C0F8E8112069022117
:100F4400C0F8E4112069C0F840112069D0F8D41128
:100F540021F48011C0F8D411012084F82C0009E098
:100F6400D0F8D01121F00201C0F8D0112069042179
:100F7400C0F840112069D0F8D01121F48071C0F874
:100F8400D0112069D0F8D81121F48071C0F8D8119B
:100F940020696FF0BE0100BFD0F8D821D20503D577
:100FA400002901F10101F7D1EFF3038046F2C021DA
:100FB4006FF35F20C4F2000151F8202022F4803244
:100FC40041F8202051F8200010BD0000B0B5EFF327
:100FD40003806FF03F016FF35F2001EB800046F266
:100FE4000035C4F20005415921F480314151405982
:100FF400EFF3038040F2C0616FF35F20C2F200019F
:1010040001EB800050F8404C94F82700C0B194F8EC
:101014002610032906D194F82810022902D194F845
:10102400301081B194F8241022690138C2F85811A3
:1010340094F8281084F82700013184F82810B0BDF2
:1010440094F8290000B1B0BD2068406B007D40B128
:1010540094F82B0028B9206A18B120460521FFF71F
:10106400AFFDE16961B1D4E90402236A0139D25CBC
:10107400C0F8582103F10102C4E90712E3D100E0EA
:1010840020690221C0F8E81120696FF0BE0100BF99
:10109400D0F8E821D20703D0002901F10101F7D1EA
:1010A40020680122C06955F8201021F4803145F8E8
:1010B400201055F8201000F01F0102FA01F14EF241
:1010C40080224009CEF20002BFF35F8F42F8201065
:1010D4002069D0F8D81141F48071C0F8D811B0BD9E
:1010E40080B540F2A060C2F200000021016040F22D
:1010F4005060C2F2000040F2586201704FF48070F8
:10110400C2F20002012101F083F840F25461C2F2FC
:101114000001086018B90020002100F01EFCFFF750
:101124007FFAFFF7C3FAFFF799F8FEF7C5FFFFF759
:1011340009F800F09DFF002080BD2DE9F04381B047
:101144000E4640F6F851C2F200010D6840F2C0713B
:10115400C2F20001D1F8008040F2C47140F2B874C8
:10116400C2F20001C2F20004D1F8009021680746DF
:10117400081D00F0A8FD781C16D1AEB140F6D05081
:10118400C2F20000D0E90012236801319A6093682A
:101194002768FB60276804375F6023680433936023
:1011A40022680160506117E02068ED1945602068ED
:1011B40000F1040105D3484601B0BDE8F04300F056
:1011C400C7BD404600F0C4FD40F65C50C2F20000CA
:1011D40001688D4238BF056001B0BDE8F0830000AE
:1011E40070B582B000F0D1FD40F6FC56C2F20006A4
:1011F400306850BB40F60854C2F20004204600F0A8
:1012040098FD40F61C55C2F20005284600F091FDF9
:1012140040F2BC70C2F20000046040F2C870C2F236
:10122400000040F2F46240F26C73056000250A206D
:10123400C2F200020C21C2F20003009501F00AF888
:10124400306010B103A100F02FFE02B0BDE8704081
:1012540000F0C2BD546D72510000000070B540F63C
:101264003804C2F200042068D0B140F6E45540F6D8
:101274003406C2F20005C2F2000600BF00F085FD8C
:10128400E868C068043000F01EFD30680138306042
:1012940020680138206000F09FFD20680028EDD10F
:1012A40070BD70B5866B036C044643B31546CAB172
:1012B400E0681A46FEF7DCFEE168206C2268091A31
:1012C4009142E16003D2A16840420844E060A81E54
:1012D400B0FA80F040093146002E18BF01210840C1
:1012E400361A0CE060681A46FEF7C2FED4E9010122
:1012F400226C10448842606001D320686060701CD6
:10130400A06370BD40F2CC744EF60455C2F20004E2
:10131400CEF200054FF08056FFF7A0FF20680228A8
:1013240004D32E60BFF34F8FBFF36F8F00F0F5FC33
:10133400F2E78C46014641F804CF9445006108D990
:1013440040F2BC709A42C2F200000AD29C450ED20E
:1013540007E08069D21A824209D240F2C870C2F210
:10136400000080B5006800F0F3FC002080BD01207F
:10137400704770B540F2BC72C2F2000212680646B1
:10138400D2680D46D468201D00F09DFC94F824001A
:10139400410704D400F0FA0084F8240004E0204655
:1013A40031462A4600F006F8216A2046BDE870401E
:1013B4000847000070B50546806914460E4601448E
:1013C400284600BF3346FFF7B4FF48B1A869296A2D
:1013D400064428468847A869224681192846F1E729
:1013E40070BD0000F0B581B0044601F0D7FB40F2B7
:1013F400B476C2F200063168054688420ED240F245
:10140400BC77C2F2000700BF3868016841B1C06808
:101414004FF0FF310068FFF7ACFFF5E7002007E06D
:1014240040F2C871C2F200010A68086001203A6003
:1014340020602846356001B0F0BD000000BE00BF4A
:10144400FEE7000084B040F2BC7840F6FC55C2F2DE
:10145400000801ACC2F200054FF00009EB4600BFE2
:10146400D8F80000D0F800A0BAF1000F1ABFC06885
:101474000668002600F058FE2046FFF7B3FF0199E6
:1014840011B101F0D3FC2DE00746BAF1000F08D0EA
:10149400BE4206D801F0CAFC30463946FFF769FF60
:1014A40020E0BAF1000F01D0002208E040F2C87039
:1014B400C2F2000000680068B0FA80F042092868AF
:1014C400F11B00F020FD01F0B1FC58B94EF60451B7
:1014D4004FF08050CEF200010860BFF34F8FBFF38E
:1014E4006F8F00BF2868CDE90299CDF8049000BF42
:1014F4002146002201F03CF80028B1D001980028D0
:101504004CD4039E706910B1301D00F0DCFB5846CA
:10151400FFF768FF0199013908293FD80746DFE83A
:1015240001F005051C231C05051C230096F8240066
:10153400029BB16940F0010086F82400194430464A
:101544003A46FFF7F6FE48B396F8240041071BD449
:1015540000F0FA0086F824001DE096F8240000F05C
:10156400FE0086F8240019E096F8240040F00101FA
:10157400029886F82410B06190B1C11930463A46F9
:101584003B46FFF7D6FE09E00298B1693A460144AA
:101594003046FFF70FFF316A304688472868A7E7CF
:1015A40043F2486103A0C0F200014FF48262FFF7E6
:1015B400C3F800BF2820707854696D65722D3E7899
:1015C40054696D6572506572696F64496E546963DC
:1015D4006B73203E2030202900000000F0B581B05C
:1015E400044600F0D2FB94F94560012E0EDB04F1B1
:1015F400240500BF286848B1284601F09EFB08B1C5
:1016040000F0DCFC70B2013E0128F3DCFF2684F814
:10161400456000F0E1FB00F0B8FB94F94470012F41
:101624000EDB04F1100500BF286848B1284601F01C
:1016340084FB08B100F0C2FC78B2013F0128F3DC5E
:1016440084F8446001B0BDE8F04000F0C5BB283127
:1016540040F8481D41F24141C0F200014FF0807C46
:1016640022F00102C1636FF002010264C0F844C0B9
:10167400C0E9091370472DE9F04190B0EFF30381FD
:1016840040F2C0626FF35F21C2F2000202EB8101FB
:1016940046F2C02251F8404CEFF303816FF35F210F
:1016A400C4F2000252F8213023F4803342F821308E
:1016B40052F8211001906068A1690088226AADF88F
:1016C400000000200390029251B3E069C0B100F120
:1016D400140890E80E5098E8600108AF87E80E50AF
:1016E400CDE90D56059D9DE8CE00456180E8CE000C
:1016F400DDE90621CDF83C80C0E90621A16900E0BE
:1017040068468847E06958B1DDE90C65DDE90E4CAF
:1017140008AF8ECFC0E9046580E88E00C0E9064CAE
:1017240010B0BDE8F081000070B50446FFF70AF977
:1017340040F2BC6CEFF31080012181F31088C2F2F7
:10174400000CDCF8001039B940F60351C4F208016A
:1017540000220A7040220A70DCF800100131CCF833
:10176400001080F31088208818B340F6000E002182
:10177400C4F2080E606800EBC10250F831305268C0
:10178400DD034FEA1220D2B20BD50EEB801555F8CB
:10179400226026F4803645F8226023F4803645F82A
:1017A40022600EEB8010013140F822302088814203
:1017B400E0D30120EFF3108180F31088DCF80000FF
:1017C40020B1DCF800000138CCF80000DCF800009F
:1017D40038B940F60350C4F2080000220270802297
:1017E400027081F3108870BDB0B584B00446806A7D
:1017F40040B1D0E900CED0E90253CDE900CECDE925
:10180400025300E06846E369D4F824C01B78E56A13
:10181400C0E90032C0E90215E047A06A10B19DE8B2
:101824002E002EC004B0B0BD10B584B00446806A4A
:1018340030B1D0E900C283680393CDE901C200E06E
:1018440001A86268D4F824C01278E36AC0E90021D0
:101854008360E047A06A10B101AB0ECB0EC004B0A8
:1018640010BD0000074801680A6802CA81F30B88AA
:10187400B2E8F04F1EF0100F08BFB2EC108A82F3EA
:1018840009887047B807002088B14EF20C00C4F2F2
:101894000100B0F90010B1F1FF3F09DDBFF34F8F34
:1018A40030BFBFF36F8F62B6BFF36F8F72B67047EE
:1018B40080B54EF2FE32C4F20102B2F800E04AF200
:1018C400025CCFF6FF7C0023A2F800C003804EF434
:1018D40025431380BFF34F8F30BFBFF36F8F62B6C2
:1018E400BFF36F8F72B61388A2F800C0018043F46F
:1018F4002540108080BD0000B0B540F25464C2F2AF
:10190400000420684FF0FF3100F000FF012803D0ED
:101914002068002100F021F840F25060C2F200007B
:10192400017801B1B0BD01210170FFF772F840F2F6
:10193400A065C2F2000500BF286801382860F1D014
:10194400206800210022002300F03EFD0128F3D08E
:101954002068002100F001F8EEE700BE7047B0B542
:10196400EFF303806FF35F20A0F1100540F2C06035
:10197400C2F2000050F825008178036A01F00301E7
:10198400022912BF5979198A6FF35F211A79D40693
:1019940002F0380203D51C7FE40708BF40321C79EB
:1019A40004F0C7041C71436A0BB1FFF71DFF46F234
:1019B4000030C4F2000050F8251021F4803140F8C2
:1019C400251050F82500B0BD10B582B0EFF30380A8
:1019D40040F2FC7101EA800046F2C021C4F2000129
:1019E400425822F48032425040F2C062C2F20002F5
:1019F4004158104450F8404CA07800F00302206A8B
:101A0400022A12BF4179018A6FF35F21A069019113
:101A140098B1606901A9FEF72BFBA0786169A269FE
:101A240000F003000144101A6161A0610ED1606AE4
:101A340060B120460021012203E0606A30B12046F3
:101A4400042202B0BDE81040FFF7CEBE02B010BDC4
:101A540010B5EFF303806FF35F20A0F1100440F2A0
:101A6400C060C2F2000050F82400016A8A7802F0D3
:101A74007B028A70416A19B100210222FFF7B4FE89
:101A840046F20030C4F2000050F8241021F48031F2
:101A940040F8241050F8240010BDEFF3038040F206
:101AA400FC7101EA800046F2C021C4F200014258F0
:101AB40022F48032425040F2C062C2F20002415825
:101AC400104450F8400CC1694A6B0169C2B9C1B1F4
:101AD400817801F00302C168022A05D10988026AEB
:101AE40041F47E41D18102E00978026AD1708178A3
:101AF400026901F00303D11AC26801611A44C26089
:101B040071B9016A8A7802F07B0204328A70416AF0
:101B140000294FF00001C1601CBF8022FFF764BEA2
:101B24007047F0B581B0EFF303806FF35F20A0F14D
:101B3400100540F2C060C2F2000050F82540606811
:101B440081684EF200100029CEF200000DD401F09D
:101B54001F024909012300EB810103FA02F2C1F8D3
:101B64008020BFF34F8FBFF36F8FA16846F200361A
:101B74000A78C4F2000602F0BF020A70616889683C
:101B8400002915D456F8212001F01F0322F48032D5
:101B940046F8212056F821200127490907FA03F3C2
:101BA40000EB8107BFF35F8FC7F8803140F8213025
:101BB400A0680021C778C1703A0703D520460521E3
:101BC400FFF732FEF80703D020460421FFF72CFE6E
:101BD40007F01400142803D120460821FFF724FE3F
:101BE40056F8250020F4803046F8250056F82500E4
:101BF40001B0F0BDEFF3038046F200316FF35F20D4
:101C0400C4F20001A0F1100351F8230040F2C062B5
:101C140020F4803041F8230051F82300C2F200027E
:101C240052F823008268D278920704D542689269F8
:101C3400012A18BF704780B54EF2001C03F01F0242
:101C4400CEF2000C5B094FF0010E0CEB83030EFA8D
:101C540002F2C3F88020BFF34F8FBFF36F8F426847
:101C64009368002B0CD403F01F025B090CEB830375
:101C74000EFA02F2C3F88020BFF34F8FBFF36F8FC9
:101C84008268137803F0BF03137042689268002AD5
:101C940014D451F8223023F4803341F8223051F81F
:101CA40022E002F01F030121520999400CEB820348
:101CB400BFF35F8FC3F880114CF822100121BDE8F7
:101CC4008040FFF7B1BDD0E901320169D1F804C009
:101CD4009A608445536008BF4A600B680022026121
:101CE400581E0860704740F64823C2F200030360A0
:101CF40040F64800C2F2000008608020106070477F
:101D040040F6A843C2F20003036040F6A820C2F2E2
:101D14000000086080201060704780B572B600F043
:101D240003FA0120FFF7B0FD62B6BDE8804001F080
:101D34007DB84FF0FF31024642F8081F0021C0E988
:101D44000322C0E9001270470021016170470000BE
:101D540080B5D1F800C01CF1010207D000F10802DF
:101D64009646526813686345FAD903E0D0F810E048
:101D7400DEF804204A6091600268C1F808E0CEF8F9
:101D840004100861511C016080BD1021EFF3118023
:101D940081F3118840F63001C2F200010A68531C35
:101DA4000B605AB940F2AC61C2F2000108604EF611
:101DB4000450CEF200000068C00500D1704743F221
:101DC400996043F2DF61C0F20000C0F2000140F20A
:101DD400A442FEF7B1FC000040F63000C2F200005D
:101DE400016859B10139016018BF704740F2AC6015
:101DF400C2F20000006880F31188704743F2DF618B
:101E040003A0C0F2000140F2AD42FEF795FC00BF12
:101E14007578437269746963616C4E657374696E35
:101E240067000000806910F8020C022808BFFFF761
:101E340019BD042838BF704743F2DF6103A0C0F224
:101E440000014FF47E72FEF777FC00BF75635356B2
:101E5400434E756D626572203C3D203300000000E6
:101E640040F24450C2F20000006844F6D351C1F27B
:101E74006201A0FB01014FF0FF3000EB9111002043
:101E8400B0EB116F18BF70474EF21002CEF2000291
:101E940051604EF62351CEF20001F0230B70906096
:101EA4000720106070470000B0B500B3D1B140F610
:101EB4007C5E4FF0000C0023C2F2000E002200BF33
:101EC4000EEB0304656885420DD022B92268002A0E
:101ED40018BF644622460833502BF1D1002A18BF9C
:101EE400C2E90010B0BD2246C2E90010B0BD43F201
:101EF400474043F2FD31C0F20000C0F2000140F659
:101F0400C932FEF719FC70B515460E460446FFF7B4
:101F14003CFF94F84400FF2804BF002084F84400E8
:101F240094F84500FF2804BF002084F84500FFF71B
:101F340053FFA06B28B904F1240031462A4600F06F
:101F440061F82046BDE87040FFF748BB80B580B11A
:101F540040F63C01C2F200010A6801320A600968D5
:101F6400012912D10021FFF7E8F800F05FFF00B16A
:101F740080BD4EF60450CEF200004FF08051016057
:101F8400BFF34F8FBFF36F8F80BD43F2B25043F264
:101F9400CD51C0F20000C0F2000140F68E12FEF7EF
:101FA400CBFB40F66051C2F200010968016040F6C3
:101FB400F851C2F2000109684160704740F60460BC
:101FC400C2F2000001210160704710B570B10C46E7
:101FD40040F2B871C2F2000109681831FFF7B8FE87
:101FE40020460121BDE81040FFF7A7B843F2246062
:101FF40043F2CD51C0F20000C0F200014FF4A452EC
:10200400FEF79AFBB0B538B30346D0E900C040F2FE
:10201400B87EC2F2000EDEF80040002AE061846857
:10202400DEF800502C62DEF8005005F118056560FA
:10203400DEF800400CF1010504F118048460DEF8B8
:102044000000836218BF4FF0FF31084611461D603F
:10205400BDE8B040FFF771B843F2246043F2CD51BC
:10206400C0F20000C0F2000141F2BE42FEF764FB80
:10207400B0B58AB044F24940C4F24C5000240690F2
:1020840005A804A903AA8DF81C40CDE90444FFF770
:102094002AFEDDE90320059D06A90023CDE90040C1
:1020A40041F20930C0F20000029500F037FC40F61E
:1020B4005850C2F2000005602DB300F083FF0128E0
:1020C4000AD001301FD143F2CD5112A0C0F2000159
:1020D40040F6A962FEF730FB40F65C51C2F2000103
:1020E4004FF0FF32012080F310880A6040F6CC5193
:1020F400C2F20001086040F6F850C2F2000000216C
:10210400016000F067F843F22470C0F20000006838
:102114000AB0B0BD7852657475726E20213D2028D6
:10212400202D31202900000040F63C00C2F20000BE
:10213400016801310160704740F63C00C2F20000C2
:10214400006830B140F60460C2F200000121016071
:10215400704740F60460C2F20000002140F6440CCF
:102164000160C2F2000CDCF8001040F2CC7301EB09
:102174008102C2F2000353F8220003EB820228B961
:10218400B9B152F8140D01390028F9D050684368E8
:1021940002F108008342536001D1D3685360D868C8
:1021A40040F2B872C2F200021060CCF8001010685D
:1021B400704743F2CD5103A0C0F2000141F2FA325C
:1021C400FEF7BAFA7578546F705072696F72697459
:1021D400790000004EF62250CEF20000F02101708A
:1021E400FFF73EFE4EF63470CEF20000016841F077
:1021F4004041016062B6BFF36F8FEFF3148C2CF093
:10220400040C8CF31488BFF36F8F02DF00BEFDE76C
:10221400B0B582B080B10D4681420DD814464FF05E
:10222400000C002100222346CDF800C000F012F873
:102234002046A56302B0B0BD43F2FD3103A0C0F255
:1022440000014FF45E72FEF777FA00BF7848616EC2
:10225400646C650010B582B00BB3B8B11C4601B90B
:10226400A2B901B192B148230193019B482B1FD11C
:10227400019B002908BF2246C4E90F012046012121
:10228400226000F03BF8204602B010BD43F2FD315D
:1022940013A0C0F200014FF4D872FEF74DFA43F2D6
:1022A400FD3112A0C0F200014FF4C272FEF744FAED
:1022B40043F2FD3103A0C0F200014FF4CB72FEF7EC
:1022C4003BFA00BF7853697A65203D3D2073697AF3
:1022D400656F66282051756575655F742029000057
:1022E40070784E6577517565756500007078537424
:1022F40061746963517565756500000070B50028E7
:1023040044D00446C06BC0B30E46216CA0FB01014F
:1023140099BBFFF73AFDD4E90F0122680025A563B4
:1023240001FB0023013800FB0120C4E90123E06024
:10233400FF2084F8440084F8450004F110004EB1F5
:10234400FFF7F7FC04F12400FFF7F3FCFFF744FD6B
:10235400012070BD01680029F8D000F0EEFC0028CF
:10236400F4D04EF60450CEF200004FF080510160DC
:10237400BFF34F8FBFF36F8FE8E743F2FD3109A03E
:10238400C0F200014FF4B672FEF7D6F943F24640AC
:1023940043F2FD31C0F20000C0F2000140F23712F6
:1023A400FEF7CAF97852657475726E20213D2028B3
:1023B400202820282042617365547970655F742059
:1023C40029203020292029002DE9F04F85B000284C
:1023D400049200F09D8099461546044619B9206C74
:1023E400002840F0B980B9F1020F03D1E06B012855
:1023F40040F0A680019100F0BFFB10B9002D40F021
:102404009380FFF7C2FCA06BB9F1020F59D0E16BC6
:10241400884256D304F11007012002AE4FF0000A9F
:1024240004AD00BF0499002966D0C0071CBF304624
:10243400FFF7B7FDFFF7D0FCFFF776FEFFF7A5FC2B
:1024440094F84400FF2808BF84F844A094F8450099
:10245400FF2808BF84F845A0FFF7BEFC3046294694
:1024640000F00EFA00284AD1FFF78FFCD4F838B0F8
:10247400D4F83C80FFF7B0FCC34515D10499384625
:10248400FFF7A3FD2046FFF7A9F800F0CFFC80B9C1
:102494004EF60450CEF200004FF080510160BFF3BD
:1024A4004F8FBFF36F8F04E02046FFF797F800F0DB
:1024B400BDFCFFF76AFCA06BE16B88424FF00000A3
:1024C400B0D2019920464A46FEF7EBFE54F8240F99
:1024D40070B1204600F031FC50B14EF60450CEF2FB
:1024E40000004FF080510160BFF34F8FBFF36F8F37
:1024F400FFF772FC012008E0FFF76EFC04E02046C1
:10250400FFF76CF800F092FC002005B0BDE8F08FF6
:1025140043F2464043F2FD31C0F20000C0F2000134
:1025240040F2B632FEF708F943F2312043F2FD31AE
:10253400C0F20000C0F2000140F2BB32FEF7FCF82A
:1025440043F2842043F2FD31C0F20000C0F20001E6
:102554004FF46E72FEF7F0F843F2213043F2FD318E
:10256400C0F20000C0F2000140F2B732FEF7E4F816
:102574002DE9F04F83B00028029200F0A2801646A5
:102584008946044619B9206C002840F0B28000F056
:10259400F3FA10B9002E40F0A080FFF7F6FBD4F850
:1025A40038A0BAF1000F28D0226C52B1D4E902014C
:1025B4001144E160814224BF2168E1604846FDF78F
:1025C40057FD54F8100FAAF10101A16270B1204621
:1025D40000F0B3FB50B14EF60450CEF200004FF0C1
:1025E40080510160BFF34F8FBFF36F8F0124FFF75A
:1025F400F3FB204603B0BDE8F08F04F1240801206A
:102604006F464FF0000B02AE0299002955D0C00767
:102614001CBF3846FFF7C5FCFFF7DEFBFFF784FD60
:10262400FFF7B3FB94F84400FF2808BF84F844B0D4
:1026340094F84500FF2808BF84F845B0FFF7CCFBA9
:102644003846314600F01CF960B12046FEF7C6FF5B
:1026540000F0ECFBFFF799FBA56BFFF7BDFB1DBB7F
:102664002DE000BFFFF791FBA56BFFF7B5FB2DB184
:102674002046FEF7B3FF00F0D9FB15E0029940466F
:10268400FFF7A3FC2046FEF7A9FF00F0CFFB58B9E3
:102694004EF60450CEF200004FF080510160BFF3BB
:1026A4004F8FBFF36F8F00BFFFF76FFBD4F838A0D5
:1026B4000020BAF1000FA7D076E7002497E70024A2
:1026C40097E743F2D83043F2FD31C0F20000C0F284
:1026D400000140F2E952FEF72FF843F2312043F2B1
:1026E400FD31C0F20000C0F2000140F2F252FEF7E8
:1026F40023F843F2D12043F2FD31C0F20000C0F2CE
:10270400000140F2ED52FEF717F800002DE9F04FFA
:1027140083B00028029100F08E800446006C0028EB
:1027240040F095800D4600F027FA10B9002D40F0D6
:102734009A80FFF72AFBA16BD1B154F8100F01392D
:10274400A16270B1204600F0F8FA50B14EF6045080
:10275400CEF200004FF080510160BFF34F8FBFF302
:102764006F8F0124FFF738FB204603B0BDE8F08FDC
:102774004EF6045904F1240801206E464FF0000B74
:1027840002AFCEF200094FF0805A00BF029900292F
:102794004DD0C0071CBF3046FFF703FCFFF71CFBFE
:1027A400FFF7C2FCFFF7F1FA94F84400FF2808BFD2
:1027B40084F844B094F84500FF2808BF84F845B075
:1027C400FFF70AFB3046394600F05AF860B120465C
:1027D400FEF704FF00F02AFBFFF7D7FAA56BFFF71B
:1027E400FBFAEDB925E000BFFFF7CFFAA56BFFF7C1
:1027F400F3FA2DB12046FEF7F1FE00F017FB0FE0CF
:1028040002994046FFF7E1FB2046FEF7E7FE00F0A1
:102814000DFB28B9C9F800A0BFF34F8FBFF36F8F2A
:10282400FFF7B3FAA16B00200029AFD085E700249D
:1028340098E7002498E743F2D83043F2FD31C0F220
:102844000000C0F2000140F28262FDF775FF43F21E
:10285400E43043F2FD31C0F20000C0F2000140F266
:102864008662FDF769FF43F2312043F2FD31C0F285
:102874000000C0F2000140F28B62FDF75DFF000032
:1028840070B568B30D46B9B30446FFF77EFA40F657
:10289400F85EC2F2000EDEF8003029684A1C16D039
:1028A40040F6605CD4E90002C2F2000CDCF800607F
:1028B400864201D093420CD29A1A914209D9881ABD
:1028C4002860DCF800002060DEF80000606000246E
:1028D40002E0002001242860FFF77EFA204670BD44
:1028E40043F2306043F2CD51C0F20000C0F2000167
:1028F40041F2A552FDF720FF43F2CD5103A0C0F2EF
:10290400000141F2A652FDF717FF00BF7078546929
:10291400636B73546F576169740000002DE9F04FC5
:1029240081B00B9D002D00F0D7800C9C002C00F092
:10293400DC808146602000900098602840F0DE80B2
:1029440000980E460A9F2046602198469246FDF75D
:10295400A8FB256366B104F134000021725C425483
:102964001AB10F2901F10101F8D1002084F84300C4
:10297400052F80F0CC8005EB8A00251D043820F05B
:1029840007062846E762FFF7DFF904F11800FFF7AE
:10299400DBF9C7F10500216BA06130464A46434686
:1029A40024616462FEF753FE2060FFF7EEF940F6FF
:1029B4003400C2F20000016840F2B87B01310160CA
:1029C400C2F2000BDBF8001040F6CC5A40F2CC7790
:1029D400C2F2000AC2F2000761B1DAF8000000286E
:1029E40040D1DBF80000E16AC06A884298BFCBF8A6
:1029F400004037E0CBF800400068012832D10026BF
:102A0400B819FFF796F91436642EF9D140F6305808
:102A1400C2F200084046FFF78CF940F64459C2F26E
:102A240000094846FFF785F940F66850C2F20000F5
:102A3400FFF77FF940F6E450C2F20000FFF779F99E
:102A440040F6D050C2F20000FFF773F940F2C070B4
:102A5400C2F20000C0F8008040F2C470C2F200006C
:102A6400C0F8009040F64000C2F200000168013155
:102A7400016040F64401C2F20001E06A0A68904233
:102A840088BF086000EB800007EB80014A68616141
:102A94009368C4E90223956057F820205D60511CB7
:102AA40047F82010FFF798F9DAF8000080B1DBF856
:102AB4000000E16AC06A88420AD24EF60450CEF29F
:102AC40000004FF080510160BFF34F8FBFF36F8F51
:102AD400204601B0BDE8F08F43F2CD5121A0C0F2F1
:102AE400000140F2F142FDF727FE43F2CD5118A058
:102AF400C0F2000140F2F242FDF71EFE43F2CD5156
:102B040007A0C0F2000140F2FA42FDF715FE43F2BD
:102B1400CD510AA0C0F2000140F26472FDF70CFE30
:102B24007853697A65203D3D2073697A656F66281C
:102B3400205443425F7420290000000075785072CD
:102B4400696F72697479203C2028352900000000DF
:102B540070785461736B42756666657220213D20FE
:102B640030000000707578537461636B427566665B
:102B7400657220213D20300040F6CC50C2F20000A6
:102B8400006848B140F63C00C2F200000068B0FAA8
:102B940080F04009400070470120704740F6F8502B
:102BA400C2F20000006870472DE9F04F81B040F692
:102BB4003C00C2F20000006840B140F66450C2F22A
:102BC40000000168013101600020A7E040F6F850E0
:102BD400C2F20000016840F65C5211F1010BC2F22E
:102BE4000002C0F800B021D340F2C070C2F200006D
:102BF40001680968002940F0948040F2C473C2F26D
:102C0400000301681F680760196040F66051C2F252
:102C140000010B6801330B600168096819B1006891
:102C2400C068006801E04FF0FF3010601068834511
:102C340001D200206AE040F2C07AC2F2000ADAF857
:102C44000000006800285DD040F6440940F2CC7EC4
:102C540040F2B878C2F20009C2F2000EC2F20008D3
:102C6400002000BFDAF80010C968CE68374657F86C
:102C7400045FAB4541D3D6E9023571694A689D606A
:102C8400BA426B6008BF4D600A68B56A013A0A60CF
:102C94007DB1D6E90721D5F804C006F118039C4597
:102CA40091604A6008BF6960296800220139B262F4
:102CB4002960F56AD9F800108D4288BFC9F8005020
:102CC40005EB85010EEB8102536872619C68C6E9CD
:102CD40002349F605EF8213067605A1C4EF8212050
:102CE400D8F80010C96ADAF800208D4288BF0120A4
:102CF40011680029B6D14FF0FF3540F65C52C2F29C
:102D0400000202E04FF0FF350020156040F6046138
:102D1400C2F200010968002918BF012001B0BDE812
:102D2400F08F43F24E4043F2CD51C0F20000C0F2A6
:102D3400000141F25F22FDF7FFFCB0B5C068C06836
:102D4400002867D0D0E90713826A00F1180CD2F882
:102D540004E08B60E645596008BF536013680021A6
:102D64008162591E116040F63C01C2F200010968FB
:102D740089B140F66851C2F20001D1E900238162B1
:102D84009D68C0E90735C3F808C0531CC26AC5F87A
:102D940004C00B602DE0D0E90213426900F1040C79
:102DA400D2F804E08B60E645596008BF53601168AF
:102DB40040F6440301391160C2F20003C26A196883
:102DC40040F2CC7E8A4288BF1A6002EB8201C2F2D2
:102DD400000E0EEB81035C684361A568C0E90245FF
:102DE400C5F804C05EF82150C4F808C0681C4EF849
:102DF400210040F2B870C2F200000068C06A82424A
:102E040091BF002040F60461C2F20001012088BF96
:102E14000860B0BD43F2735043F2CD51C0F20000DC
:102E2400C0F2000141F2F542FDF786FC2DE9F04FB6
:102E340081B0FEF7AAFF40F63C00C2F20000016830
:102E4400002900F0A880016801390160006830B1F0
:102E54000024FEF7C1FF204601B0BDE8F08F40F624
:102E64003400C2F2000000680028F1D040F6685B2C
:102E7400C2F2000BDBF8001040F6046940F2B878A7
:102E84000029C2F20009C2F200085FD040F6440AE9
:102E940040F2CC734FF0000EC2F2000AC2F20003FB
:102EA4004FF0010CDBF80C70FC68A76AD4E90756F4
:102EB400796804F118029142AE60756008BF7E60C3
:102EC4003968C4F828E001393960261D6769D4E9F6
:102ED40002157A68B2428D60696008BF7D60396806
:102EE40001393960E76ADAF800108F4288BFCAF8FE
:102EF400007007EB870103EB810255686261A868E3
:102F0400C4E90250466053F82100AE60013043F832
:102F14002100D8F80000C06A874288BFC9F800C001
:102F2400DBF800000028BDD140F2C070C2F20000FE
:102F34000168096819B10068C068006801E04FF0D1
:102F4400FF3040F65C51C2F20001086040F6645460
:102F5400C2F20004266856B1012700BFFFF724FE21
:102F640008B1C9F80070013EF8D100202060D9F8FA
:102F7400000000283FF46CAFD8F800004EF604506F
:102F8400CEF200004FF080510160BFF34F8FBFF3CA
:102F94006F8F01245DE743F2CD5103A0C0F200011D
:102FA40040F68B72FDF7C8FB7578536368656475EA
:102FB4006C657253757370656E64656420213D2081
:102FC4003055000080B586B0FEF70AF940F6FC5093
:102FD400C2F20000006808B30020CDE9040005A88F
:102FE40004A903AAFEF78CFEDDE903200321DDF822
:102FF40014C00023CDE9001041F24940C0F20000A2
:103004000BA1CDF808C0FFF789FC40F60061C2F2BD
:103014000001086010B1012006B080BD43F2486190
:1030240005A0C0F200014FF4A372FDF785FB00BFB9
:10303400546D7220537663007852657475726E0015
:10304400000000000000000000000000000000007C
:1030540000000000000000200000002000000060CC
:1030640000010C0300000020000000200000000804
:103074000000020300000020000000207400000093
:103084000000010314000000943000000000000060
:10309400008000000000000000800000010000002B
:1030A4000080000002000000008000000300000017
:1030B400008000000D000000000401060001000073
:1030C40000040106010100000000010602010000E5
:1030D40000000100080100000000010509010000D2
:1030E400000001050A0100000500000006020000BE
:1030F400000001040C020000000001040D020000A5
:1031040000000100000300000000010301030000AF
:103114000000000002030000000001070704000093
:103124000000010708040000050000000904000075
:10313400020000002837000003000000583000009F
:1031440001000000DC310000DF010000E0010000AC
:10315400E6010000E7010000B6010000B70100002D
:10316400B8010000B901000060010000CD010000B9
:10317400CC0100002000000021000000010002003A
:1031840008001000200000000000000800000008F3
:1031940000800000008000000000000040A2000148
:1031A40040A2000104A1000100A1000104A2000149
:1031B40000A2000120A1000120A1000160A20001E1
:1031C40060A20001000000600000006000400020D8
:1031D400004000200000002000000020000000202B
:1031E4002128202820707851756575652D3E7063FF
:1031F40048656164203D3D20302029202626202872
:1032040020707851756575652D3E752E7853656D02
:103214006170686F72652E784D75746578486F6C4F
:1032240064657220213D2030202920290021282096
:103234002820785461736B476574536368656475BB
:103244006C657253746174652829203D3D202820E3
:10325400282042617365547970655F742029203099
:1032640020292029202626202820785469636B737E
:10327400546F5761697420213D2030202920290092
:10328400212820282078436F7079506F73697469FE
:103294006F6E203D3D2028202820426173655479BB
:1032A40070655F74202920322029202920262620B9
:1032B4002820707851756575652D3E75784C656E5E
:1032C40067746820213D20312029202900212820ED
:1032D4002820282070764275666665722029203D74
:1032E4003D203020292026262028202820707851AF
:1032F4007565756520292D3E75784974656D53692A
:103304007A6520213D2028205542617365547970E7
:10331400655F742029203055202920290021282088
:10332400282070764974656D546F517565756520F4
:103334003D3D2030202920262620282070785175F4
:103344006575652D3E75784974656D53697A652098
:10335400213D2028205542617365547970655F745E
:1033640020292030552029202900212820282070B8
:1033740076427566666572203D3D20302029202600
:1033840026202820707851756575652D3E7578491D
:1033940074656D53697A6520213D2028205542616A
:1033A4007365547970655F74202920305520292075
:1033B400290028206354784C6F636B202920213D19
:1033C4002028202820696E74385F74202920313227
:1033D40037202900282070785175657565202900EB
:1033E400707851756575652D3E75784974656D53B2
:1033F400697A65203D3D203000473A2F417175615F
:1034040047617264656E2F68617264776172652FBB
:1034140061675F6472697665722F72612F61777379
:103424002F4672656552544F532F46726565525448
:103434004F532F536F757263652F71756575652EC4
:103444006300707851756575650028202820282050
:103454002820707844656C617965645461736B4CA1
:1034640069737420292D3E75784E756D6265724FAF
:10347400664974656D73203D3D2028205542617373
:1034840065547970655F74202920302029203F20FD
:103494002820282042617365547970655F7420295F
:1034A40020312029203A20282028204261736554A5
:1034B4007970655F74202920302029202920290073
:1034C4007578496E646578546F576169744F6E20DE
:1034D4003C20283129007578496E646578546F431F
:1034E4006C656172203C20283129007578496E642E
:1034F4006578546F4E6F74696679203C20283129B1
:1035040000785469636B436F756E74203D3D2028C9
:10351400205469636B547970655F742029203000EE
:103524002820282026282070785443422D3E7845B0
:1035340076656E744C6973744974656D202920290D
:103544002D3E7078436F6E7461696E657220292018
:103554003D3D20300075785363686564756C657211
:1035640053757370656E646564203D3D2030007052
:1035740078556E626C6F636B6564544342004944D2
:103584004C450075785363686564756C6572537552
:103594007370656E64656420213D20282055426166
:1035A4007365547970655F742029203055007578EF
:1035B4005363686564756C657253757370656E6486
:1035C4006564203D3D20315500473A2F41717561B6
:1035D40047617264656E2F68617264776172652FEA
:1035E40061675F6472697665722F72612F617773A8
:1035F4002F4672656552544F532F46726565525477
:103604004F532F536F757263652F7461736B732EF1
:103614006300785461736B546F526573756D650004
:1036240070784576656E744C69737400707854696B
:103634006D654F757400785461736B546F4E6F747D
:1036440069667900473A2F41717561476172646513
:103654006E2F68617264776172652F61675F64724F
:10366400697665722F72612F6177732F4672656573
:1036740052544F532F4672656552544F532F536F14
:10368400757263652F74696D6572732E6300785467
:10369400696D6572002828285343425F5479706528
:1036A400202A2920282830784530303045303030E1
:1036B400554C29202B20307830443030554C29206B
:1036C400292D3E494353522026202830783146463E
:1036D400554C202929203D3D203000473A2F417187
:1036E400756147617264656E2F6861726477617297
:1036F400652F61675F6472697665722F72612F66E8
:1037040073702F7372632F726D5F66726565727466
:103714006F735F706F72742F706F72742E6300001A
:10372400040000000000002000000020000000034E
:1037340018040020080E0020000000030000010609
:10374400362E312E30004275696C742077697468A6
:103754002052656E6573617320416476616E6365A2
:103764006420466C657869626C6520536F66747773
:10377400617265205061636B616765207665727361
:0C378400696F6E20362E312E30000000E0
:020000040100F9
:04A10000FFFFFFFF5F
:020000040100F9
:04A20000FFFDFFFF60
:04000005000004AD46
:00000001FF
