:020000040000FA
:1000000020040020450B00000D050000A90200009F
:10001000A9020000A9020000A9020000A902000034
:10002000000000000000000000000000A902000025
:10003000A902000000000000A9020000A9020000BF
:100040004F14000021150000D7140000E513000034
:10005000C3120000AD110000000000004001A1002B
:020000040000FA
:1000600040EA01039B0703D009E008C9121F08C03A
:10007000042AFAD203E011F8013B00F8013B521EBA
:10008000F9D27047D2B201E000F8012B491EFBD231
:1000900070470022F6E710B513460A460446194693
:1000A000FFF7F0FF204610BD2DE9F0412DED048B48
:1000B000A0B0044601A880EC030A10AE01AFB0EE78
:1000C000610AF0EE420A30463946B0EE629AB0EE6E
:1000D000618A00F03DFA054640F23C50C2F2000051
:1000E0000DF11008B0EE480AF0EE490A05704046DE
:1000F000394600F02DFA40F23D51C2F2000108707D
:1001000040F2FC41C2F20001ADB311AF8CCF9DEDC6
:10011000100A01F1040C8CE88C0081ED000A06F154
:1001200014020023D758CE180833202B7761F9D159
:1001300080B39DED041A30EE480A31EE482AB0EE45
:10014000C00AB0EEC22AB4EE402AF1EE10FA21DA6B
:1001500005AB81ED001A0DCB01F1040C8CE80D000C
:1001600008F11400002200BF83588F180832202A9B
:100170007B61F9D10EE000283FD004AF8DCF81E83C
:100180008D0008F11400002283588F180832202AAD
:100190007B61F9D1486991ED070A9FED1B1A1C900C
:1001A00031EE400A486AC96A8DED1D0A9FED178A33
:1001B0009FED179A40F2705500261CAFC2F2000561
:1001C000CDE91E01B7EC010AC6F10600C1B228460E
:1001D00020EE080A234630EE090ABDEEC00A10EEF2
:1001E000102A00F009FD1E204FF47A7100F083FA06
:1001F0000136042EE6D1012000E0002020B0BDEC45
:10020000048BBDE8F08100BF0000B4425555854025
:100210000000FA4310B540F27050C2F2000000F046
:10022000D9FC40F2FC40C2F2000000F03FF840F27E
:100230004044C2F2000420466821FFF72AFFC8208C
:100240004FF47A7100F057FA20464FF4FA6100F04B
:1002500003F8012010BD0000D8B12DE9F04104469B
:100260000D4600260FF22C080CA700BF26B11E2059
:100270004FF47A7100F03FFA18F8061037F816209C
:1002800020462B4600F0B8FC0136062EEED1BDE824
:10029000F04170470605040302010000F4019801D3
:1002A0008100B100F401E20000BE704788B110B5D2
:1002B000044610302021FFF7ECFE002200204FF012
:1002C0008041C4F27012C4E90002C4E90201BDE831
:1002D00010407047E8B110B52DED0C8B90ED020A7F
:1002E000D0ED010A20EE001A20EEA02A90ED039A2C
:1002F00032EE011A0446B1EEC18A9FED741AB4EED3
:10030000418AF1EE10FA06DA9FED6F0AB0EE401A5C
:100310000BE00020704701F05BF99FED6D1A9FED37
:100320006D2A20EE011A81EE021A29EE092A28EE22
:10033000083A002084ED040A33EE022A9FED663A63
:10034000B1EEC22A84ED051AB4EE432AF1EE10FA9A
:1003500000F3B7809FED610AB4EE402AF1EE10FA87
:10036000C0F2AF8094ED000A9FED5ACA9FED58BAD3
:1003700020EE0C0A80EE0B0A01F080FA94ED001AD0
:100380009FED57AA21EE0C1A20EE0A0A81EE0B1AF5
:100390009FED542A30EE088A39EE029AB0EE410AF7
:1003A00001F014FB20EE0A0A28EE081A30EE099A32
:1003B00029EE090A31EE000A9FED4B1A30EE010AD0
:1003C0009FED4A1A30EE010A9FED491A80EE01AA0C
:1003D000B7EE001A2AEE0A0AF0EE4A0A31EE400A97
:1003E000B1EEC0DAB1EE4D0A01F0F2F820EE0B1AD0
:1003F0009FED413A81EE0C2A9FED3E1A9FED3F4A58
:100400002AEE011A6DEE040A31EE031A84ED080A91
:10041000B0EE410A84ED092A01F0DAF8B0EE40AA04
:10042000B0EE480AF0EE490A01F0D2F83AEE404A3E
:1004300094ED092A24EE0B0A94ED056A80EE0C3A3D
:1004400094ED000AB0EEC66A84ED064A30EE430A27
:1004500084ED073A30EE420A20EE0C1A84ED0B0AC6
:1004600081EE0B5A9FED261AB4EE416AF1EE10FAB6
:1004700084ED0A5A01DD002023E0B5EE403A002069
:10048000F1EE10FA1DDBB4EE4B3AF1EE10FA18DC87
:100490009FED1C3AB0EEC22AB4EE432AF1EE10FAF8
:1004A0000FDC9FED192A0021B4EE420AF1EE10FA9A
:1004B000A8BF0121B4EE410AF1EE10FAD8BF012025
:1004C0000840BDEC0C8B10BD000000006F12833A99
:1004D00000003443DA0F4940B81E1442295C8141C0
:1004E0009A998DC1C3F538C0DF91D9C2846B9EC281
:1004F0006CA7394366660E4148E1264166660EC127
:100500000000B442000016430000C8C22DE9F041CB
:1005100046F22018C4F20008B8F80000B8F820101D
:1005200040F2A84501EA0006B7B20024C2F2000575
:1005300027FA04F0C00704D055F8241009B120466A
:1005400088470134102CF3D1A8F81060BDE8F08181
:1005500010B52DED048B044600284FF0000018BFA5
:10056000002924D00868B0EE409A606080FE600ADE
:100570004868B0EE608AA060886884ED000AE06098
:100580002046FFF7A7FE40F2F041C2F200010860EA
:1005900060B989FE080A204684ED000AFFF79AFE3A
:1005A00040F2F441C2F20001086018B10120BDEC34
:1005B000048B10BD39EE080AB6EE001A204620EE74
:1005C000010A84ED000AFFF785FE40F2F841C2F20D
:1005D00000010860002818BF0120E8E7B0B543F229
:1005E0002404C4F208040025C8200121257100F06C
:1005F00082F8257020780028FCD1207840F0020095
:10060000207000BF20788007FCD4002004F8020C82
:1006100014F8020C0028FBD1002004F11C0100BFDB
:1006200011F8102002F07F0201F8102011F91020BB
:10063000002AFBD401300328F2D1012000F00BF88E
:100640004EF2BB420021C4F2010201201170BDE84C
:10065000B04000F027B880B50122EFF3108182F39B
:10066000108840F22C52C2F2000232F810308BB9DE
:100670004EF2FE3C41F6FC53C4F2010CC0F2000302
:10068000BCF800E033F8103043EA0E0343F425438E
:10069000ACF8003032F81030013322F8103081F31A
:1006A000108880BD0122EFF3108182F3108840F2A0
:1006B0002C52C2F2000232F8103023B132F810305E
:1006C000013B22F8103032F810208AB94EF2FE3C7D
:1006D000C4F2010C41F6FC52BCF80030C0F200023A
:1006E00032F8100043F4254222EA0000ACF8000082
:1006F00081F31088704740F23C42C2F20002126857
:1007000001FB00F041F20021C0F27A018A420FD3CE
:1007100040F6FF01C0F23D0111444DF68362C4F280
:100720001B32A1FB0212110DA0FB0101E9B11FE078
:100730004CF60021C3F69A3148F63813C0F2410353
:10074000B1FBF2F1984207D24FF47A7200FB02F04B
:10075000B0FBF1F0800808E08900B0FBF1F09842AE
:1007600006D24FF47A7100FB01F028B100F0E7BB2C
:100770004FF0FF3000F0E3BB70477047022818BF0E
:10078000704740F2E84041F68851C2F20000C0F2E2
:100790000001AFF3008080B545F25422C5F24F024C
:1007A0000260084600F082FC002080BD8446C0E95B
:1007B00009130020CCF82C2070470A7801239340BD
:1007C00013F0060F05D00B6CDB681B781B0700F1DC
:1007D000E0802DE9F04748F20003C4F2110343EA38
:1007E0000222D1E90E364FF0000843628378C662D8
:1007F00023F003035E1C86704E68026280F800805E
:10080000C161C0F8288016B943F002038370CF6A33
:100810004EF2001C07F01F034FF0010ECEF2000C49
:100820000EFA03F30CF180047E0991F8285044F885
:100830002630BFF34F8F46F2003AC4F2000ABFF3EE
:100840006F8F5AF827602A0126F480364AF827600D
:100850000CF540755AF82760EA554A6940F2A459E8
:1008600002F01F06C2F200090EFA06F6530949F813
:1008700027000F7C44F82360BFF34F8FBFF36F8FC7
:100880005AF822303E0123F480334AF822305AF8D5
:100890002230AE5449F82200CA690B7E02F01F06CE
:1008A0000EFA06F6570944F82760BFF34F8FBFF3DF
:1008B0006F8F5AF822601B0126F480364AF82260B6
:1008C0005AF82260AB5449F822004A6A91F8203065
:1008D00002F01F060EFA06F6570944F82760BFF328
:1008E0004F8FBFF36F8F5AF822401B0124F48034DE
:1008F0004AF822405AF82240AB5449F82200EFF35C
:1009000010828EF3108844F204050B78C4F20805B7
:100910004FF000442E6824FA03F326EA03032B6009
:100920002B6882F31088026A82F80280026A82F8D9
:100930000480026A82F80980026A82F80A80026AE8
:1009400082F80B80026AA2F81A800A780EFA02F383
:1009500040F2F932134202D0036A4024DC74036A85
:1009600006241C770B780EFA03F3134203D0026AB5
:100970004FF478439382D1E90163CA684FEAC20217
:1009800042EA03123EB1032E08BF42F04002F226B3
:1009900002E00322ADE0E226036A02271A70026A2F
:1009A000002596710A6C936907EA4307082B036ACE
:1009B00008BF0A275F73066AD2E9013735721668E5
:1009C000DB0126F00106022EDEB267F345160AD1DE
:1009D000036AFF275F701268022A026A08BF46F0A6
:1009E0001006D67117E0036ADE71D268036A977841
:1009F0005F7057781E7807F0030706F0FC0637444F
:100A00001F70D7789F74DF79127807F0A30702F080
:100A10005C023A44DA710022C369C0E90322C0E9EA
:100A20000522D1F840E05B699EF800105AF8234097
:100A300003F01F0524F480344AF823405AF8234079
:100A4000012404FA05F60CF5C0755B09BFF35F8F4E
:100A500045F823604CF82360C369DB6A5AF82360C9
:100A600026F480364AF823605AF8236003F01F0604
:100A700004FA06F65B09BFF35F8F45F823604CF874
:100A80002360C369DB695AF8236026F480364AF88C
:100A900023605AF8236003F01F0604FA06F65B0988
:100AA000BFF35F8F45F823604CF82360C3695B6A2E
:100AB0005AF8236026F480364AF823605AF82360F7
:100AC00003F01F06B4405B09BFF35F8F45F8234076
:100AD0004CF823401C23076A63F39F01B970DEF8CA
:100AE000141044F65513C5F24333C0E90131BDE893
:100AF000F0471046704780B5D0F820E09EF802C05D
:100B00000CF07B038EF80230837803F00303A2EB32
:100B1000030C0B44026AC0E9033C937843F0800362
:100B20009370827802F00302022A05D10988006AD4
:100B300041F47E41C18102E00978006AC170002061
:100B400080BD000000F096F800F0AAFAFEE7000071
:100B5000F0B581B040F2C057C2F2000704463846F3
:100B60001921FFF796FA2078617838706079A278B9
:100B7000E378797021797871A0793971B871207929
:100B8000BA70FB70C0B10720002100BF01EB410229
:100B9000C6B22244D379451CBB55137AEDB27B55BE
:100BA000861C527AF3B2FA5422790131914200F153
:100BB0000300EBD3C2B200E0072240F2405040F203
:100BC000C051C2F20000C2F2000101B0BDE8F04025
:100BD000FFF791BF80B53221FFF75BFA40F240503A
:100BE00040F62341C2F20000C0F2000100220023BF
:100BF000BDE88040FFF7DABD45F2555CC0F2083C25
:100C0000B2F57A7F28BF4FF47A72C0F800C04FF077
:100C1000010C80F804C0A0F80530C1710281FFF713
:100C200097BF4068012807D0022818BF704740F2DC
:100C3000BD50C2F2000003E040F2BC50C2F200001E
:100C40000121017070474EF22000C4F20100817949
:100C5000006840F22042C2F20002C0F3026052F883
:100C6000211021FA00F040F23C41C2F2000108607C
:100C70007047000010B54EF60850CEF200004FF459
:100C80007001C0F8801040F20001C0F20001016064
:100C900000200024FFF772FD00F06CF80120FFF740
:100CA0006DFD40F22000C2F2000080F30A880020AF
:100CB00000F032F8FFF7C7FFFFF790FC0320FFF7C3
:100CC000CAFC40F61050C4F208004FF6FF7100BF96
:100CD00020F8141001340C2CFAD10320FFF7E2FCA9
:100CE0000320FFF7B8FC0420C4F20E0000210160CD
:100CF00041608160C1600320FFF7D4FC0220FFF750
:100D00003DFD012000F008F800F0D4F80020BDE817
:100D1000104000F0CDB80000F0B581B041F6CC55E0
:100D2000C0F200052E68044676B16868071D00BF52
:100D30007879A04204D157E90101091AFFF7A9F90E
:100D4000013E07F10C07F3D1AE6886B1E86800F107
:100D5000080500BF6879A04205D155E9020229685B
:100D6000121AFFF77DF9013E05F11005F2D101B02D
:100D7000F0BD00002DE9F0414EF2FE34C4F2010452
:100D80004AF203504CF200152080C4F20105012004
:100D9000A88000BFA8880028FCD147F200010120EC
:100DA000C4F2000128808860086040F2204642F6C4
:100DB000005041F20022C2F20006C0F23110C0F22F
:100DC0007A02C6E9000243F200604FF40041C0F22B
:100DD0006E10C6E902104CF20020C0F6EB304EF265
:100DE00020073161C4F201077061B879396856F89B
:100DF0002000C1F3026140F23C48C840C2F2000842
:100E0000C8F8000000206075092087F8820094F877
:100E1000820018B994F88300800744D094F88200C7
:100E200050B9012084F88200C8200121FFF763FC3B
:100E300094F882000128FBD1002084F8830084F814
:100E400082000020B87400BF387F0007FCD543F251
:100E5000021038810020B872387F8006FCD503204C
:100E6000287741F22120C2F2010038600520B871D4
:100E7000B879396856F82000C1F30261F022C84001
:100E8000C8F8000042F20800C4F20000F12101712C
:100E90000121017002714FF42540397487F8321036
:100EA0002080BDE8F0814FF47A70FFF766FCC8E758
:100EB0007047000070B584B048F248060320C4F2C1
:100EC0000006FFF7C8FB6FF0FF0041F6E454306006
:100ED0004FF0FF300021C0F200040122CDE90200F2
:100EE00054F8213002FA01F5002B18BFA843013154
:100EF0000629F5D14EF280320190002001A9CEF2F0
:100F0000000200BF51F8203006EB8005AB6242F8CA
:100F1000203001300328F5D10320FFF7C3FB46F250
:100F200000310020C4F2000154F820200AB141F839
:100F300020200130062804BF04B070BDF4E701385A
:100F40000028FCD1704700002DE9F04F81B0044625
:100F5000008800285AD043F240084EF2BB4B0025CF
:100F6000C4F208080FF2AC0AC4F2010B4FF00109F9
:100F7000002700BF60685AF8272000EBC5004168D1
:100F800091423CD100689BF8001000F0B85009FA7B
:100F900007F6B0F1807F06EA010015D150B90120B3
:100FA000FFF759FB9BF8000030438BF8000001204D
:100FB000FFF778FB18F91700002820D418F817005D
:100FC00040F0800015E000BF50B10120FFF743FB67
:100FD0009BF80000B0438BF800000120FFF762FB94
:100FE00018F91700B0F1FF3F09DC18F8170000F0FE
:100FF0007F0008F81700C8200121FFF77CFB0137AC
:10100000032FB7D1208801358542B1D301B0BDE8A7
:10101000F08F00BF0204000003040000040400007D
:1010200040F2405041F60861C2F20000C0F20001F7
:10103000FFF7C3FBFFF7EEF840F6B8304FF47A71D4
:10104000FFF759FB9FED13AA9FED13BA9FED13CA4B
:1010500040F2A254B2EE0E8AB9EE089AB3EE04DA68
:10106000C2F20004B0EE480AF0EE490AB0EE4D1AA2
:10107000F0EE4A1AB0EE4B2AF0EE4C2A4FF47A709A
:10108000FFF712F820704FF4FA604FF47A71FFF70F
:1010900032FBE7E7000000000000B4C20000B442E9
:1010A00080B5FFF7BDFF002080BD000070B504468D
:1010B000FFF74AFF40F2385CEFF31080012181F323
:1010C0001088C2F2000CDCF8001039B940F6035168
:1010D000C4F2080100220A7040220A70DCF80010F5
:1010E0000131CCF8001080F31088208818B340F646
:1010F000000E0021C4F2080E606800EBC10250F837
:1011000031305268DD034FEA1220D2B20BD50EEB1C
:10111000801555F8226026F4803645F8226023F4C5
:10112000803645F822600EEB8010013140F8223005
:1011300020888142E0D30120EFF3108180F31088F2
:10114000DCF8000020B1DCF800000138CCF8000029
:10115000DCF8000038B940F60350C4F20800002261
:1011600002708022027081F3108870BDB0B584B027
:101170000446806A40B1D0E900CED0E90253CDE9FF
:1011800000CECDE9025300E06846E369D4F824C0FC
:101190001B78E56AC0E90032C0E90215E047A06AA1
:1011A00010B19DE82E002EC004B0B0BD10B582B0C5
:1011B000EFF3038040F2A4516FF35F20C2F200010D
:1011C00001EB800050F8404C2069C17A01F0F70132
:1011D000C17294F83700B8B12069F021C172206C57
:1011E000012300281ABFD0E90012CDE90012684699
:1011F000E16B626CC0E900238847206CD0B3DDE965
:101200000012C0E9001235E094F8321094F834006E
:1012100081420ED1A06A68BB94F8350002210028F3
:1012200008BF032194F838202069AAB30022C272B3
:1012300039E058B194F8351002284FF000000AD177
:1012400049B194F8310040F0010004E03120012957
:1012500008BF3020205C21690022CA722169C87051
:1012600094F8330094F83410013884F83300481CA3
:1012700084F83400EFF3038046F2C0216FF35F205F
:10128000C4F2000151F8202022F4803241F82020DD
:1012900051F8200002B010BDF022C272206982789D
:1012A00002F0CF028270206C00281ABFD0E9002320
:1012B000CDE900236846626CE36BC0E900219847E2
:1012C0009BE7EFF3038046F2C0216FF35F20C4F287
:1012D000000151F8202022F4803241F8202051F8FA
:1012E0002000EFF3038040F2A4516FF35F20C2F2BD
:1012F000000101EB800050F8400C01690A7BD20725
:1013000019D190F8323090F83420934220D1826A7B
:10131000002A3ED080B590F83530002B43D090F8AD
:101320003930002B4BD00023012A80F8393053D0BC
:101330008B72826A4DE090F8352012B190F8392016
:10134000E2B100228262012280F83720542005E0B9
:1013500090F83530022A03D113B15220C872704779
:1013600090F83020CA7090F8331090F8342001398A
:1013700080F83310511C80F8341070474979026AA4
:10138000C36AD154D0E90A230169013A0133C0E9A3
:101390000A2390F83620002AD8D05222CA7201219E
:1013A00080F838107047036AD0F82CC0A2F1010E03
:1013B00013F80C300CF10102C0E90AE210E049799F
:1013C000026AC36AD154D0E90A134A1E591CC0E903
:1013D0000A210169012A02D120228A720169FF23B0
:1013E000CB7080BDB0B5EFF303806FF35F20A0F149
:1013F000100540F2A450C2F2000050F82500817898
:10140000036A01F00301022912BF5979198A6FF3A7
:101410005F211A79D40602F0380203D51C7FE40755
:1014200008BF40321C7904F0C7041C71436A0BB139
:10143000FFF79CFE46F20030C4F2000050F8251081
:1014400021F4803140F8251050F82500B0BD10B5CA
:1014500082B0EFF3038040F2FC7101EA800046F2B3
:10146000C021C4F20001425822F48032425040F2BE
:10147000A452C2F200024158104450F8404CA078E7
:1014800000F00302206A022A12BF4179018A6FF339
:101490005F21A069019198B1606901A9FEF7E0FDA3
:1014A000A0786169A26900F003000144101A61612B
:1014B000A0610ED1606A60B120460021012203E0E4
:1014C000606A30B12046042202B0BDE81040FFF748
:1014D0004DBE02B010BD10B5EFF303806FF35F2077
:1014E000A0F1100440F2A450C2F2000050F8240011
:1014F000016A8A7802F07B028A70416A19B1002180
:101500000222FFF733FE46F20030C4F2000050F82A
:10151000241021F4803140F8241050F8240010BD2C
:10152000EFF3038040F2FC7101EA800046F2C02133
:10153000C4F20001425822F48032425040F2A452D8
:10154000C2F200024158104450F8400CC1694A6B85
:101550000169C2B9C1B1817801F00302C168022AF0
:1015600005D10988026A41F47E41D18102E00978FF
:10157000026AD1708178026901F00303D11AC2684E
:1015800001611A44C26071B9016A8A7802F07B0273
:1015900004328A70416A00294FF00001C1601CBF0B
:1015A0008022FFF7E3BD70474100080218BF042006
:1015B0000A0E18BF40F001004FF07F4232EA0101ED
:1015C00008BF40F00200012808BF05207047000056
:1015D00070B54FF068422DED048BF0EE408A18EEA6
:1015E000900AB0EE608A18EE101A02EB4003B3F1D5
:1015F000654F3CBF02EB4102B2F1654F7DD200BFA7
:10160000C0F3C753C1F3C7529A1A1B2A09DD10F061
:10161000004F14BF9FED830A9FED830ABDEC048B3E
:1016200070BD12F11A0F36DA11F0004F09D010F028
:10163000004F0CBF9FED7D0A9FED7D0ABDEC048B32
:1016400070BD88EE889A19EE100AFFF7ADFF0428E6
:1016500008BF00F091FA18EE900AFFF7A5FF0546C3
:1016600018EE100AFFF7A0FF044619EE100AFFF764
:101670009BFF042D18BF052D08D1042C18BF052C85
:1016800004D1002804BF022000F028FBB0EE490A74
:10169000BDEC048B70BD4200B2EB410F3AD910F0A3
:1016A000004F19BFDFED630A9FED630ADFED630AA8
:1016B0009FED630AB0EE481A0A46B1EE688A80F0E0
:1016C0000041F0EE418A10460A1A5200B2F1807FC2
:1016D00034D2484010F0004FDFED5A1A9FED5A2ADD
:1016E0001DBFBEEE001A70EEE10A30EE420AB6EE01
:1016F000001A08BF70EEA10A00E040E008BF30EE1B
:10170000020AB0EE682A01EE482A08EE818AC2EE8B
:10171000081A15E011F0004F04BF9FED4C0AF0EEDF
:10172000400AD1D010F0004F19BFDFED490A9FEDFC
:10173000490ADFED490A9FED490AC5E7C8EE881A54
:1017400021EEA11A9FED462ADFED462A41EE022A3C
:101750009FED452A01EE222ADFED442A41EE022ABE
:101760009FED432ABDEC048B01EE222A21EE811A63
:1017700001EE020A30EE210A30EE200A70BD4FF071
:101780007F42B2EB400F28BFB2EB410F09D2F0EE1F
:10179000480AB0EE680ABDEC048BBDE8704000F06A
:1017A000E0B940EA01035B0008BF41F0FF410BD004
:1017B000B2EB400F08BFB2EB410F08D120F08040E0
:1017C00008EE900A21F0804108EE101A18E7B2EBFB
:1017D000400F12BF5FEA410340F0FF4001F00041BB
:1017E0003FF40EAFB2EB410F12BF5FEA400200F0D0
:1017F000004041F0FF413FF403AF4A0092EA40034A
:101800003FF5FEAE002AACBF9FED1A0A9FED1A0A03
:1018100068EE808A28EE008A18EE900A18EE101AF8
:10182000EEE60000DB0FC9BFDB0FC93FDB0F49400D
:10183000DB0F49C00000C9BF22AAFDB90000C93FA3
:1018400022AAFD390060ED3EC30ACE370000000039
:10185000000049C022AA7DBA0000494022AA7D3A70
:101860002DAD65BD8FB8D53D0FB511BE61C84C3EDD
:10187000A8AAAABE0000804F0000802F10EE101A08
:1018800008B5444A6846B2EB410F28D94FF0E6400C
:10189000B0EB410F94BF00204FF0FF300090009854
:1018A000002861DB60EE000A10F0010F45D010F057
:1018B000020FDFED391A9FED391A00EEA11ADFEDA4
:1018C000381A40EE811A21EEA01AF0EE400A40EEDE
:1018D000010A08BFF1EE600AB0EE600A08BD314BA4
:1018E00021F0004293423CD911F0004FDFED2E0A67
:1018F00020EE201ADFED2D0A19BF31EE601A71EECD
:10190000200A31EE201A71EE600ABDEEE01A11EEE7
:10191000100A9FED271A00F0030000EEC10A9FEDA8
:10192000251A009000EEC10A9FED231A00EEC10AAD
:101930009FED221A00EEC10AB1E79FED211A9FED3B
:10194000210A10F0020F00EE810A9FED1F1A00EE2F
:10195000801AB7EE000A00EE810A18BFB1EE400A05
:1019600008BD00F011F99AE710EE100A4000B0F13E
:101970007F4F3CBFB7EE000A08BD07D14FF0010012
:1019800000F0ACF9BDE8084000F0EEB8BDE8084052
:1019900000F0E4B8B61F927E336D4CB9DA82083C91
:1019A000A0AA2ABE490E494683F9223F0000004BF7
:1019B0000000C93F00A0FD390020A2331A61342C79
:1019C000B93AB2BACA9F2A3DDDFFFFBE00B510EE9C
:1019D000101A2DED028B81B0524A6846B2EB410FCE
:1019E0002ED94FF0E640B0EB410F94BF00204FF0EE
:1019F000FF3000900098B0EE408A00286ADB10F0BB
:101A0000010F4BD068EE080A9FED471A9FED470A79
:101A100000EE810A9FED461A10F0020F00EE801AC8
:101A2000B7EE000A00EE810A02BF01B0BDEC028BE6
:101A300000BD00BF01B0B1EE400ABDEC028B00BD9D
:101A40003C4B21F00042934241D911F0004FDFEDB1
:101A50003A0A20EE201ADFED390A19BF31EE601A7A
:101A600071EE200A31EE201A71EE600ABDEEE01A26
:101A700011EE100A9FED321A00F0030000EEC10AC9
:101A80009FED301A009000EEC10A9FED2F1A00EE74
:101A9000C10A9FED2E1A00EEC10AABE728EE080A34
:101AA0009FED2B1ADFED2B0A10F0020F40EE010A1A
:101AB0009FED291A00EE201A61EE000AB0EE480AE6
:101AC00008EE200AB6D101B0BDEC028B00BD00F0DB
:101AD0005BF88FE718EE100A4000B0F17F4F0DD28F
:101AE00018EE100AFFF760FD042808BF00F044F864
:101AF000B0EE480A01B0BDEC028B00BD09D1012057
:101B000000F0ECF801B0BDEC028B5DF804EB00F0E6
:101B10002BB801B0B0EE480ABDEC028B5DF804EBC7
:101B200000F01CB8B61F927EB93AB2BACA9F2A3DDD
:101B3000DDFFFFBE490E494683F9223F0000004BFE
:101B40000000C93F00A0FD390020A2331A61342CE7
:101B5000336D4CB9DA82083CA0AA2ABE30EE000AE6
:101B6000704730EE200A7047DFED020A80EEA00ACF
:101B700070470000000000009FED020A20EE000AFE
:101B800070470000000000102DE9F0014FF07F4287
:101B9000B2EB410F9FBF4FF0FF310160BDE8F00194
:101BA00070474FF0004242EA0123C1F3C752783A2E
:101BB000551112F01F0C434CCCF120067C44C1F3AC
:101BC000C752A2F178024FEA621204EB820254F883
:101BD000254008BFD2E9015612D0556804FA0CF42A
:101BE00025FA06F73C43976805FA0CF527FA06F83C
:101BF000D26807FA0CFCF24045EA08054CEA0206F6
:101C0000A4FB034CA5FB0352A6FB03631D449D42AA
:101C100034BF012600261319334416B1934202D96A
:101C200003E0934201D2012200E00022624402F16B
:101C3000200C9206DC0C42EA443200EE102A5B03D0
:101C4000DFED210AF8EEC01A00EE103A4FEA9C1CB4
:101C500011F0004FB8EE400AC0F800C020EE201A84
:101C600000EE105ADFED190AB8EE400A20EE200A05
:101C700071EE810A70EE800A10EE902A02F5006281
:101C80006FF30B0200EE902A70EEE11A31EEC11AEA
:101C9000DFED101A30EE411A9FED0D0A20EE800A9A
:101CA00001EE210A9FED0C1A00EE810A04BFBDE887
:101CB000F0017047CCF180510160BDE8F001B1EE58
:101CC000400A704728010000000000360000802C08
:101CD00022AAFD29DB0FC92F0000C92F0149086086
:101CE0007047000000000020000000006E83F9A291
:101CF0002915444ED15727FCC0DD34F5999562DB98
:101D00004190433CAB6351FE000000680000006856
:101D10000000006000010C0800000068000000687E
:101D20000000007000010908000000680000006861
:101D300000000008000102080000006800000068C0
:101D400058000000000101080000002000000020F1
:101D50000000006000010C030000002000000020D3
:101D600000000070000109030000002000000020B6
:101D7000000000080000020300000020080000200E
:101D8000580000000000010307000000941D00003F
:101D9000000000000400000002000000000001003C
:101DA0000801000000000100000300000000010421
:101DB0000B050000000001040C05000040000105B7
:101DC00006070000400001050707000004000000AE
:101DD000281F000008000000081D0000020000008D
:101DE000181F000098010000990100009A010000EE
:101DF0009B0100009301000094010000010002001B
:101E00000800100020000000040000000200000094
:101E100000000000000000000C00000000000000B6
:101E20000C000000010000000C0000000200000097
:101E30000C00000003000000000000000000000093
:101E400000000000000000004C1E00000000000028
:101E50000100000000000000040000200F0000004E
:101E6000FFFF000000000000000000000000000074
:101E7000FFFF000000000000000000080000000854
:101E800000800000008000000000000090A1000120
:101E900010A2000110A2000190A2000190A2000176
:101EA00090A10001C0A1000140A2000140A20001D8
:101EB000C0A20001C0A20001C0A1000110A1000148
:101EC00010A1000104A1000100A1000180A10001F6
:101ED00004A2000100A2000184A2000180A200016E
:101EE00080A10001E0A1000160A2000160A2000148
:101EF000E0A1000100000068000000680000007020
:101F00000000007000000060000000600020002061
:101F10000020002000000020000000680000006891
:101F20002000002020000020000000680000006861
:101F300000010008000000680000006800010008BF
:101F40002000002020000020000000033C040020AE
:101F5000DC0500200000000300000106362E312EB3
:101F600030004275696C7420776974682052656E20
:101F70006573617320416476616E63656420466CAD
:101F8000657869626C6520536F667477617265204D
:101F90005061636B6167652076657273696F6E204F
:081FA000362E312E3000000046
:020000040100F9
:04A10000FFFFFFFF5F
:020000040100F9
:04A20000FFFDFFFF60
:020000040100F9
:04A28000F8F8FFFFEC
:0400000500000B45A7
:00000001FF
