:020000040000FA
:10000000200400206D0A0000D1040000B5020000A9
:10001000B5020000B5020000B5020000B502000004
:10002000000000000000000000000000B502000019
:10003000B502000000000000B5020000B50200009B
:100040003311000005120000BB110000C9100000B0
:08005000000000004000350033
:020000040000FA
:1000580040EA01039B0703D009E008C9121F08C042
:10006800042AFAD203E011F8013B00F8013B521EC2
:10007800F9D27047D2B201E000F8012B491EFBD239
:1000880070470022F6E710B513460A46044619469B
:10009800FFF7F0FF204610BD48B3F0B581B00E461B
:1000A80011B39FED130A9FED131A1446054600205D
:1000B800314600BFB1EC012A2A180830202822EE68
:1000C800003A82ED0C2A83EE013A82ED0B3AF1D127
:1000D800002700BFB6EC010AF9B22846224600F014
:1000E8006FF80137042FF5D101B0BDE8F040704733
:1000F800DA0F49400000344300284BD02DE9F0477F
:100108002DED048B05468846C5ED071A1C3005F110
:10011800200181EC030A00F0DFF8012836D141F212
:1001280070749FED1D8A9FED1D9A41F2807905F14B
:1001380030060027C0F20004C0F2000940F26B3A12
:10014800B4EC011A96ED000A39F81700013730EEC1
:10015800410A01EE100A20EE080AB8EE411A80EEB4
:10016800090AF9B22846434630EE010ABDEEC00A34
:1001780010EE102A524528BF52467D2A98BF7D228C
:1001880000F09CFC0836042FDAD10120BDEC048B6A
:10019800BDE8F0870020704700803B4400007043B2
:1001A80060B110B5044600F083FC04F11C0000F0B7
:1001B8007FF8012084F84C00BDE81040704700002B
:1001C800944600284FF0000242D0032940D880B559
:1001D8009FED201A9FED202A20EE011A41F270733C
:1001E80081EE021A00EBC102C0F2000303EB8103A7
:1001F80082ED0C0A82ED0B1A41F2807293ED001A1F
:10020800C0F2000230EE410A9FED141A32F81120B4
:1002180020EE010A9FED121A013180EE010A01EE6B
:10022800102A40F26B32B8EE411AC9B230EE010A18
:10023800BDEEC00A10EE103A934238BF1A46634624
:100248007D2A98BF7D2200F039FC0122BDE880405C
:1002580010467047DA0F49400000344300803B44A1
:1002680000007043F0B12DE9F04141F28077044677
:100278000D4600260FF23008C0F2000718F80610E5
:1002880037F8162020462B4600F018FC0136042EBD
:10029800F4D11C34204600F00BF82046BDE8F041AC
:1002A80000F01AB8704700BF0102030400BE70478F
:1002B80088B110B5044610302021FFF7E2FE002275
:1002C80000204FF08041C4F27012C4E90002C4E972
:1002D8000201BDE810407047E8B110B52DED0E8B56
:1002E80090ED020AD0ED010A20EE001A20EEA02AB5
:1002F80090ED039A32EE011A0446B1EEC18A9FEDE1
:10030800651AB4EE418AF1EE10FA06DA9FED600A3A
:10031800B0EE401A0BE00020704701F053F89FED53
:100328005E1A9FED5E2A20EE011A81EE021A9FEDF9
:100338005C2A28EE083A39EE029A002084ED040A75
:1003480029EE092A84ED051A33EE022AB1EEC2CA53
:100358009FED542AB4EE42CAF1EE10FA00F39580EC
:100368009FED510AB4EE40CAF1EE10FAC0F28D804A
:100378002CEE0CDA9FED4D0A9FED4D1A3DEE000A6A
:10038800B7EE002A80EE010AB0EEC01AB4EE421AA7
:10039800F1EE10FA79DC00F089FF9FED3FBAB0EE7C
:1003A80040AA20EE0B0A9FED3DEAF0EE480A80EEE7
:1003B8000E0A84ED08AA84ED090AB0EE490A01F094
:1003C80001F89FED3C1A9FED3C2A3DEE011A9FED86
:1003D8003B3A31EE021A2CEE032AB0EE408A81EE47
:1003E800021AB0EE410A00F061FF94ED001A38EEEF
:1003F800403A21EE0E1A94ED055A81EE0B1AB0EE32
:10040800C55A84ED063A31EE430A30EE4A4A23EEE5
:100418000B0A24EE0B1A80EE0E2A81EE0E0A9FEDCF
:10042800281A84ED0A4AB4EE415AF1EE10FA84ED26
:10043800072A84ED0B0A01DD002026E0B5EE402AEC
:100448000020F1EE10FA20DBB4EE4B2AF1EE10FAA0
:100458001BDC94ED092A0021B0EEC22A0022B4EE7A
:10046800412A9FED182AF1EE10FAD8BF0121B4EE07
:10047800420AF1EE10FAA8BF0122B4EE410AF1EEE9
:1004880010FAD8BF012008401040BDEC0E8B10BDFB
:10049800000000006F12833A00003443DA0F49402D
:1004A800C3F538C0B81E1442295C8141B2FE3BC373
:1004B8006CA739C3DF91D942846B9EC248E1A6413B
:1004C8000000B4420000B4C22DE9F04146F2201801
:1004D800C4F20008B8F80000B8F8201040F29045BF
:1004E80001EA0006B7B20024C2F2000527FA04F0B8
:1004F800C00704D055F8241009B1204688470134B4
:10050800102CF3D1A8F81060BDE8F081B0B543F223
:100518002404C4F208040025C8200121257100F034
:1005280082F8257020780028FCD1207840F002005D
:10053800207000BF20788007FCD4002004F8020C4B
:1005480014F8020C0028FBD1002004F11C0100BFA4
:1005580011F8102002F07F0201F8102011F9102084
:10056800002AFBD401300328F2D1012000F00BF857
:100578004EF2BB420021C4F2010201201170BDE815
:10058800B04000F027B880B50122EFF3108182F364
:10059800108840F2D842C2F2000232F810308BB90B
:1005A8004EF2FE3C41F2DC73C4F2010CC0F20003CF
:1005B800BCF800E033F8103043EA0E0343F4254357
:1005C800ACF8003032F81030013322F8103081F3E3
:1005D800108880BD0122EFF3108182F3108840F269
:1005E800D842C2F2000232F8103023B132F810308B
:1005F800013B22F8103032F810208AB94EF2FE3C46
:10060800C4F2010C41F2DC72BCF80030C0F2000206
:1006180032F8100043F4254222EA0000ACF800004A
:1006280081F31088704740F23C42C2F2000212681F
:1006380001FB00F041F20021C0F27A018A420FD397
:1006480040F6FF01C0F23D0111444DF68362C4F249
:100658001B32A1FB0212110DA0FB0101E9B11FE041
:100668004CF60021C3F69A3148F63813C0F241031C
:10067800B1FBF2F1984207D24FF47A7200FB02F014
:10068800B0FBF1F0800808E08900B0FBF1F0984277
:1006980006D24FF47A7100FB01F028B100F0A9BB33
:1006A8004FF0FF3000F0A5BB70477047022818BF15
:1006B800704740F2D04041F28871C2F20000C0F2A7
:1006C8000001AFF3008080B545F25422C5F24F0215
:1006D8000260084600F074FC002080BD0A780123FF
:1006E800934013F0060F05D00B6CDB681B781B07D3
:1006F80000F1E0802DE9F04748F20003C4F211034D
:1007080043EA0222D1E90E364FF0000843628378AB
:10071800C66223F003035E1C86704E68026280F88E
:100728000080C161C0F8288016B943F002038370C5
:10073800CF6A4EF2001C07F01F034FF0010ECEF2F5
:10074800000C0EFA03F30CF180047E0991F828508E
:1007580044F82630BFF34F8F46F2003AC4F2000A3D
:10076800BFF36F8F5AF827602A0126F480364AF8BB
:1007780027600CF540755AF82760EA554A6940F237
:10078800185902F01F06C2F200090EFA06F65309BC
:1007980049F827000F7C44F82360BFF34F8FBFF35D
:1007A8006F8F5AF822303E0123F480334AF8223002
:1007B8005AF82230AE5449F82200CA690B7E02F07A
:1007C8001F060EFA06F6570944F82760BFF34F8F45
:1007D800BFF36F8F5AF822601B0126F480364AF85F
:1007E80022605AF82260AB5449F822004A6A91F80C
:1007F800203002F01F060EFA06F6570944F8276063
:10080800BFF34F8FBFF36F8F5AF822401B0124F4B8
:1008180080344AF822405AF82240AB5449F8220062
:10082800EFF310828EF3108844F204050B78C4F2BB
:1008380008054FF000442E6824FA03F326EA030360
:100848002B602B6882F31088026A82F80280026AA1
:1008580082F80480026A82F80980026A82F80A80B3
:10086800026A82F80B80026AA2F81A800A780EFAE5
:1008780002F340F2F932134202D0036A4024DC74D6
:10088800036A06241C770B780EFA03F3134203D08D
:10089800026A4FF478439382D1E90163CA684FEA48
:1008A800C20242EA03123EB1032E08BF42F04002E0
:1008B800F22602E00322ADE0E226036A02271A705C
:1008C800026A002596710A6C936907EA4307082BA8
:1008D800036A08BF0A275F73066AD2E901373572CF
:1008E8001668DB0126F00106022EDEB267F3451614
:1008F8000AD1036AFF275F701268022A026A08BFDA
:1009080046F01006D67117E0036ADE71D268036AF2
:1009180097785F7057781E7807F0030706F0FC0693
:1009280037441F70D7789F74DF79127807F0A307D0
:1009380002F05C023A44DA710022C369C0E903227A
:10094800C0E90522D1F840E05B699EF800105AF82A
:10095800234003F01F0524F480344AF823405AF852
:100968002340012404FA05F60CF5C0755B09BFF3B2
:100978005F8F45F823604CF82360C369DB6A5AF837
:10098800236026F480364AF823605AF8236003F07F
:100998001F0604FA06F65B09BFF35F8F45F823606C
:1009A8004CF82360C369DB695AF8236026F4803663
:1009B8004AF823605AF8236003F01F0604FA06F683
:1009C8005B09BFF35F8F45F823604CF82360C36968
:1009D8005B6A5AF8236026F480364AF823605AF88E
:1009E800236003F01F06B4405B09BFF35F8F45F82F
:1009F80023404CF823401C23076A63F39F01B97016
:100A0800DEF8141044F65513C5F24333C0E901313A
:100A1800BDE8F0471046704780B5D0F820E09EF852
:100A280002C00CF07B038EF80230837803F00303D6
:100A3800A2EB030C0B44026AC0E9033C937843F031
:100A480080039370827802F00302022A05D1098894
:100A5800006A41F47E41C18102E00978006AC170F0
:100A6800002080BD00F060F800F0A4FAFEE710B5A1
:100A780084B00178C4788DF80010B0F801100279BC
:100A8800032CADF801108DF803408DF8042005D330
:100A98006B46A21E411D581DFFF7DAFA40F2E840E6
:100AA800E21CC2F200006946FFF7B6FF04B010BDB1
:100AB80080B51A21FFF7E5FA80BD0000B2F57A7F0C
:100AC80028BF4FF47A724271120A45F2555C82715E
:100AD8001A0AA0F800C0817040F2071C027208319F
:100AE8000522A0F803C0C371835C0132092A1944A6
:100AF800FAD1C9434172FFF7BABF4EF22000C4F2DF
:100B080001008179006840F22042C2F20002C0F37D
:100B1800026052F8211021FA00F040F23C41C2F282
:100B2800000108607047000010B54EF60850CEF27C
:100B380000004FF47001C0F8801040F20001C0F2CC
:100B48000001016000200024FFF7B0FD00F06CF800
:100B58000120FFF7ABFD40F22000C2F2000080F355
:100B68000A88002000F032F8FFF7C7FFFFF7CEFC35
:100B78000320FFF708FD40F61050C4F208004FF6B6
:100B8800FF7100BF20F8141001340C2CFAD1032097
:100B9800FFF720FD0320FFF7F6FC0420C4F20E0047
:100BA8000021016041608160C1600320FFF712FDF0
:100BB8000220FFF77BFD012000F008F800F0D4F8D0
:100BC8000020BDE8104000F0CDB80000F0B581B0BD
:100BD80041F2B475C0F200052E68044676B1686823
:100BE800071D00BF7879A04204D157E90101091A0D
:100BF800FFF747FA013E07F10C07F3D1AE6886B15B
:100C0800E86800F1080500BF6879A04205D155E9F8
:100C180002022968121AFFF71BFA013E05F11005B6
:100C2800F2D101B0F0BD00002DE9F0414EF2FE34E2
:100C3800C4F201044AF203504CF200152080C4F2B9
:100C480001050120A88000BFA8880028FCD147F230
:100C580000010120C4F2000128808860086040F289
:100C6800204642F6005041F20022C2F20006C0F2CD
:100C78003110C0F27A02C6E9000243F200604FF474
:100C88000041C0F26E10C6E902104CF20020C0F616
:100C9800EB304EF220073161C4F201077061B87978
:100CA800396856F82000C1F3026140F23C48C84058
:100CB800C2F20008C8F8000000206075092087F813
:100CC800820094F8820018B994F88300800744D011
:100CD80094F8820050B9012084F88200C8200121CC
:100CE800FFF7A1FC94F882000128FBD1002084F8CA
:100CF800830084F882000020B87400BF387F0007A2
:100D0800FCD543F2021038810020B872387F800683
:100D1800FCD50320287741F22120C2F20100386077
:100D28000520B871B879396856F82000C1F3026116
:100D3800F022C840C8F8000042F20800C4F20000DF
:100D4800F12101710121017002714FF425403974BC
:100D580087F832102080BDE8F0814FF47A70FFF7F1
:100D6800A4FCC8E77047000070B584B048F2480694
:100D78000320C4F20006FFF706FC6FF0FF0041F203
:100D8800CC7430604FF0FF300021C0F20004012223
:100D9800CDE9020054F8213002FA01F5002B18BF02
:100DA800A84301310429F5D14EF280320190002088
:100DB80001A9CEF2000200BF51F8203006EB8005F1
:100DC800AB6242F8203001300328F5D10320FFF749
:100DD80001FC46F200310020C4F2000154F8202042
:100DE8000AB141F820200130042804BF04B070BDC6
:100DF800F4E701380028FCD1704700002DE9F04FD6
:100E080081B00446008800285AD043F240084EF2C8
:100E1800BB4B0025C4F208080FF2AC0AC4F2010B60
:100E28004FF00109002700BF60685AF8272000EB3F
:100E3800C500416891423CD100689BF8001000F061
:100E4800B85009FA07F6B0F1807F06EA010015D11B
:100E580050B90120FFF797FB9BF8000030438BF84F
:100E680000000120FFF7B6FB18F91700002820D46E
:100E780018F8170040F0800015E000BF50B10120BD
:100E8800FFF781FB9BF80000B0438BF800000120BE
:100E9800FFF7A0FB18F91700B0F1FF3F09DC18F8BD
:100EA800170000F07F0008F81700C8200121FFF79D
:100EB800BAFB0137032FB7D1208801358542B1D35A
:100EC80001B0BDE8F08F00BF020400000304000079
:100ED8000404000084B040F2E84041F2E871C2F234
:100EE8000000C0F20001FFF7F9FB40F24044C2F2F3
:100EF80000042046FFF754F964204FF47A71FFF795
:100F080092FB20464FF4FA61FFF7ACF940F6C410A3
:100F18004FF47A71FFF787FBDFED201AB3EE040A6E
:100F28002046F1EE040AB2EE041A4FF4FA61FFF714
:100F3800E3F8012805D140F6C4104FF47A71FFF7A1
:100F480072FB174840F24044009015A0D0E9011206
:100F5800C068C2F200040390CDE901126946204638
:100F68004FF4FA62FFF798F840F6C4104FF47A711C
:100F7800FFF759FB9FED0E0A204600214FF47A72C5
:100F8800FFF71EF940F2DC504FF47A71FFF74BFB84
:100F980064204FF47A71FFF746FBF9E70000000080
:100FA8000000F04100007042000034420000F0C12F
:100FB8000000344280B5FFF78DFF002080BD00009F
:100FC80070B50446FFF71AFF40F2E44CEFF31080C7
:100FD800012181F31088C2F2000CDCF8001039B945
:100FE80040F60351C4F2080100220A7040220A7038
:100FF800DCF800100131CCF8001080F3108820884C
:1010080018B340F6000E0021C4F2080E606800EB29
:10101800C10250F831305268DD034FEA1220D2B2D3
:101028000BD50EEB801555F8226026F4803645F86E
:10103800226023F4803645F822600EEB80100131DF
:1010480040F8223020888142E0D30120EFF310815C
:1010580080F31088DCF8000020B1DCF800000138CB
:10106800CCF80000DCF8000038B940F60350C4F2B0
:101078000800002202708022027081F3108870BD7F
:10108800B0B584B00446806A40B1D0E900CED0E95A
:101098000253CDE900CECDE9025300E06846E3698A
:1010A800D4F824C01B78E56AC0E90032C0E902150B
:1010B800E047A06A10B19DE82E002EC004B0B0BD74
:1010C800B0B5EFF303806FF35F20A0F1100540F295
:1010D8001850C2F2000050F825008178036A01F028
:1010E8000301022912BF5979198A6FF35F211A790E
:1010F800D40602F0380203D51C7FE40708BF40324B
:101108001C7904F0C7041C71436A0BB1FFF7B8FFE0
:1011180046F20030C4F2000050F8251021F4803166
:1011280040F8251050F82500B0BD10B582B0EFF397
:10113800038040F2FC7101EA800046F2C021C4F24B
:101148000001425822F48032425040F21852C2F252
:1011580000024158104450F8404CA07800F00302B7
:10116800206A022A12BF4179018A6FF35F21A069C0
:10117800019198B1606901A9FEF76AFFA0786169D9
:10118800A26900F003000144101A6161A0610ED148
:10119800606A60B120460021012203E0606A30B134
:1011A8002046042202B0BDE81040FFF769BF02B034
:1011B80010BD10B5EFF303806FF35F20A0F11004AA
:1011C80040F21850C2F2000050F82400016A8A78F0
:1011D80002F07B028A70416A19B100210222FFF7EE
:1011E8004FFF46F20030C4F2000050F8241021F4FA
:1011F800803140F8241050F8240010BDEFF303802C
:1012080040F2FC7101EA800046F2C021C4F20001FC
:10121800425822F48032425040F21852C2F2000280
:101228004158104450F8400CC1694A6B0169C2B971
:10123800C1B1817801F00302C168022A05D1098889
:10124800026A41F47E41D18102E00978026AD170D4
:101258008178026901F00303D11AC26801611A4456
:10126800C26071B9016A8A7802F07B0204328A701E
:10127800416A00294FF00001C1601CBF8022FFF7BE
:10128800FFBE70474100080218BF04200A0E18BFAD
:1012980040F001004FF07F4232EA010108BF40F000
:1012A8000200012808BF05207047000010B510EEA5
:1012B800104A4FF01A402DED028B00EB4400B0F1BC
:1012C800C85F4AD84FF0FC40B0EB440F22D2B0EED2
:1012D800C00AF7EE000A30EEC00AF6EE000A20EE69
:1012E800208A18EE100A00F0DFF900EE100A14F058
:1012F800004F1DBF9FED281ADFED280AB1EE400A06
:101308009FED271A08BFF0EE410AF8EE001A20EE0A
:10131800210A05E020EE008A9FED221ADFED220A5D
:10132800DFED221A9FED222A70EEC00A20EE080A8D
:1013380008EE212ADFED1F1A48EE021A9FED1E2A39
:1013480008EE212ADFED1D1A48EE021ABDEC028BC9
:1013580040EE610A30EE810A10BD4FF0CC40B0EB90
:10136800440F82BF9FED160ABDEC028B10BD4FF0F3
:101378007F40B0EB440F05D2BDEC028BBDE81040B6
:1013880000F076B9012000F089F9BDEC028BBDE8C8
:10139800104000F073B900000000494022AA7D3ACD
:1013A800000000000000C93F22AAFD3924FE1C3DB0
:1013B800C78AD83C1E67383D1B93993DAFAA2A3E81
:1013C800DB0FC93F70B54FF068422DED048BF0EE8E
:1013D800408A18EE900AB0EE608A18EE101A02EBF6
:1013E8004003B3F1654F3CBF02EB4102B2F1654FD8
:1013F8007DD200BFC0F3C753C1F3C7529A1A1B2A44
:1014080009DD10F0004F14BF9FED830A9FED830A9A
:10141800BDEC048B70BD12F11A0F36DA11F0004FD3
:1014280009D010F0004F0CBF9FED7D0A9FED7D0A9B
:10143800BDEC048B70BD88EE889A19EE100AFFF790
:1014480021FF042808BF00F021F918EE900AFFF7E1
:1014580019FF054618EE100AFFF714FF044619EEA7
:10146800100AFFF70FFF042D18BF052D08D1042C13
:1014780018BF052C04D1002804BF022000F00EF983
:10148800B0EE490ABDEC048B70BD4200B2EB410FCF
:101498003AD910F0004F19BFDFED630A9FED630AD8
:1014A800DFED630A9FED630AB0EE481A0A46B1EE13
:1014B800688A80F00041F0EE418A10460A1A52000C
:1014C800B2F1807F34D2484010F0004FDFED5A1A55
:1014D8009FED5A2A1DBFBEEE001A70EEE10A30EEEB
:1014E800420AB6EE001A08BF70EEA10A00E040E01A
:1014F80008BF30EE020AB0EE682A01EE482A08EE6C
:10150800818AC2EE081A15E011F0004F04BF9FED62
:101518004C0AF0EE400AD1D010F0004F19BFDFEDB1
:10152800490A9FED490ADFED490A9FED490AC5E7D7
:10153800C8EE881A21EEA11A9FED462ADFED462A49
:1015480041EE022A9FED452A01EE222ADFED442AC8
:1015580041EE022A9FED432ABDEC048B01EE222ABC
:1015680021EE811A01EE020A30EE210A30EE200A3D
:1015780070BD4FF07F42B2EB400F28BFB2EB410F76
:1015880009D2F0EE480AB0EE680ABDEC048BBDE85B
:10159800704000F070B840EA01035B0008BF41F0FA
:1015A800FF410BD0B2EB400F08BFB2EB410F08D19F
:1015B80020F0804008EE900A21F0804108EE101AD1
:1015C80018E7B2EB400F12BF5FEA410340F0FF405B
:1015D80001F000413FF40EAFB2EB410F12BF5FEADA
:1015E800400200F0004041F0FF413FF403AF4A00E1
:1015F80092EA40033FF5FEAE002AACBF9FED1A0AFF
:101608009FED1A0A68EE808A28EE008A18EE900A82
:1016180018EE101AEEE60000DB0FC9BFDB0FC93F5A
:10162800DB0F4940DB0F49C00000C9BF22AAFDB942
:101638000000C93F22AAFD390060ED3EC30ACE373B
:1016480000000000000049C022AA7DBA00004940FD
:1016580022AA7D3A2DAD65BD8FB8D53D0FB511BE17
:1016680061C84C3EA8AAAABE0000804F0000802F87
:1016780030EE000A704730EE200A7047DFED020AAC
:1016880080EEA00A70470000000000009FED020AEB
:1016980020EE000A704700000000001001490860B1
:1016A800704700000000002010B500EE100A2DED74
:1016B800028BB1EEC08A18EE100A20F00040C0F18B
:1016C800FF40C00F0AD010EE100A20F00040C0F111
:1016D800FF40C00F04BF0120FFF7E0FF18EE100A1B
:1016E800BDEC028B10BD000000000068000000681F
:1016F8000000006000010C0800000068000000689D
:10170800000000700001090800000068000000687F
:1017180000000008000102080000006800000068DE
:101728005000000000010108000000200000002017
:101738000000006000010C030000002000000020F1
:1017480000000070000109030000002000000020D4
:10175800000000080000020300000020080000202C
:101768005000000000000103000000000000B44227
:101778000000000000000000E200F401B100810058
:1017880004000000941700000000000000000100A1
:10179800080100000000010000030000000001042F
:1017A800010300000000010402030000040000001F
:1017B8000819000008000000F016000002000000F0
:1017C800F81800008C0100008D0100008E01000057
:1017D8008F01000001000200080010002000000036
:1017E80002000000020000000000000000000000ED
:1017F8000C000000000000000C00000001000000C8
:101808000C000000020000000C00000003000000B3
:1018180000000000000000000000000000000000C0
:101828002C1800000000000001000000000000006B
:10183800040000200F000000FFFF0000000000006F
:101848000000000000000000FFFF00000000000092
:101858000000000800000008008000000080000070
:101868000000000090A1000110A2000110A20001D8
:1018780090A2000190A2000190A10001C0A1000166
:1018880040A2000140A20001C0A20001C0A20001C4
:10189800C0A1000110A1000110A1000104A10001D4
:1018A80000A1000180A1000104A2000100A2000122
:1018B80084A2000180A2000180A10001E0A1000132
:1018C80060A2000160A20001E0A100010000006820
:1018D8000000006800000070000000700000006058
:1018E80000000060002000200020002000000020F0
:1018F8000000006800000068200000202000002090
:10190800000000680000006800010008000000688E
:1019180000000068000100082000002020000020CE
:10192800000000033C0400202805002000000003FC
:1019380000000106362E312E30004275696C742085
:10194800776974682052656E6573617320416476A7
:10195800616E63656420466C657869626C652053C6
:101968006F667477617265205061636B616765208B
:1019780076657273696F6E20362E312E3000000046
:020000040100F9
:04A10000FFFFFFFF5F
:020000040100F9
:04A20000FFFDFFFF60
:020000040100F9
:04A28000F8F8FFFFEC
:0400000500000A6D80
:00000001FF
