:020000040000FA
:10000000200400202D190000ED1200009B100000BC
:100010009B1000009B1000009B1000009B10000034
:100020000000000000000000000000009B10000025
:100030009B100000000000009B1000009B100000BF
:10004000D3250000A52600005B26000069250000DE
:100050004124000025230000D3250000A526000030
:100060005B2600006925000000000000400035000C
:040070004001A100AA
:020000040000FA
:1000740040EA01039B0703D009E008C9121F08C026
:10008400042AFAD203E011F8013B00F8013B521EA6
:10009400F9D27047D2B201E000F8012B491EFBD21D
:1000A40070470022F6E710B513460A46044619467F
:1000B400FFF7F0FF204610BD421C10F8011B002979
:1000C400FBD1801A704730B504460020034600E097
:1000D4005B1C934203D2E05CCD5C401BF8D030BD86
:1000E4002DE9F04791460F4680460446002614F851
:1000F400015B2DB100F086F80068405DC007F6D1C1
:100104002B2D02D02D2D18D0641E4A463946204688
:1001140000F085F827B13968A14201D1C7F8008001
:1001240071054FF002040BD54042002803DD02F0B4
:1001340029FB0460A007BDE8F08746F48066E4E785
:100144000028F8DA02F01EFB04606FF00040F2E7CA
:1001540000F0004230F000400AD0C10D01F560719A
:10016400C0F3160042EA0151C20840071143704728
:1001740000200146704730B50B460146002020227E
:10018400012409E021FA02F59D4205D303FA02F5A0
:10019400491B04FA02F52844151EA2F10102F1DC00
:1001A40030BD2DE9F05F0546002092469B46884607
:1001B4000646814640241BE02846414647462246DF
:1001C40000F047FA53465A46C01A914110D31146DB
:1001D4001846224600F02EFA2D1A67EB01084F4606
:1001E40022460120002100F025FA17EB00094E41B8
:1001F400201EA4F10104DFDC484631462A4643466A
:10020400BDE8F09F004870474438000010B504462C
:10021400FFF7F8FF0068005D00F0010010BD2DE954
:10022400F05F82460078002715468B460AF10104E8
:10023400B946302801D09DB113E014F8010B012711
:10024400782803D0582801D045B10AE00DB1102D0B
:1002540007D10027102514F8010B02E0082500E05F
:100264000A250026B0460EE005FB080005FB06F152
:10027400012701EB10461FFA80F8B6F5803F00D342
:10028400B94614F8010B294600F005FA0028EBDA08
:10029400BBF1000F05D00FB1641E00E05446CBF84B
:1002A4000040B9F1000F06D002F06CFA022101609F
:1002B400C81EBDE8F09F48EA0640FAE70023036041
:1002C40000F017BA2DE9FE4F804681EA0300C00F03
:1002D4000C46009021F0004123F00045B8EB0200E9
:1002E400A94105D24046214690461C460B4602468B
:1002F40023F00040104347D0270DC7F30A00C3F38F
:100304000A510290401A019040286BDAC3F313009B
:1003140040F4801B0098924620B10023D2EB030ADC
:1003240063EB0B0B01985946C0F14002504600F0B4
:1003340081F906460D4650465946019A00F099F94E
:1003440010EB08006141002487EA115284EAE77344
:100354001A4340D0009A62B3019A012A4FEA075225
:1003640015DC001B61EB02014FF0004202EA075268
:10037400CDE90042001C41F5801132462B4600F0C5
:10038400FCF903B0BDE8F08F40462146F9E7001BB5
:1003940061EB0201001C41F5801300185B41201839
:1003A400A2F5001747EB030140EAD570B6196D4179
:1003B40011E06D084FEA360645EAC0754FEA075268
:1003C400001B61EB0201001C41F5801149084FEA52
:1003D40030000019514132462B4603B0BDE8F04FBE
:1003E40000F0BCB90098012240000023D0EB0202C7
:1003F40063EBE073009821464FEAE074B8EB000029
:1004040061EB0401E9E783F000435BE781F000411D
:1004140058E72DE9FE4F81EA030404F0004421F07B
:10042400004100944FF0000B23F0004350EA010414
:100434005ED052EA03045BD0C3F30A54C1F30A55F5
:100444002C44A4F2F3340194A0FB0254C1F313012D
:1004540041F48011C3F3130343F4801301FB0244FA
:1004640000FB034E840A970A44EA815447EA8357FF
:10047400A4FB076802958D0A05FB07854FEA932CB8
:1004840004FB0C542705029D4FEA065847EA163729
:10049400B5EB08056EEB070C870E920E47EA811741
:1004A40042EA8312A7FB0201B6EB0B0164EB0004E2
:1004B4002B0D43EA0C335E1844EB1C50DA465146CC
:1004C400E7FB0201C5F313044FEA0B3343EA145369
:1004D4004FEA0432019C43EA0603A4F10C0402949B
:1004E400009CCDE900B400F048F903B0BDE8F08FFA
:1004F40000200146F9E72DE9F04D81EA030404F0F8
:10050400004B21F0004514464FF0000A23F000414F
:1005140050EA050220D054EA01021DD0C5F30A575F
:100524000246C5F31303C1F31300C1F30A5640F4A2
:10053400801543F48013A7EB0608101BD64608F277
:10054400FD3873EB050002D308F1010801E09218AD
:100554005B41B8F1000F03DA00200146BDE8F08DDD
:1005640000204FF48011064684460EE0171B73EBFF
:10057400050705D3121B63EB050306434CEA010C84
:1005840049084FEA300092185B4150EA0107EDD167
:1005940052EA030012D082EA040083EA0501084308
:1005A40005D0101BAB4106D20122002306E0002235
:1005B4004FF0004302E06FF0010253101AEB060003
:1005C4004CEB085110EB0A0041EB0B01BDE8F04D78
:1005D40000F0C4B8C1F30A52C1F3130140F2FF336F
:1005E40041F480119A4202DA00200146704740F239
:1005F40033439A42A2F2334202DC524200F029B859
:1006040000F018B830B5041E71F1000404DB4FF09B
:100614000044404264EB0101141E73F1000405DB45
:100624001C464FF00043524263EB0403994208BF57
:10063400904230BD202A04DB203A00FA02F1002067
:1006440070479140C2F1200320FA03F3194390400C
:100654007047202A04DB203A21FA02F00021704777
:1006640021FA02F3D040C2F1200291400843194616
:100674007047202A06DBCB17203A41FA02F043EAFE
:10068400E07306E041FA02F3D040C2F12002914047
:100694000843194670473A2800D2303820F0200227
:1006A400412A01D3A2F13700884201D34FF0FF3031
:1006B400704700000FB40B0010B58AB00FA9009169
:1006C4000E994FF00004234ACC60214CCDE9064238
:1006D40000D004236FF00042CDE901321E4A089293
:1006E40002466B46002000F02BF90AB010BC5DF8FE
:1006F40014FBF0B585B007464FF0FF300091CDE90B
:1007040001011E46002015460C4604903B466A46ED
:10071400314604A8FFF7CEFF04990346601825B1BB
:1007240009B1024600E022462A6000290ED0002BBF
:1007340002DD0099814209D00094001BCDE9010437
:100744003B466A46314604A8FFF7B4FF05B0F0BD46
:100754007D0B00009B0B00001102000010B5141E5D
:1007640073F1000408DA401C41F1000192185B4166
:100774001A4301D120F0010010BD2DE9F04D92463D
:100784009B4611B1B1FA81F202E0B0FA80F2203254
:100794009046FFF74FFF04460F4640EA0A0041EA3D
:1007A4000B0153465A46084313D0114653EA01003D
:1007B40019D0C8F140025046FFF74BFF05460E46DC
:1007C400504659464246FFF735FF084305D00120FD
:1007D40004E020463946BDE8F08D0020054346EA92
:1007E400E0762C4337430A986305E40AA0EB08003B
:1007F4000022FD0A44EA47540A3002D5002001468B
:10080400E9E7010510196941DDE908450019694165
:10081400BDE8F04DA2E700002DE9FF4F087883B052
:100824009946FF2805D0491C2D2804D00024002017
:1008340008E000200BE00124F9E700EB800003EB63
:100844004000491C0B78FF2BF7D104B14042002330
:100854000293147819461D462D2C01D02B2C04D15B
:10086400521C2D2C13D000240294AA461478FF2C79
:100874000FD00A25A3FB057801FB05814FF0000C7E
:1008840003FB0C11521CE3194AEB0101EEE70124AE
:10089400EAE7814453EA010002D019F5C87F06DA79
:1008A40003980021C0E9001107B0BDE8F08F0025CE
:1008B400AE4E2F46DFF8B882184600F07DF9CDE938
:1008C4000001B9F1000002DAC9F1000400E00446B5
:1008D4000023A74A1AEB030B42EB045A12E0E00789
:1008E40007D02A46334638464146FFF792FD07466D
:1008F40088462A46334610461946FFF78AFD0546C0
:100904000E466410002CEAD1DDE90001B9F1000FB4
:100914005A46534606DAFFF7EEFD3A464346FFF7DA
:10092400EAFD05E0FFF775FD3A464346FFF771FD22
:10093400029A0AB181F00041039AC2E90001B3E7C7
:100944002DE9FF4F1F468DB0D7E901464FF0FF3820
:100954002E2045464FF000090B90B9696D1C0E9886
:100964008847396A824688470028F6D1BAF1FF3FA2
:100974000AD024F4D064002E11DDBAF12B0F08D074
:10098400BAF12D0F0BD102E0404611B08DE744F4CB
:100994008064B9696D1C0E9888478246761E694644
:1009A400600501D52D2000E02B208DF8000001F119
:1009B400010B0DF1200809E0B9696D1C0E988847F8
:1009C40082460F9844F40074761E0560002E02DD02
:1009D400BAF1300FF0D00B998A453ED144F080042F
:1009E40006E00F99681CA9F1010944F40074086039
:1009F400B9696D1C761E0E98884782463028F0D05F
:100A04002BE00B998A4505D1200603D444F08004D9
:100A1400761E18E0504602F017FB08B30DF11302DE
:100A2400761EAAF1300044F40074934506D20BF804
:100A3400010B200607D5A9F1010003E0200602D42A
:100A440009F101008146A00502D50F99681C0860D0
:100A5400B9696D1C0E9888478246002ED1DC53E09C
:100A6400002E51DDBAF1650F02D0BAF1450F4BD11A
:100A7400A00549D5B9696D1C24F44074761E0E98FE
:100A840088478246002E0CDD2B2804D0BAF12D0FA6
:100A940007D144F48074B9696D1C0E988847824666
:100AA400761EE00501D52D2100E02B2108F8011B5D
:100AB400CDF82C8021E00DF12901761E44F4007458
:100AC40088450CD2AAF1300010F0FF0088F800002D
:100AD40002D10B99884509D908F1010806E0E0051F
:100AE40001D5244801E042F20F708146B9696D1CBA
:100AF4000E98884782460F980560002E04DD504604
:100B040002F0A2FA0028D6D1F9690E988847FF208E
:100B14008BF8000088F800000020069007904B46F0
:100B24006A4608A906A8FFF777FEA00502D46FF06D
:100B340001002AE714F0240F0AD0E00714D1DDE9FC
:100B440006123868031D3B600068C0E900120BE020
:100B5400DDE9060100F03CF80146E00704D13868FD
:100B6400021D3A600068016028460EE70000144048
:100B74000000F03FF1D8FFFF426842B1016811F86C
:100B8400013B23B1521EC0E90012184670470121EF
:100B9400C160881E704742685AB1C368016843B98E
:100BA40083688B4205D0491E521CC0E90012002004
:100BB40070474FF0FF3070470EB540F23342029257
:100BC4000022CDE900221346FFF7D7FD03B000BD94
:100BD40001F0004330B421F0004150EA010206D094
:100BE4000A0DA2F56072C1F31301002A02DC30BCC5
:100BF40000207047440F44EAC104C100E01830BC2F
:100C040000EBC250AFF300800029A8BF7047401C1E
:100C1400490008BF20F00100704710B4B0FA80FC0E
:100C240000FA0CF050EA010404BF10BC704749B14B
:100C3400CCF1200421FA04F411FA0CF118BF0121BB
:100C440021430843A3EB0C01CB1D4FEA00614FEA9B
:100C5400102042BF002010BC704700EBC35010446A
:100C64000029A4BF10BC7047401C490008BF20F0F5
:100C7400010010BC704700002DE9F0412DED048BFC
:100C8400A0B0044601A880EC030A10AE01AFB0EE98
:100C9400610AF0EE420A30463946B0EE629AB0EE8E
:100CA400618A00F043FB054640F26C50C2F200003A
:100CB4000DF11008B0EE480AF0EE490A05704046FE
:100CC400394600F033FB40F26D51C2F20001087066
:100CD40040F22C51C2F20001ADB311AF8CCF9DEDA7
:100CE400100A01F1040C8CE88C0081ED000A06F175
:100CF40014020023D758CE180833202B7761F9D17A
:100D040080B39DED041A30EE480A31EE482AB0EE65
:100D1400C00AB0EEC22AB4EE402AF1EE10FA21DA8B
:100D240005AB81ED001A0DCB01F1040C8CE80D002C
:100D340008F11400002200BF83588F180832202ABB
:100D44007B61F9D10EE000283FD004AF8DCF81E85C
:100D54008D0008F11400002283588F180832202ACD
:100D64007B61F9D1486991ED070A9FED1B1A1C902C
:100D740031EE400A486AC96A8DED1D0A9FED178A53
:100D84009FED179A40F2A05500261CAFC2F2000551
:100D9400CDE91E01B7EC010AC6F10600C1B228462E
:100DA40020EE080A234630EE090ABDEEC00A10EE12
:100DB400102A00F0A6FE1E204FF47A7100F089FB81
:100DC4000136042EE6D1012000E0002020B0BDEC65
:100DD400048BBDE8F08100BF0000B4425555854046
:100DE4000000FA4310B540F2A050C2F2000000F037
:100DF400E3FD40F22C50C2F2000000F04EF940F244
:100E04004044C2F2000420466821FFF74AF9C82092
:100E14004FF47A7100F05DFB20464FF4FA6100F064
:100E240059F8012010BD000000B3F9B19FED100A7C
:100E34009FED101A9FED102A05228C4630F81230CF
:100E4400042A03EE103AA2F10102B8EE433A33EE5B
:100E5400003A83EE013A12BF8CED003A32EE433A87
:100E640081ED013A012A0CF1040CE7D1704700BF6F
:100E74000000FAC3555585400000B44240B3B0B5F4
:100E840088B0054640F20560ADF81C0040F2012030
:100E9400C0F203400DF106040B46069006A9062095
:100EA400224600F09BFD88B1A5F1020C002200BF90
:100EB40002EB4205635D591E052904D86119B1F896
:100EC40001102CF813100132062AF1D108B0B0BD7C
:100ED40000207047D8B12DE9F04104460D460026A4
:100EE4000FF22C080CA700BF26B11E204FF47A7114
:100EF40000F0EFFA18F8061037F8162020462B46B3
:100F040000F0FFFD0136062EEED1BDE8F04170473A
:100F14000605040302010000F40198018100B100F8
:100F2400F401E20040F2FD50C2F200000078704784
:100F340010B540F24060C2F200000021017040F29E
:100F4400FD50C2F20000017040F28460C2F2000061
:100F540040F2E8440170C2F2000443F61C11C0F2EE
:100F64000001204600F017FB41F22D01C0F2000100
:100F7400204600220023BDE8104000F005BB2DE907
:100F8400F04140F2FD57C2F20007044638784FF0B2
:100F94000006C9B1C4B1C00716D040F24068C2F21D
:100FA400000898F8006020468E4228BF4E1EF5B215
:100FB40040F20061C2F200012A46FFF759F800200E
:100FC400605588F800003870F0B2BDE8F081F0B5E3
:100FD40081B038B30446FFF76FF86FF0400140F278
:100FE4008467C2F2000711FA80F2397812F1400FD7
:100FF40018D3C90716D185B240F24466C2F200067E
:10100400304621462A46FFF733F8012340F2E840F0
:10101400C2F2000031462A463B7001B0BDE8F04000
:1010240000F05CBC01B0F0BD4168042908D002297D
:1010340030D140F28460C2F2000000210170704798
:1010440040F2FD51C2F2000180680A7812BBC2B2BC
:101054000D2A1FD00A2A0DD140F24060C2F20000CE
:10106400007840F20062C2F200020023135401200F
:101074000870704740F24061C2F200010A783E2ACB
:1010840088BF70470A78531C0B7040F20061C2F2AB
:1010940000018854704700BE704788B110B50446FB
:1010A40010302021FEF7FDFF002200204FF0804188
:1010B400C4F27012C4E90002C4E90201BDE81040A0
:1010C40070470000E8B110B52DED108B90ED020AC9
:1010D400D0ED010A20EE001A20EEA02A90ED03AA1A
:1010E40032EE011A0446B1EEC19A9FED6F1AB4EEC6
:1010F400419AF1EE10FA06DA9FED6A0AB0EE40BAB0
:101104000BE00020704701F041FB9FED681A9FED52
:10111400682A20EE011A81EE02BA2AEE0A1A29EE92
:10112400092A002084ED040A32EE011A9FED612A97
:10113400B1EEC11A84ED05BAB4EE421AF1EE10FA1A
:1011440000F3AD809FED5C0AB4EE401AF1EE10FAA4
:10115400C0F2A58094ED00EA9FED55DA9FED53CAE5
:101164002EEE0D0A80EE0C8AB0EE480A01F064FC03
:101174009FED52FA9FED521A20EE0F0A3AEE01AAA1
:1011840030EE099AB0EE480A01F0FEFC20EE0F0A98
:1011940029EE091A30EE0A8A28EE080A31EE000A0E
:1011A4009FED481A30EE010A9FED471A30EE010A0E
:1011B4009FED461A80EE01AAB7EE001A2AEE0A0A3B
:1011C400F0EE4A0A31EE400AF1EEC08AB1EE680A46
:1011D40001F0DCFA20EE0C1A9FED3E2A81EE0DFAA6
:1011E4009FED3B1A9FED3C3A2AEE011A68EE830A02
:1011F40031EE021A84ED080AB0EE410A84ED09FAD0
:1012040001F0C4FAB0EE40AAB0EE490AF0EE480A82
:1012140001F0BCFA3AEE403AB0EECB5A23EE0C0A97
:1012240084ED063A80EE0D2A3EEE420A84ED072A4A
:1012340030EE4F0A20EE0D1A84ED0B0A81EE0C4AB3
:101244009FED261AB4EE415AF1EE10FA84ED0A4AE3
:1012540001DD002023E0B5EE402A0020F1EE10FA73
:101264001DDBB4EE4C2AF1EE10FA18DC9FED1C2ABB
:10127400B0EECF3AB4EE423AF1EE10FA0FDC9FED45
:10128400192A0021B4EE420AF1EE10FAA8BF012196
:10129400B4EE410AF1EE10FAD8BF01200840BDECCB
:1012A400108B10BD000000006F12833A000034431D
:1012B400DA0F4940B81E1442295C81419A998DC1C4
:1012C400C3F538C0DF91D9C2846B9EC26CA7394381
:1012D40066660E4148E1264166660EC10000B442CE
:1012E400000016430000C8C22DE9F04146F2201860
:1012F400C4F20008B8F80000B8F8201040F2A8457D
:1013040001EA0006B7B20024C2F2000527FA04F08D
:10131400C00704D055F8241009B120468847013489
:10132400102CF3D1A8F81060BDE8F08110B52DEDB4
:10133400048B044600284FF0000018BF002924D075
:10134400D1E900028968B0EE409A80FE600AE1604B
:10135400C4E9010284ED000A2046B0EE608AFFF77A
:10136400B1FE40F22051C2F20001086060B989FE6A
:10137400080A204684ED000AFFF7A4FE40F2245137
:10138400C2F20001086018B10120BDEC048B10BD4D
:1013940039EE080AB6EE001A204620EE010A84ED62
:1013A400000AFFF78FFE40F22851C2F200010860E4
:1013B400002818BF0120E8E7B0B543F22404C4F2C2
:1013C40008040025C8200121257100F082F8257049
:1013D40020780028FCD1207840F00200207000BF63
:1013E40020788007FCD4002004F8020C14F8020CC6
:1013F4000028FBD1002004F11C0100BF11F81020CB
:1014040002F07F0201F8102011F91020002AFBD409
:1014140001300328F2D1012000F00BF84EF2BB4258
:101424000021C4F2010201201170BDE8B04000F0B7
:1014340027B880B50122EFF3108182F3108840F2BF
:101444005C52C2F2000232F810308BB94EF2FE3C0C
:1014540043F6CC13C4F2010CC0F20003BCF800E064
:1014640033F8103043EA0E0343F42543ACF800305C
:1014740032F81030013322F8103081F3108880BD27
:101484000122EFF3108182F3108840F25C52C2F221
:10149400000232F8103023B132F81030013B22F848
:1014A400103032F810208AB94EF2FE3CC4F2010C1E
:1014B40043F6CC12BCF80030C0F2000232F810003F
:1014C40043F4254222EA0000ACF8000081F31088BE
:1014D400704740F23C42C2F20002126801FB00F085
:1014E40041F20021C0F27A018A420FD340F6FF0193
:1014F400C0F23D0111444DF68362C4F21B32A1FBDC
:101504000212110DA0FB0101E9B11FE04CF600210C
:10151400C3F69A3148F63813C0F24103B1FBF2F135
:10152400984207D24FF47A7200FB02F0B0FBF1F05C
:10153400800808E08900B0FBF1F0984206D24FF42D
:101544007A7100FB01F028B100F07DBC4FF0FF3050
:1015540000F079BC70477047022818BF704740F20A
:10156400185043F6C801C2F20000C0F20001AFF304
:10157400008080B545F25422C5F24F02026008464D
:1015840000F0BCFD002080BD8446C0E909130020A2
:10159400CCF82C2070470A780123934013F0060FEF
:1015A40005D00B6CDB681B781B0700F1E0802DE98C
:1015B400F04748F20003C4F2110343EA0222D1E9DE
:1015C4000E364FF0000843628378C66223F00303AB
:1015D4005E1C86704E68026280F80080C161C0F8AB
:1015E400288016B943F002038370CF6A4EF2001CC0
:1015F40007F01F034FF0010ECEF2000C0EFA03F3B6
:101604000CF180047E0991F8285044F82630BFF389
:101614004F8F46F2003AC4F2000ABFF36F8F5AF8B4
:1016240027602A0126F480364AF827600CF54075B5
:101634005AF82760EA554A6940F2D45902F01F0665
:10164400C2F200090EFA06F6530949F827000F7C86
:1016540044F82360BFF34F8FBFF36F8F5AF82230E3
:101664003E0123F480334AF822305AF82230AE5433
:1016740049F82200CA690B7E02F01F060EFA06F62C
:10168400570944F82760BFF34F8FBFF36F8F5AF8A1
:1016940022601B0126F480364AF822605AF8226040
:1016A400AB5449F822004A6A91F8203002F01F0630
:1016B4000EFA06F6570944F82760BFF34F8FBFF3BD
:1016C4006F8F5AF822401B0124F480344AF82240D8
:1016D4005AF82240AB5449F82200EFF310828EF3FB
:1016E400108844F204050B78C4F208054FF0004456
:1016F4002E6824FA03F326EA03032B602B6882F393
:101704001088026A82F80280026A82F80480026AFF
:1017140082F80980026A82F80A80026A82F80B80E1
:10172400026AA2F81A800A780EFA02F340F2F93239
:10173400134202D0036A4024DC74036A06241C7733
:101744000B780EFA03F3134203D0026A4FF4784382
:101754009382D1E90163CA684FEAC20242EA0312E2
:101764003EB1032E08BF42F04002F22602E00322FB
:10177400ADE0E226036A02271A70026A0025967118
:101784000A6C936907EA4307082B036A08BF0A2710
:101794005F73066AD2E9013735721668DB0126F0F9
:1017A4000106022EDEB267F345160AD1036AFF274B
:1017B4005F701268022A026A08BF46F01006D671EA
:1017C40017E0036ADE71D268036A97785F7057780E
:1017D4001E7807F0030706F0FC0637441F70D7781D
:1017E4009F74DF79127807F0A30702F05C023A4491
:1017F400DA710022C369C0E90322C0E90522D1F8E5
:1018040040E05B699EF800105AF8234003F01F057E
:1018140024F480344AF823405AF82340012404FA7B
:1018240005F60CF5C0755B09BFF35F8F45F82360BF
:101834004CF82360C369DB6A5AF8236026F48036C7
:101844004AF823605AF8236003F01F0604FA06F6E8
:101854005B09BFF35F8F45F823604CF82360C369CD
:10186400DB695AF8236026F480364AF823605AF874
:10187400236003F01F0604FA06F65B09BFF35F8FCB
:1018840045F823604CF82360C3695B6A5AF8236007
:1018940026F480364AF823605AF8236003F01F06C2
:1018A400B4405B09BFF35F8F45F823404CF82340F5
:1018B4001C23076A63F39F01B970DEF8141044F621
:1018C4005513C5F24333C0E90131BDE8F047104672
:1018D400704703460020C3E90512704780B5D0F86D
:1018E40020E09EF802C00CF07B038EF8023083786F
:1018F40003F00303A2EB030C0B44026AC0E9033CAC
:10190400937843F080039370827802F00302022AF2
:1019140005D10988006A41F47E41C18102E0097859
:10192400006AC170002080BD00F028F900F0E0FBDF
:10193400FEE70000F0B581B040F2AC67C2F20007E8
:10194400044638461921FEF7ACFB207861783870DC
:101954006079A278E378797021797871A079397106
:10196400B8712079BA70FB70C0B10720002100BFA4
:1019740001EB4102C6B22244D379451CBB55137A0C
:10198400EDB27B55861C527AF3B2FA5422790131B6
:10199400914200F10300EBD3C2B200E0072240F20F
:1019A400705040F2AC61C2F20000C2F2000101B01A
:1019B400BDE8F040FFF792BF80B53221FEF771FB1E
:1019C40040F2705041F63131C2F20000C0F2000121
:1019D40000220023BDE88040FFF7D6BD2DE9F04F7B
:1019E40081B08046073810F1060F4FF00000C0F0B8
:1019F40085800E46002900F081801446002A7DD09F
:101A040040F2A86940F2886B08EB480AC2F2000968
:101A1400C2F2000B89F80000584620211F460AF143
:101A24000505FEF73EFB40F27050C2F20000594635
:101A34002A46FFF74EFF40F2AC65C2F20005681D6E
:101A44001421FEF72EFB45F25550288008F10300BF
:101A5400A8701520E8700521404685F8048000BF71
:101A640016F8013B4A1CC9B26B5401381146F7D130
:101A740040F2705040F2AC61D2B2C2F20000C2F245
:101A84000001FFF72BFF99F800007FB1C0070DD1CB
:101A9400012500BF01204FF47A71FFF71AFD99F870
:101AA400000018B9BD4205F10105F3D399F800000F
:101AB400012822D19BF8000055284FF000001DD1C9
:101AC4009BF80110552919D19BF80310152915D13C
:101AD4009BF80410414511D1411DCAB21BF80220E4
:101AE4005BFA81F122542318B1F8011003308245C6
:101AF400A3F80110F0D1012000E0002001B0BDE8FE
:101B0400F08F45F2555CC0F2083CB2F57A7F28BFED
:101B14004FF47A72C0F800C04FF0010C80F804C092
:101B2400A0F80530C1710281FFF704BF40680128A5
:101B340007D0022818BF704740F2A960C2F2000023
:101B440003E040F2A860C2F2000001210170704776
:101B54004EF22000C4F201008179006840F2204274
:101B6400C2F20002C0F3026052F8211021FA00F020
:101B740040F23C41C2F200010860704710B54EF6D5
:101B84000850CEF200004FF47001C0F8801040F20B
:101B94000001C0F20001016000200024FFF7DCFC1A
:101BA40000F06CF80120FFF7D7FC40F22000C2F2ED
:101BB400000080F30A88002000F032F8FFF7C8FF25
:101BC400FFF7FAFB0320FFF734FC40F61050C4F291
:101BD40008004FF6FF7100BF20F8141001340C2CDC
:101BE400FAD10320FFF74CFC0320FFF722FC04206A
:101BF400C4F20E000021016041608160C1600320D5
:101C0400FFF73EFC0220FFF7A7FC012000F008F8D4
:101C140000F0D4F80020BDE8104000F0CDB800007A
:101C2400F0B581B043F68C15C0F200052E68044669
:101C340076B16868071D00BF7879844204D157E9FA
:101C44000101091AFEF72DFA013E07F10C07F3D141
:101C5400AE6886B1E86800F1080500BF687984427F
:101C640005D155E902022968121AFEF701FA013E6C
:101C740005F11005F2D101B0F0BD00002DE9F041ED
:101C84004EF2FE34C4F201044AF203504CF2001541
:101C94002080C4F201050120A88000BFA888002884
:101CA400FCD147F200010120C4F2000128808860C1
:101CB400086040F2204642F6005041F20022C2F28F
:101CC4000006C0F23110C0F27A02C6E9000243F203
:101CD40000604FF40041C0F26E10C6E902104CF2ED
:101CE4000020C0F6EB304EF220073161C4F2010748
:101CF4007061B879396856F82000C1F3026140F286
:101D04003C48C840C2F20008C8F8000000206075D2
:101D1400092087F8820094F8820018B994F88300A7
:101D2400800744D094F8820050B9012084F88200DE
:101D3400C8200121FFF7CDFB94F882000128FBD1D4
:101D4400002084F8830084F882000020B87400BF67
:101D5400387F0007FCD543F2021038810020B872A6
:101D6400387F8006FCD50320287741F22120C2F277
:101D7400010038600520B871B879396856F8200038
:101D8400C1F30261F022C840C8F8000042F2080022
:101D9400C4F20000F12101710121017002714FF4BC
:101DA4002540397487F832102080BDE8F0814FF463
:101DB4007A70FFF7D0FBC8E77047000070B584B0B5
:101DC40048F248060320C4F20006FFF732FB6FF026
:101DD400FF0043F6A41430604FF0FF300021C0F23E
:101DE40000040122CDE9020054F8213002FA01F581
:101DF400002B18BFA84301310A29F5D14EF28032D5
:101E04000190002001A9CEF2000200BF51F8203059
:101E140006EB8005AB6242F8203001300328F5D18F
:101E24000320FFF72DFB46F200310020C4F200012D
:101E340054F820200AB141F8202001300A2804BFB8
:101E440004B070BDF4E701380028FCD170470000ED
:101E54002DE9F04F81B00446008800285AD043F29F
:101E640040084EF2BB4B0025C4F208080FF2AC0A3E
:101E7400C4F2010B4FF00109002700BF60685AF853
:101E8400272000EBC500416891423CD100689BF8D3
:101E9400001000F0B85009FA07F6B0F1807F06EAA6
:101EA400010015D150B90120FFF7C3FA9BF80000D7
:101EB40030438BF800000120FFF7E2FA18F917000D
:101EC400002820D418F8170040F0800015E000BF67
:101ED40050B10120FFF7ADFA9BF80000B0438BF836
:101EE40000000120FFF7CCFA18F91700B0F1FF3F0A
:101EF40009DC18F8170000F07F0008F81700C82064
:101F04000121FFF7E6FA0137032FB7D12088013505
:101F14008542B1D301B0BDE8F08F00BF02040000D8
:101F2400030400000404000092B040F2705043F631
:101F3400D811C2F20000C0F20001FFF72CFBFEF73B
:101F440051FFFEF7F5FF40F6B8304FF47A71FFF712
:101F5400C0FA02AC43F6484A651D58A60FF2881829
:101F640058A7C0F2000A0FF2641B0DF1040900BF68
:101F7400FEF7D8FF0028FBD020464021FEF7FFFFE4
:101F8400204631460522FEF79EF808B3204639461E
:101F94000622FEF798F8F8B1204659460522FEF7C6
:101FA40092F828B320464BA10C22FEF78CF80028A7
:101FB4006CD0BDF808003128DAD140F2FC52C2F2EC
:101FC4000002107815286ED345A0FFF700F8CFE77C
:101FD4004046FEF7FCFFCBE740F24040C2F200006F
:101FE4004FF47A71FEF776FF5046FEF7F0FFBFE735
:101FF40028464946019500F08FFE01984946013074
:10200400B0EE408A00F088FE019849460130B0EEF7
:10201400409A00F081FE019849460130B0EE40AA92
:1020240000F07AFE019849460130B0EE40BA00F063
:1020340073FE019849460130B0EE40CA00F06CFED0
:102044000198002101300A22B0EE40DAFEF748F888
:1020540080B2B0EE480AF0EE490AB0EE4A1AF0EE49
:102064004B1AB0EE4C2AF0EE4D2AFEF705FE40F274
:10207400D251C2F200010870002843F64C40C0F26D
:10208400000008BF5046FEF7A2FF71E740F2FC5083
:10209400C2F200000121017043F6F820C0F20000F2
:1020A40000F0ACF864E743F6F823C0F20003411CE7
:1020B40003EB0010117000F0A1F859E750494E47A6
:1020C4000000000052455345540000004D4F564552
:1020D4002000000043414C49425F5245534554009F
:1020E400444F4E450A000000504F4E470A0000007E
:1020F40080B5FFF719FF002080BD000070B50446CD
:10210400FFF7A6FE40F2685CEFF31080012181F333
:102114001088C2F2000CDCF8001039B940F6035103
:10212400C4F2080100220A7040220A70DCF8001090
:102134000131CCF8001080F31088208818B340F6E1
:10214400000E0021C4F2080E606800EBC10250F8D2
:1021540031305268DD034FEA1220D2B20BD50EEBB8
:10216400801555F8226026F4803645F8226023F461
:10217400803645F822600EEB8010013140F82230A1
:1021840020888142E0D30120EFF3108180F310888E
:10219400DCF8000020B1DCF800000138CCF80000C5
:1021A400DCF8000038B940F60350C4F208000022FD
:1021B40002708022027081F3108870BDB0B584B0C3
:1021C4000446806A40B1D0E900CED0E90253CDE99B
:1021D40000CECDE9025300E06846E369D4F824C098
:1021E4001B78E56AC0E90032C0E90215E047A06A3D
:1021F40010B19DE82E002EC004B0B0BD10B52DED79
:10220400088BA2B090EC040A9FED3D2ADFED3D2A35
:1022140000214FF47A70CDE90E11CDE90C11CDE90E
:102224000A110991FEF728FD40F2D251C2F20001D1
:102234000870C0B140F2DC504FF47A71FFF749F9ED
:102244000DA84FF4FA71FEF719FEB8B10DA809A94B
:10225400FEF7EAFD9DED090A9DED0ABA9DED0B9A84
:102264009DED0C8A1EE043F64C40C0F2000022B003
:10227400BDEC088BBDE81040FEF7A9BE40F22C501F
:10228400C2F2000090ED050A90ED07BA90ED099AAC
:1022940090ED0B8A8DED090A8DED0ABA8DED0B9A3E
:1022A4008DED0C8A10EE100AFDF752FF41EC1A0B6B
:1022B4001BEE100AFDF74CFF41EC1B0B19EE100A44
:1022C400FDF746FF41EC190B18EE100AFDF740FF2D
:1022D40041EC100B10AC8DED00AB0BA28DED02BBED
:1022E40020468DED049B48218DED060B00F01CFA71
:1022F4002046FEF76CFE22B0BDEC088B10BD00BF7B
:102304000000B4C20000B4424F4B20252E32662C8C
:10231400252E32662C252E32662C252E32660A0096
:1023240010B582B0EFF3038040F2D4516FF35F2015
:10233400C2F2000101EB800050F8404C2069C17AE0
:1023440001F0F701C17294F83700012817D1206910
:10235400F021C172206C012300281ABFD0E90012B9
:10236400CDE900126846E16B626CC0E9002388473E
:10237400206CE0B3DDE90012C0E9001237E094F804
:10238400321094F8340081420FD1A06A78BB94F8DB
:1023940035000321002818BF022194F83820206951
:1023A400012A36D10022C2723AE060B194F83510A5
:1023B40002284FF000000BD1C9071CBF94F831006C
:1023C40040F0010004E03120012908BF3020205CE6
:1023D40021690022CA722169C87094F8330094F804
:1023E4003410013884F83300481C84F83400EFF3C7
:1023F400038046F2C0216FF35F20C4F2000151F85C
:10240400202022F4803241F8202051F8200002B02C
:1024140010BDF022C2722069827802F0CF0282706D
:10242400206C00281ABFD0E90023CDE900236846B8
:10243400626CE36BC0E90021984799E7EFF30380EE
:1024440046F2C0216FF35F20C4F2000151F820204E
:1024540022F4803241F8202051F82000EFF3038069
:1024640040F2D4516FF35F20C2F2000101EB80000F
:1024740050F8400C01690A7BD20718D190F8323029
:1024840090F83420934220D1826A002A3ED090F8FA
:102494003530002B47D090F83930012B4DD1002333
:1024A400012A80F8393055D08B72826A4FE090F857
:1024B4003520012A03D190F83920012A1BD10022AA
:1024C4008262012280F837202AE090F83530022A0F
:1024D40003D1DA0701D0522023E090F83020CA70EB
:1024E40090F8331090F83420013980F83310511CDF
:1024F40080F8341070474979026AC36AD154D0E92C
:102504000A230169013A0133C0E90A2390F836200D
:10251400012A05D15222CA72012180F8381070476D
:102524005420C8727047D0F820C0C36A013A1CF81E
:1025340003C00133C0E90A2311E04979026AC36A7E
:10254400D154D0E90A134A1E591CC0E90A21016971
:10255400012A02D120228A7201694FF0FF0C81F80E
:1025640003C07047B0B5EFF303806FF35F20A0F1B1
:10257400100540F2D450C2F2000050F825008178D2
:10258400036A01F00301022912BF5979198A6FF312
:102594005F211A79D40602F0380203D51C7FE407C0
:1025A40008BF40321C7904F0C7041C71436A0BB1A4
:1025B400FFF704FE46F20030C4F2000050F8251084
:1025C40021F4803140F8251050F82500B0BD10B535
:1025D40082B0EFF3038040F2FC7101EA800046F21E
:1025E400C021C4F20001425822F48032425040F229
:1025F400D452C2F200024158104450F8404CA07822
:1026040000F00302206A022A12BF4179018A6FF3A3
:102614005F21A069019198B1606901A9FDF728FDC6
:10262400A0786169A26900F003000144101A616195
:10263400A0610ED1606A60B120460021012203E04E
:10264400606A30B12046042202B0BDE81040FFF7B2
:10265400B5BD02B010BD10B5EFF303806FF35F207A
:10266400A0F1100440F2D450C2F2000050F824004B
:10267400016A8A7802F07B028A70416A19B10021EA
:102684000222FFF79BFD46F20030C4F2000050F82E
:10269400241021F4803140F8241050F8240010BD97
:1026A400EFF3038040F2FC7101EA800046F2C0219E
:1026B400C4F20001425822F48032425040F2D45213
:1026C400C2F200024158104450F8400CC1694A6BF0
:1026D4000169C2B9C1B1817801F00302C168022A5B
:1026E40005D10988026A41F47E41D18102E009786A
:1026F400026AD1708178026901F00303D11AC268B9
:1027040001611A44C26071B9016A8A7802F07B02DD
:1027140004328A70416A00294FF00001C1601CBF75
:102724008022FFF74BBD70470FB47CB50C0009AD98
:1027340001D0611E00E00021CDE90001064B6A468C
:102744002946089800F088FC002C02D0009A002149
:1027540011707CBC5DF814FB8B370000410008024B
:1027640018BF04200A0E18BF40F001004FF07F424A
:1027740032EA010108BF40F00200012808BF052029
:1027840070470000004870470000002070B54FF00B
:1027940068422DED048BF0EE408A18EE900AB0EEFC
:1027A400608A18EE101A02EB4003B3F1654F3CBF88
:1027B40002EB4102B2F1654F7DD200BFC0F3C753B3
:1027C400C1F3C7529A1A1B2A09DD10F0004F14BF37
:1027D4009FED830A9FED830ABDEC048B70BD12F15B
:1027E4001A0F36DA11F0004F09D010F0004F0CBF69
:1027F4009FED7D0A9FED7D0ABDEC048B70BD88EED4
:10280400889A19EE100AFFF7A9FF042808BF00F000
:10281400A1FA18EE900AFFF7A1FF054618EE100A78
:10282400FFF79CFF044619EE100AFFF797FF042DEB
:1028340018BF052D08D1042C18BF052C04D100287D
:1028440004BF022000F038FBB0EE490ABDEC048B53
:1028540070BD4200B2EB410F3AD910F0004F19BFDE
:10286400DFED630A9FED630ADFED630A9FED630A00
:10287400B0EE481A0A46B1EE688A80F00041F0EEE4
:10288400418A10460A1A5200B2F1807F34D248407D
:1028940010F0004FDFED5A1A9FED5A2A1DBFBEEE0D
:1028A400001A70EEE10A30EE420AB6EE001A08BFD2
:1028B40070EEA10A00E040E008BF30EE020AB0EE7C
:1028C400682A01EE482A08EE818AC2EE081A15E049
:1028D40011F0004F04BF9FED4C0AF0EE400AD1D036
:1028E40010F0004F19BFDFED490A9FED490ADFEDF3
:1028F400490A9FED490AC5E7C8EE881A21EEA11AD4
:102904009FED462ADFED462A41EE022A9FED452A35
:1029140001EE222ADFED442A41EE022A9FED432AEA
:10292400BDEC048B01EE222A21EE811A01EE020A8B
:1029340030EE210A30EE200A70BD4FF07F42B2EB38
:10294400400F28BFB2EB410F09D2F0EE480AB0EEB7
:10295400680ABDEC048BBDE8704000F0F0B940EAB1
:1029640001035B0008BF41F0FF410BD0B2EB400F05
:1029740008BFB2EB410F08D120F0804008EE900A66
:1029840021F0804108EE101A18E7B2EB400F12BF95
:102994005FEA410340F0FF4001F000413FF40EAF15
:1029A400B2EB410F12BF5FEA400200F0004041F079
:1029B400FF413FF403AF4A0092EA40033FF5FEAE05
:1029C400002AACBF9FED1A0A9FED1A0A68EE808AAE
:1029D40028EE008A18EE900A18EE101AEEE60000AF
:1029E400DB0FC9BFDB0FC93FDB0F4940DB0F49C019
:1029F4000000C9BF22AAFDB90000C93F22AAFD39BF
:102A04000060ED3EC30ACE3700000000000049C05C
:102A140022AA7DBA0000494022AA7D3A2DAD65BDA7
:102A24008FB8D53D0FB511BE61C84C3EA8AAAABE49
:102A34000000804F0000802F10EE101A08B5444AA1
:102A44006846B2EB410F28D94FF0E640B0EB410F96
:102A540094BF00204FF0FF3000900098002861DB05
:102A640060EE000A10F0010F45D010F0020FDFED08
:102A7400391A9FED391A00EEA11ADFED381A40EE2B
:102A8400811A21EEA01AF0EE400A40EE010A08BFB6
:102A9400F1EE600AB0EE600A08BD314B21F000424D
:102AA40093423CD911F0004FDFED2E0A20EE201A9C
:102AB400DFED2D0A19BF31EE601A71EE200A31EEF6
:102AC400201A71EE600ABDEEE01A11EE100A9FEDB5
:102AD400271A00F0030000EEC10A9FED251A0090AA
:102AE40000EEC10A9FED231A00EEC10A9FED221ADF
:102AF40000EEC10AB1E79FED211A9FED210A10F003
:102B0400020F00EE810A9FED1F1A00EE801AB7EE45
:102B1400000A00EE810A18BFB1EE400A08BD00F0B9
:102B240021F99AE710EE100A4000B0F17F4F3CBF44
:102B3400B7EE000A08BD07D14FF0010000F0BCF960
:102B4400BDE8084000F0FEB8BDE8084000F0F4B865
:102B5400B61F927E336D4CB9DA82083CA0AA2ABE15
:102B6400490E494683F9223F0000004B0000C93F4B
:102B740000A0FD390020A2331A61342CB93AB2BA4C
:102B8400CA9F2A3DDDFFFFBE00B510EE101A2DEDE1
:102B9400028B81B0524A6846B2EB410F2ED94FF0F6
:102BA400E640B0EB410F94BF00204FF0FF3000909F
:102BB4000098B0EE408A00286ADB10F0010F4BD079
:102BC40068EE080A9FED471A9FED470A00EE810A56
:102BD4009FED461A10F0020F00EE801AB7EE000ABD
:102BE40000EE810A02BF01B0BDEC028B00BD00BF44
:102BF40001B0B1EE400ABDEC028B00BD3C4B21F0AC
:102C04000042934241D911F0004FDFED3A0A20EE21
:102C1400201ADFED390A19BF31EE601A71EE200A6D
:102C240031EE201A71EE600ABDEEE01A11EE100AC0
:102C34009FED321A00F0030000EEC10A9FED301A36
:102C4400009000EEC10A9FED2F1A00EEC10A9FED1D
:102C54002E1A00EEC10AABE728EE080A9FED2B1AE4
:102C6400DFED2B0A10F0020F40EE010A9FED291A46
:102C740000EE201A61EE000AB0EE480A08EE200ABF
:102C8400B6D101B0BDEC028B00BD00F06BF88FE74C
:102C940018EE100A4000B0F17F4F0DD218EE100A62
:102CA400FFF75CFD042808BF00F054F8B0EE480AB2
:102CB40001B0BDEC028B00BD09D1012000F0FCF88D
:102CC40001B0BDEC028B5DF804EB00F03BB801B041
:102CD400B0EE480ABDEC028B5DF804EB00F02CB8B2
:102CE400B61F927EB93AB2BACA9F2A3DDDFFFFBE33
:102CF400490E494683F9223F0000004B0000C93FBA
:102D040000A0FD390020A2331A61342C336D4CB974
:102D1400DA82083CA0AA2ABE08B59FED060A0A4634
:102D240001468DED000A6846FDF7C8FA9DED000ADC
:102D340008BD00000000000030EE000A704730EECD
:102D4400200A7047DFED020A80EEA00A70470000F7
:102D5400000000009FED020A20EE000A7047000008
:102D6400000000102DE9F0014FF07F42B2EB410F5B
:102D74009FBF4FF0FF310160BDE8F00170474FF095
:102D8400004242EA0123C1F3C752783A551112F0C6
:102D94001F0C434CCCF120067C44C1F3C752A2F172
:102DA40078024FEA621204EB820254F8254008BF0D
:102DB400D2E9015612D0556804FA0CF425FA06F744
:102DC4003C43976805FA0CF527FA06F8D26807FA27
:102DD4000CFCF24045EA08054CEA0206A4FB034C4D
:102DE400A5FB0352A6FB03631D449D4234BF012689
:102DF40000261319334416B1934202D903E09342D7
:102E040001D2012200E00022624402F1200C920669
:102E1400DC0C42EA443200EE102A5B03DFED210AA7
:102E2400F8EEC01A00EE103A4FEA9C1C11F0004F65
:102E3400B8EE400AC0F800C020EE201A00EE105A86
:102E4400DFED190AB8EE400A20EE200A71EE810A7D
:102E540070EE800A10EE902A02F500626FF30B0206
:102E640000EE902A70EEE11A31EEC11ADFED101A6D
:102E740030EE411A9FED0D0A20EE800A01EE210A80
:102E84009FED0C1A00EE810A04BFBDE8F001704703
:102E9400CCF180510160BDE8F001B1EE400A704709
:102EA400000A0000000000360000802C22AAFD2940
:102EB400DB0FC92F0000C92F0149086070470000CB
:102EC400000000202DE9FF5F82B00021DDE904301D
:102ED400020DDDF840B0034318D044F61050A2F2BE
:102EE400FF3242431514119801281FD0A5EB0B00A3
:102EF400401C5FEA000A4FF000064E4FDFF838919D
:102F0400B046504615D5CAF1000413E011980124C7
:102F14004AA3012801D16FEA0B010298119AC0E972
:102F24000031C0E9024206B0BDE8F09FCBF10000D9
:102F3400DFE704460021404A491842EB0450CDE93A
:102F4400001012E0E00707D032463B4640464946AF
:102F5400FDF75FFA8046894632463B4610461946DD
:102F6400FDF757FA06460F466410002CEAD1DDE956
:102F74000401DDE90023BAF1000F06DAFDF749FA8E
:102F840042464B46FDF745FA05E0FDF7B4FA4246E2
:102F94004B46FDF7B0FA04460E460022284BFDF7D7
:102FA40031FB03D84FF0FF30014607E00022254BE8
:102FB40020463146FDF786F9FDF70CFB102409E0A5
:102FC400002C0ADB0A220023FDF7EBF8039B3032C6
:102FD4001A55641E50EA0102F2D1641C039AC4F12A
:102FE40011031444119A012A03D0012208430DD17C
:102FF4000AE0084304D000204FF0110B119072E74F
:10300400A3EB0B056D1E0DE05B4504DD4FF00002E4
:1030140005F1010504E003DA4FF00002A5F1010512
:10302400002AECD002981199C0E90231C0E90045A8
:1030340079E70000000014400000F03F3000000079
:103044000000F0430000E03F30380A2801D201209C
:1030540070470020704700002DE9FF4F95B09B4654
:103064008946064600250FE2252877D10024274605
:10307400F84A0121059400E0044316F8013F203B7F
:1030840001FA03F01042F7D130782A2811D06FF0FA
:103094002F033078A0F13002092A16D8059A44F09B
:1030A400020402EB820203EB42021044761C0590F8
:1030B400EFE759F8042B0592002A03DA504244F44E
:1030C4000054059044F00204761C30782E2816D162
:1030D40016F8010F44F004042A280DD06FF02F02D3
:1030E4003078A0F13003092B09D807EB870302EBF2
:1030F4004303C718761CF3E759F8047B761C307831
:103104006C280FD006DC4C2817D068280DD06A280C
:1031140014D104E0742810D07A280FD10DE044F4BF
:1031240000140AE044F4801401E044F4401472787A
:10313400824202D104F58014761C761C307866280D
:103144000BD013DC582877D009DC002875D045282B
:10315400F6D04628F4D047281AD19DE118E0632818
:1031640035D0642879D0652812D195E1702873D0C0
:1031740008DC6728F1D069286FD06E280DD06F283D
:1031840006D1B5E073282CD0752875D0782874D072
:103194005A46179990476D1C75E1C4F302500228F2
:1031A40009D003280DD0D9F8001004280DD00D60E3
:1031B40009F1040967E1D9F80010EA17C1E90052DE
:1031C400F6E7D9F800100D80F2E70D70F0E719F872
:1031D400041B8DF8001000208DF80100EA46012040
:1031E40003E059F804AB4FF0FF3061074FF00001E2
:1031F40002D40DE008F101018846B9420FDA804596
:10320400F8DB1AF808100029F4D108E008F10101EC
:1032140088468142FADB1AF808100029F6D105988D
:103224005B46A0EB080721463846179A00F094FA4B
:10323400284400EB080507E04DE029E10DE01AF809
:10324400010B5A4617999047B8F10108F7D25B462B
:1032540021463846179A13E142E00A220092C4F349
:1032640002524FF0000A022A08D059F804CB032A6C
:103274004FEAEC710AD00DE029E02AE009F10701D8
:1032840021F00702F2E802C1914609E00FFA8CFC32
:103294004FEAEC71042A03D14FFA8CFC4FEAEC712B
:1032A400002907DA0A460021DCF1000C61EB020177
:1032B4002D2202E0220504D52B228DF804200122C0
:1032C40003E0E20701D02022F7E7904659E00A2103
:1032D40002E010220DE010214FF0000A00910BE0F3
:1032E40010224FF0000A44F004040827009203E07F
:1032F40008224FF0000A0092C4F30252022A05D0B9
:1033040059F804CB0021032A08D009E009F1070188
:1033140021F00702F2E802C1914605E01FFA8CFC95
:10332400042A01D10CF0FF0C4FF00008220728D525
:10333400702806D0009B83F0100353EA0A0305D0DB
:103344000EE040228DF80420012208E05CEA01022C
:1033540006D030228DF804208DF805000222904614
:10336400009B83F0080353EA0A030AD15CEA0102D2
:1033740001D1620705D530228DF804204FF00108F1
:103384007F1E582804D034A003900EA802900DE0AC
:1033940036A0F9E753466046009AFCF702FF8446DC
:1033A4000398825C0298401E029002705CEA01005D
:1033B400F0D1029806A9081A00F1200A600702D584
:1033C40024F4803400E00127574502DDA7EB0A000E
:1033D40000E0002000EB0A01009005984144401AE7
:1033E4000590E00306D45B462146179A059800F041
:1033F400B3F90544002706E001A85A46C05D1799B1
:1034040090476D1C7F1C4745F6DBE0030CD55B46FB
:103414002146179A059800F09FF9054404E03020EE
:103424005A46179990476D1C0099481E0090002930
:10343400F5DC08E0029802995A460078491C02918A
:10344400179990476D1CBAF10001AAF1010AF1DC49
:1034540065E1000009280100303132333435363754
:1034640038396162636465660000000030313233CC
:10347400343536373839414243444546000000006C
:1034840000F058F90544761C307800287FF4ECAD40
:1034940019B02846BDE8F08F620700D4062709F169
:1034A400070222F0070CFCE80223E14603F000487F
:1034B4005FEA080C02D00FF2702C0DE05FEA045CA6
:1034C40002D50FF2682C07E05FEAC47C02D00FF249
:1034D400602C01E0AFF2700C4FF0FF3823F0004392
:1034E400CDF850C065280CD006DC452809D0462804
:1034F4001DD047283DD13DE0662818D067287ED1ED
:1035040038E00021112F01DB112000E0781CCDE907
:10351400000106A90EA8FFF7D5FCDDE90F010E9AFC
:1035240003910021009207F1010A04914DE04FF04C
:1035340000400097CDE9011006A90EA8FFF7C2FCD0
:10354400DDE90F0203920E9B11990022DDF80CA015
:103554000093049211B9791C00EB010AB7EB0A003D
:1035640004D4C0F1FF3007F1010A0490AAEB07006C
:10357400019044E0012F00DA01270021112F01DD21
:10358400112000E03846CDE9000106A90EA8FFF796
:1035940099FCDDE90F010E9A039100210491009238
:1035A400BA4621070CD40399514500DA8A46BAF188
:1035B400010F05DD009AAAF10101515C302908D000
:1035C400B84202DA10F1040F06DA0121CDE9011044
:1035D40015E0AAF10101E9E7002805DC049901449A
:1035E4000491AAEB000102E0411C514500DD8A462A
:1035F4000499401A401C01904FF0004002902007AB
:1036040004D40198504501DBCDF8048000208DF8E6
:103614004F0002980DF14F07B0F1004F25D02B2039
:103624000E9002984FF0020800280CDA40420290F3
:103634002D200E9007E00A210298FCF79CFD303102
:10364400029007F8011DB8F10001A8F10108F2DCAD
:1036540002980028EFD1791E0E980870307800F097
:10366400200040F0450007F8020D12A8C01B00F12D
:1036740007081498007800B1012000EB0A010198B2
:1036840001EBE07105984144401A401E0590E003A7
:1036940006D45B462146179A059800F05DF8054468
:1036A4001498007818B15A46179990476D1CE00396
:1036B40024D55B462146179A059800F04DF8054439
:1036C4001CE00498002807DBDDE90301884203DDE0
:1036D4000098405C179901E0179930205A469047AA
:1036E400049805F10105401C04900198401E0190C6
:1036F40004D12E205A46179990476D1CBAF1000147
:10370400AAF1010ADDDC05E017F8010B5A46179906
:1037140090476D1CB8F10001A8F10108F4DC5B4688
:103724002146179A0598ABE62D0000002B000000F7
:10373400200000002DE9F041044600251E461746EE
:10374400880404D405E039462020B0476D1C641E6B
:10375400F9D52846BDE8F0812DE9F041044600255D
:103764001E469046C80301D5302700E02027880470
:1037740004D505E041463846B0476D1C641EF9D5B2
:103784002846BDE8F0814A68002A06D00A68531C1E
:103794000B6010704868401E4860704700000000CD
:1037A4006E83F9A22915444ED15727FCC0DD34F5A8
:1037B400999562DB4190433CAB6351FE004040402D
:1037C40040404040404041414141414040404040F0
:1037D400404040404040404040404040400502029C
:1037E400020202020202020202020202022020205B
:1037F40020202020202020020202020202029090B7
:1038040090909090101010101010101010101010B4
:103814001010101010101010020202020202888808
:103824008888888808080808080808080808080814
:1038340008080808080808080202020240000000FC
:10384400C13700000000006800000068000000604C
:1038540000010C080000006800000068000000700F
:10386400000109080000006800000068000000086A
:103874000001020800000068000000686800000001
:10388400000101080000002000000020000000608A
:1038940000010C0300000020000000200000007064
:1038A40000010903000000200000002000000008BF
:1038B40000000203000000200C000020680000004B
:1038C4000000010309000000D438000000000000DB
:1038D40004000000020000000000010008010000D4
:1038E40000000100000300000000010401030000C7
:1038F4000000010402030000000001040B050000A5
:10390400000001040C05000040000105060700004A
:10391400400001050707000002000000020000004B
:1039240000000000000000000C0000000600000081
:103934000C000000070000000C000000080000005C
:103944000C0000000900000000000000000000005E
:1039540000000000000000006039000000000000CA
:103964000100000000000000040000200F0000001F
:10397400FFFF000000000000000000000000000045
:10398400FFFF00000000000004000000543C0000A1
:10399400080000004838000002000000E83A000077
:1039A40098010000990100009A0100009B010000A9
:1039B40093010000940100008C0100008D010000BF
:1039C4008E0100008F0100000100020008001000B9
:1039D40020000000040000000200000000000000BD
:1039E400000000000C000000000000000C000000BB
:1039F400010000000C000000020000000C000000A8
:103A040003000000000000000000000000000000AF
:103A1400000000001C3A000000000000010000004B
:103A240000000000080000200F000000FFFF00005D
:103A3400000000000000000000000000FFFF000084
:103A440000000000000000080000000800800000E2
:103A5400008000000000000090A1000110A20001FD
:103A640010A2000190A2000190A2000190A1000107
:103A7400C0A1000140A2000140A20001C0A20001B7
:103A8400C0A20001C0A1000110A1000110A1000109
:103A940004A1000100A1000180A1000104A2000111
:103AA40000A2000184A2000180A2000180A1000103
:103AB400E0A1000160A2000160A20001E0A10001F8
:103AC4000000006800000068000000700000007042
:103AD40000000060000000600020002000200020A2
:103AE40000000020000000680000006820000020A2
:103AF400200000200000804100000000CDCC4CC01C
:103B0400333398C200008841000040C0CDCC4CC083
:103B1400333398C20000904100000000CDCC4CC06B
:103B2400333398C200008041000040C0CDCC4CC06B
:103B3400333398C20000804100004040CDCC4CC0DB
:103B4400333398C20000884100000000000080BFA9
:103B540000008EC200008041000000000000B0C0E0
:103B6400333398C20000804100000000CDCC4CC02B
:103B740000008EC20000804100000000CDCC4CC08B
:103B84000000A2C20000884100004040CDCC4CC0DF
:103B9400333398C200008841000000000000B0C028
:103BA400333398C200009041000040C0CDCC4CC0DB
:103BB400333398C20000904100004040CDCC4CC04B
:103BC400333398C200009041000040C0000080BF21
:103BD40000008EC200009041000000000000B0C050
:103BE4000000A2C200008041000040C0000080BF6D
:103BF40000008EC200008041000040400000B0C0C0
:103C04000000A2C200008841000040C00000B0C013
:103C14000000A2C20000904100004040000080BFAC
:103C240000008EC20000884100004040000080BFB8
:103C340000008EC200009041000040C00000B0C0EF
:103C44000000A2C24F4B0A004552520A0031000044
:103C5400000000680000006800010008000000681F
:103C6400000000680001000820000020200000205F
:103C7400000000033C040020C806002000000003EC
:103C840000000106362E312E30004275696C742016
:103C9400776974682052656E657361732041647638
:103CA400616E63656420466C657869626C65205357
:103CB4006F667477617265205061636B616765201C
:103CC40076657273696F6E20362E312E30000000D7
:020000040100F9
:04A10000FFFFFFFF5F
:020000040100F9
:04A20000FFFDFFFF60
:020000040100F9
:04A28000F8F8FFFFEC
:040000050000192DB1
:00000001FF
