:020000040000FA
:1000000000040020B10200009D00000099000000E3
:10001000990000009900000099000000990000007C
:100020000000000000000000000000009900000037
:1000300099000000000000009900000099000000F5
:100040000B080000DD08000093080000A107000075
:020000040000FA
:1000500040EA01039B0703D009E008C9121F08C04A
:10006000042AFAD203E011F8013B00F8013B521ECA
:10007000F9D27047D2B201E000F8012B491EFBD241
:1000800070470022F6E710B513460A4604461946A3
:10009000FFF7F0FF204610BD00BE70472DE9F0418C
:1000A00046F22018C4F20008B8F80000B8F8201092
:1000B00040F2204501EA0006B7B20024C2F2000572
:1000C00027FA04F0C00704D055F8241009B12046DF
:1000D00088470134102CF3D1A8F81060BDE8F081F6
:1000E000B0B543F22404C4F208040025C82001215D
:1000F000257100F082F8257020780028FCD1207846
:1001000040F00200207000BF20788007FCD400205F
:1001100004F8020C14F8020C0028FBD1002004F1B2
:100120001C0100BF11F8102002F07F0201F810201E
:1001300011F91020002AFBD401300328F2D101204C
:1001400000F00BF84EF2BB420021C4F20102012084
:100150001170BDE8B04000F027B880B50122EFF380
:10016000108182F3108840F26842C2F2000232F835
:1001700010308BB94EF2FE3C40F63823C4F2010C2D
:10018000C0F20003BCF800E033F8103043EA0E037D
:1001900043F42543ACF8003032F81030013322F834
:1001A000103081F3108880BD0122EFF3108182F3BB
:1001B000108840F26842C2F2000232F8103023B1D7
:1001C00032F81030013B22F8103032F810208AB992
:1001D0004EF2FE3CC4F2010C40F63822BCF800306E
:1001E000C0F2000232F8100043F4254222EA000077
:1001F000ACF8000081F31088704740F21C42C2F254
:100200000002126801FB00F041F20021C0F27A0105
:100210008A420FD340F6FF01C0F23D0111444DF672
:100220008362C4F21B32A1FB0212110DA0FB01017B
:10023000E9B11FE04CF60021C3F69A3148F63813B5
:10024000C0F24103B1FBF2F1984207D24FF47A7247
:1002500000FB02F0B0FBF1F0800808E08900B0FB81
:10026000F1F0984206D24FF47A7100FB01F028B108
:1002700000F09FB94FF0FF3000F09BB97047704716
:10028000022818BF704740F2604040F6E411C2F205
:100290000000C0F20001AFF3008080B545F25422A7
:1002A000C5F24F020260084600F0FAF9002080BD56
:1002B00000F01AF800F0EFF9FEE74EF22000C4F269
:1002C00001008179006840F20042C2F20002C0F3EE
:1002D000026052F8211021FA00F040F21C41C2F2F3
:1002E000000108607047000010B54EF60850CEF2CD
:1002F00000004FF47001C0F8801040F20001C0F21D
:100300000001016000200024FFF7BAFF00F06CF844
:100310000120FFF7B5FF40F20000C2F2000080F3B9
:100320000A88002000F032F8FFF7C7FFFFF7D8FE79
:100330000320FFF712FF40F61050C4F208004FF6FA
:10034000FF7100BF20F8141001340C2CFAD10320E7
:10035000FFF72AFF0320FFF700FF0420C4F20E007E
:100360000021016041608160C1600320FFF71CFF34
:100370000220FFF785FF012000F008F800F0D4F814
:100380000020BDE8104000F0CDB80000F0B581B00D
:1003900040F61025C0F200052E68044676B1686864
:1003A000071D00BF7879A04204D157E90101091A5D
:1003B000FFF767FE013E07F10C07F3D1AE6886B187
:1003C000E86800F1080500BF6879A04205D155E949
:1003D00002022968121AFFF73BFE013E05F11005E3
:1003E000F2D101B0F0BD00002DE9F0414EF2FE3433
:1003F000C4F201044AF203504CF200152080C4F20A
:1004000001050120A88000BFA8880028FCD147F280
:1004100000010120C4F2000128808860086040F2D9
:10042000004642F6005041F20022C2F20006C0F23D
:100430003110C0F27A02C6E9000243F200604FF4C4
:100440000041C0F26E10C6E902104CF20020C0F666
:10045000EB304EF220073161C4F201077061B879C8
:10046000396856F82000C1F3026140F21C48C840C8
:10047000C2F20008C8F8000000206075092087F863
:10048000820094F8820018B994F88300800744D061
:1004900094F8820050B9012084F88200C82001211C
:1004A000FFF7ABFE94F882000128FBD1002084F80E
:1004B000830084F882000020B87400BF387F0007F2
:1004C000FCD543F2021038810020B872387F8006D4
:1004D000FCD50320287741F22120C2F201003860C8
:1004E0000520B871B879396856F82000C1F3026167
:1004F000F022C840C8F8000042F20800C4F2000030
:10050000F12101710121017002714FF4254039740C
:1005100087F832102080BDE8F0814FF47A70FFF741
:10052000AEFEC8E77047000070B584B048F24806D8
:100530000320C4F20006FFF710FE6FF0FF0040F644
:10054000282430604FF0FF300021C0F20004012267
:10055000CDE9020054F8213002FA01F5002B18BF52
:10056000A84301310429F5D14EF2803201900020D8
:1005700001A9CEF2000200BF51F8203006EB800541
:10058000AB6242F8203001300328F5D10320FFF799
:100590000BFE46F200310020C4F2000154F8202086
:1005A0000AB141F820200130042804BF04B070BD16
:1005B000F4E701380028FCD1704700002DE9F04F26
:1005C00081B00446008800285AD043F240084EF219
:1005D000BB4B0025C4F208080FF2AC0AC4F2010BB1
:1005E0004FF00109002700BF60685AF8272000EB90
:1005F000C500416891423CD100689BF8001000F0B2
:10060000B85009FA07F6B0F1807F06EA010015D16B
:1006100050B90120FFF7A1FD9BF8000030438BF893
:1006200000000120FFF7C0FD18F91700002820D4B2
:1006300018F8170040F0800015E000BF50B101200D
:10064000FFF78BFD9BF80000B0438BF80000012002
:10065000FFF7AAFD18F91700B0F1FF3F09DC18F801
:10066000170000F07F0008F81700C8200121FFF7ED
:10067000C4FD0137032FB7D1208801358542B1D39E
:1006800001B0BDE8F08F00BF0204000003040000C9
:1006900004040000FEE780B5FFF7FCFF002080BDEA
:1006A00070B50446FFF78AFF40F2744CEFF31080F8
:1006B000012181F31088C2F2000CDCF8001039B976
:1006C00040F60351C4F2080100220A7040220A7069
:1006D000DCF800100131CCF8001080F3108820887D
:1006E00018B340F6000E0021C4F2080E606800EB5B
:1006F000C10250F831305268DD034FEA1220D2B205
:100700000BD50EEB801555F8226026F4803645F89F
:10071000226023F4803645F822600EEB8010013110
:1007200040F8223020888142E0D30120EFF310818D
:1007300080F31088DCF8000020B1DCF800000138FC
:10074000CCF80000DCF8000038B940F60350C4F2E1
:100750000800002202708022027081F3108870BDB0
:10076000B0B584B00446806A40B1D0E900CED0E98B
:100770000253CDE900CECDE9025300E06846E369BB
:10078000D4F824C01B78E56AC0E90032C0E902153C
:10079000E047A06A10B19DE82E002EC004B0B0BDA5
:1007A000B0B5EFF303806FF35F20A0F1100540F2C6
:1007B0007840C2F2000050F825008178036A01F009
:1007C0000301022912BF5979198A6FF35F211A793F
:1007D000D40602F0380203D51C7FE40708BF40327C
:1007E0001C7904F0C7041C71436A0BB1FFF7B8FF12
:1007F00046F20030C4F2000050F8251021F4803198
:1008000040F8251050F82500B0BD10B582B0EFF3C8
:10081000038040F2FC7101EA800046F2C021C4F27C
:100820000001425822F48032425040F27842C2F233
:1008300000024158104450F8404CA07800F00302E8
:10084000206A022A12BF4179018A6FF35F21A069F1
:10085000019198B1606901A9FFF7FAFBA07861697D
:10086000A26900F003000144101A6161A0610ED179
:10087000606A60B120460021012203E0606A30B165
:100880002046042202B0BDE81040FFF769BF02B065
:1008900010BD10B5EFF303806FF35F20A0F11004DB
:1008A00040F27840C2F2000050F82400016A8A78D1
:1008B00002F07B028A70416A19B100210222FFF71F
:1008C0004FFF46F20030C4F2000050F8241021F42B
:1008D000803140F8241050F8240010BDEFF303805D
:1008E00040F2FC7101EA800046F2C021C4F200012E
:1008F000425822F48032425040F27842C2F2000262
:100900004158104450F8400CC1694A6B0169C2B9A2
:10091000C1B1817801F00302C168022A05D10988BA
:10092000026A41F47E41D18102E00978026AD17005
:100930008178026901F00303D11AC26801611A4487
:10094000C26071B9016A8A7802F07B0204328A704F
:10095000416A00294FF00001C1601CBF8022FFF7EF
:10096000FFBE7047000000680000006800000060E3
:1009700000010C0800000068000000680000007022
:10098000000109080000006800000068000000087D
:10099000000102080000006800000068500000002C
:1009A000000101080000002000000020000000609D
:1009B00000010C0300000020000000200000007077
:1009C00000010903000000200000002000000008D2
:1009D0000000020300000020000000205000000082
:1009E0000000010304000000F00900000000000006
:1009F00000000100080100000000010000030000E9
:100A000000000104010300000000010402030000D3
:100A100004000000F40A000008000000640900005F
:100A200002000000E40A00008C0100008D010000BB
:100A30008E0100008F01000001000200080010007C
:100A400020000000000000080000000800800000F6
:100A5000008000000000000090A1000110A2000131
:100A600010A2000190A2000190A2000190A100013B
:100A7000C0A1000140A2000140A20001C0A20001EB
:100A8000C0A20001C0A1000110A1000110A100013D
:100A900004A1000100A1000180A1000104A2000145
:100AA00000A2000184A2000180A2000180A1000137
:100AB000E0A1000160A2000160A20001E0A100012C
:100AC0000000006800000068000000700000007076
:100AD00000000060000000600020002000200020D6
:100AE00000000020000000680000006800000020F6
:100AF00000000020000000680000006800010008FD
:100B000000000068000000680001000800000020EC
:100B100000000020000000031C04002088040020C6
:100B20000000000300000106362E312E3000427511
:100B3000696C7420776974682052656E657361739F
:100B400020416476616E63656420466C65786962F5
:100B50006C6520536F667477617265205061636BBA
:100B60006167652076657273696F6E20362E312E4F
:040B70003000000051
:020000040100F9
:04A10000FFFFFFFF5F
:020000040100F9
:04A20000FFFDFFFF60
:020000040100F9
:04A28000F8F8FFFFEC
:04000005000002B144
:00000001FF
