:1006FD0020202077656C636F6D2020746F20202083
:10070D000033772E6175746F2D6374726C2E636F69
:10071D006D00544553542E2E2E20202000777777D0
:10072D002E6175746F2D6374726C2E636F6D004442
:10073D00616E6765726F75732020202000536166AE
:10074D0065202020202020202020202000486561C9
:10075D00742E2E2E2E2E2020202020200057616951
:03076D00742000F5
:10087400023C000002250032022F001E0735766F6D
:050884006C7461676562
:0607A80005107F1E7E001B
:1007AE00EF1FAC0670011E4C6020E4F531F532C32C
:1007BE00E53294FAE5316480948050E40000000044
:0B07CE000532E53270E9053180E522BC
:10088A00C2A5D2A6D2A700000000E580339200C21A
:03089A00A7A20012
:01089D002238
:07082E007E001207AE7F06F9
:1008350012088A40FBC2A5C2A6C2A700008F80008D
:0C084500000000D2A700000000C2A722A3
:0508AF00E5102480FFAC
:0708B400EF4480FF0208354C
:1007D9001201D37F0A7E00CFCDCFCECCCE1201D36A
:0407E900EF2430FFCA
:1007ED0012088A40FBD2A5C2A6C2A78F80000000C6
:0A07FD0000D2A700000000C2A722EE
:100807007F381208357F017E001207AE7F0C120871
:10081700357F0112082E7F017E001207AE7F01127D
:0708270008357E000207AE58
:10026C00E4F511F5121208077F0A12082E12089EE7
:10027C00758901E4F58A758CFDE53C70FCE53DB4AF
:10028C00070050F5900297F82828730202AC02027E
:10029C00E40203620203810203D002043402045715
:1002AC00E4F510E51090070E9360151208AFE510F9
:1002BC0093FF1207ED05107F2C7E011207AE80E331
:1002CC001205C17F011208357F147E001207AE752E
:1002DC003C00753D0102042C7F2C7E011207AEE41C
:1002EC00F510E5109006FD936013E510248AFF12BB
:1002FC0008B4E51093FF1207ED051080E57F2C7E06
:10030C00011207AEE4F510E51090072A936013E58F
:10031C0010244FFF1208B4E51093FF1207ED0510DF
:10032C0080E57F2C7E011207AEE4F511F5127F18E3
:10033C001208357F207E031207AE0512E5127002FB
:10034C000511C39410E5116480948040E1753C0064
:10035C00753D020202851205C17FE87E031207AECD
:10036C007F011208357F147E001207AE753C0075B4
:10037C003D0302042CE4F510E51090075A93600F2E
:10038C001208AFE51093FF1207ED1207A880E9E4FD
:10039C00F510E51090076A936014E5102440FF12E5
:1003AC0008B4E51093FF1207ED1207A880E47F470D
:1003BC001208B47F531207ED1207AA753C00753D65
:1003CC00040202857F451208B4AE2FAF307C007D4D
:1003DC000A1207E67F0A7E001207AE7F461208B4A7
:1003EC00AE2FAF307C007D0A1201D3ED2430FF120A
:1003FC0007ED7F0A7E001207AED28CD2A9D2AFE5F0
:10040C0030452F6003020285C28CC2A9C2AF7F01A6
:10041C001208357F0A7E001207AE753C00753D054B
:10042C007F06120835020285E4F510E51090071FCF
:10043C0093600F1208AFE51093FF1207ED1207A897
:10044C0080E9753C00753D0602028520B24020B261
:10045C003DE4F510E51090073C936014E5102488FA
:10046C00FF1208B4E51093FF1207ED1207A880E401
:10047C00E4F510C2B47FC87E001207AED2B47FC8B8
:10048C007E001207AE0510E510C3940340E530B2B0
:10049C002230B21FE4F510E51090074A936014E582
:1004AC00102488FF1208B4E51093FF1207ED120711
:0904BC00A880E41204C5020285C7
:1005C100E4F531F5327F587E021207AE0532E5328D
:1005D10070020531C3940CE5316480948040E67F5C
:1005E10008120835E4F531F5327FC87E001207AEF6
:1005F1000532E53270020531C3940CE53164809413
:100601008040E67F0C120835E4F531F5327FC87E73
:10061100001207AE0532E53270020531C3940CE5D4
:10062100316480948040E67F08120835E4F531F5A5
:10063100327FC87E001207AE0532E5327002053105
:10064100C3940CE5316480948040E67F0C12083538
:10065100E4F531F5327FC87E001207AE0532E5328E
:1006610070020531C3940CE5316480948040E62228
:03000B0002077079
:10077000C0E0C0D075D008758A00758CFDE52415E1
:1007800024AE23700215234E70197523037524E8D7
:10079000E53015307002152FC2B47FC87E001207F5
:0807A000AED2B4D0D0D0E0329B
:1004C500E4F513F514FBFAF515F516FFFE120851C0
:1004D500AA06AB077F401208B47F411207ED120848
:1004E500B47F3D1207ED7F421208B47C037DE8AF6F
:1004F500031207E67F431208B47C037DE8AF03AE21
:10050500021201D37F641207DE7F441208B47C0017
:100515007D64AF03AE021207D97F451208B47C0093
:100525007D0AAF03AE021201D3ED2430FF1207EDB1
:10053500AE02AF03AD07AC06EC1201197B007A8061
:100545007909783F12000E8F2E8E2D8D2C8C2B1253
:1005550001528E298F2A7F481208B47F561207ED63
:100565007F491208B47F3D1207ED7F4A1208B4AEE9
:1005750029AF2A7C007D641207E67F4B1208B47F01
:100585002E1207ED7F4C1208B4AE29AF2A7C007DF0
:10059500641207D97F4E1208B4AE29AF2A7C007DBC
:1005A5000A1201D3ED2430FF1207ED7F4F1208B474
:0C05B5007F561207ED7F0A7E000207AEA1
:10085100EF4488F5BC00000000E5BC30E4FB53BC6C
:10086100EFAFBDEF75F004A4ADBE7C002DFFEC35FC
:03087100F0FE2274
:10089E00759DFFE4F5BDF5BE75BC807F02FE0207B7
:0108AE00AE9B
:10000E00EC4D6011E8497017ED33EC3304600DE4EC
:10001E00FCFFFEFD22E933E8330470F80201BE1244
:10002E00018958046009E4CC248150062850090245
:10003E0001C82840030201C5C0E0EB4A7044B980F4
:10004E0006D0E0FB0201B4EF4E701CBD8008EBFF42
:10005E00EAFEE9FD80EBE98DF0A4FEE5F00200F783
:10006E00E9CDF9EAFEEBFFEF89F0A4FCE5F0CE89CD
:10007E00F0A42EFFE435F0CD89F0A42DFEE435F08A
:10008E008067EF4E7005BD80D780C3EF8BF0A4ACB8
:10009E00F0EE8BF0A42CFCE435F0F8EF8AF0A42CF3
:1000AE00E5F038FCE433CB8DF0A42CFCE5F03BF806
:1000BE00EE8AF0A42CFCE5F038F8E433CF89F0A4F6
:1000CE002CFCE5F038CF3400CE89F0A42FFFE5F0FC
:1000DE003EFEE433C98DF0A42EFEE5F039CD8AF054
:1000EE00A42FFFE5F03EFEE43DFD33D0E0FB5007CC
:1000FE000BBB000F0201C8EC2CFCEF33FFEE33FEFE
:06010E00ED33FD0201A02B
:1001140075F020800E75F010800575F0087D007E66
:10012400007F003392D530D503120209EC3340101E
:10013400EF33FFEE33FEED33FDEC33FCD5F0ED226F
:0E014400E5F0247EA2D513CC92E7CDCEFF22AB
:10015200EDD2E7CD33EC3392D524814006E4FFFEA5
:10016200FDFC22FCE4CFCECDCC24E0501174FF8004
:10017200EDC3CC13CCCD13CDCE13CECF13CF0470A1
:07018200F030D5DE02020996
:10018900E9D2E7C933E833F892D5EDD2E7CD33ECBC
:0701990033FC5002B2D52235
:1001A000EC30E7100FBF000C0EBE00080DBD0004C0
:1001B0000BEB6014A2D5EB13FCED92E7FD2274FF6C
:1001C000FCFDFEFF22E480F8A2D574FF13FC7D80C5
:0301D000E480EFD9
:0300000002067184
:0C067100787FE4F6D8FD75813D0206B8E4
:1001D300C2D5EC30E709B2D5E4C39DFDE49CFCEE47
:1001E30030E715B2D5E4C39FFFE49EFE120217C3A6
:1001F300E49DFDE49CFC800312021730D507C3E4A1
:060203009FFFE49EFE22B5
:0E020900C3E49FFFE49EFEE49DFDE49CFC2206
:10067D0002026CE493A3F8E493A34003F68001F225
:10068D0008DFF48029E493A3F85407240CC8C3337E
:10069D00C4540F4420C8834004F456800146F6DF4D
:1006AD00E4800B0102040810204080900874E47E61
:1006BD00019360BCA3FF543F30E509541FFEE49342
:1006CD00A360010ECF54C025E060A840B8E493A309
:1006DD00FAE493A3F8E493A3C8C582C8CAC583CA34
:1006ED00F0A3C8C582C8CAC583CADFE9DEE780BEEC
:01088900006E
:10021700BC000BBE0029EF8DF084FFADF022E4CCCB
:10022700F875F008EF2FFFEE33FEEC33FCEE9DEC94
:10023700984005FCEE9DFE0FD5F0E9E4CEFD22EDDA
:10024700F8F5F0EE8420D21CFEADF075F008EF2F24
:10025700FFED33FD4007985006D5F0F222C398FD15
:050267000FD5F0EA22B2
:00000001FF
