S017000070726573737572655F73656E736F722E737265639B
S31502000000000400222B100002090F00023910000220
S3150200001039100002391000023910000239100002AC
S31502000020000000000000000000000000391000027D
S3150200003039100002000000003910000239100002D7
S3150200004019040002030600024D07000259080002C5
S31502000050FEE7022818BF704740F2304041F27C3179
S31502000060C2F20020C0F2002100F006B880B56F4649
S31502000070FFF7EEFF002080BD80B56F4645F25422A1
S31502000080C5F24F020260084600F002F8002080BD69
S31502000090F0B503AF4DF804BD044600F060F840F237
S315020000A0784CEFF31081C2F2002C012080F3108805
S315020000B0DCF8000038B940F614500022C4F24000C1
S315020000C0027040220270DCF800000130CCF8000019
S315020000D081F31088208828B340F6000E0021C4F26E
S315020000E0400E07E00EEB8010013140F822302088E6
S315020000F0814217D2606800EBC10250F83130928813
S31502000100D8034FEA1220D2B2ECD50EEB801555F881
S31502000110226026F4803645F8226023F4803645F8BC
S315020001202260DFE70120EFF3108180F31088DCF80C
S31502000130000020B1DCF800000138CCF80000DCF841
S31502000140000038B940F614500022C4F24000027092
S315020001508022027081F310885DF804BBF0BDF0B511
S3150200016003AF2DE9000F81B004460088002861D054
S315020001704EF64C4B0025C4F2010B03E020880135F4
S31502000180854257D241F2903942F240080026C0F227
S315020001900029C4F220080AE088F80000C8200121DC
S315020001A000F070FE013608F10208032EE6D0606800
S315020001B039F8022B00EBC50189889142F2D150F839
S315020001C035009BF80010012200F0B85002FA06FA38
S315020001D0B0F1807F0AEA010015D158B9012000F07A
S315020001E0FDFE9BF8000040EA0A008BF800000120A1
S315020001F000F0CAFE98F900000028D3D498F800004F
S3150200020040F08000C8E758B1012000F0E7FE9BF8F5
S31502000210000020EA0A008BF80000012000F0B4FE7C
S3150200022098F90000B0F1FF3FBCDC98F8000000F03E
S315020002307F00B1E701B0BDE8000FF0BDF0B503AF36
S315020002402DE9000F0269002313704023026913701F
S31502000250026913785B06FCD5C02313700268036932
S3150200026008267725526A4EF2001ECEF2000E4EF690
S31502000270185C12790EF5407A40F27C48CEF2000CF8
S3150200028042F0E0021A7402680369C2F200280EF50F
S31502000290C07B526A4FF00109D27842F0E0025A74EA
S315020002A002680369526A927862F306169E700268C1
S315020002B00669526A13785278012B5FEA1F9343EA62
S315020002C0420242F00402F270026844F240260369D6
S315020002D0C0F20F065268B24208BF6FF008055D71A0
S315020002E0002302699371B3230269D37191F91160F4
S315020002F04B7B06F00F020AEB06051B01141F002EAC
S3150200030048BF04EB0C052B704CF20033C4F2000319
S3150200031048F82600740953F8265025F4803543F828
S31502000320265053F8265006F01F0609FA06F6BFF3C2
S315020003305F8F4BF824604EF8246091F90F404A7B98
S3150200034004F00F060AEB0405043E002C48BF06EB38
S315020003500C0512012A7048F8240053F8242022F4CE
S31502000360803243F8242053F82420620904F01F0443
S31502000370BFF35F8F09FA04F44BF822404EF822408D
S3150200038091F910204D7B02F00F040AEB0206043CA1
S31502000390002A48BF04EB0C062C01347048F82200F0
S315020003A053F8224024F4803443F8224053F8224082
S315020003B0540902F01F02BFF35F8F09FA02F24BF8EB
S315020003C024204EF8242091F90E20497B02F00F04D6
S315020003D00AEB0205043C002A48BF04EB0C0509019E
S315020003E0297048F8220053F8221021F4803143F88C
S315020003F0221053F82210510902F01F02BFF35F8F39
S3150200040009FA02F24BF821204EF821209F210069B9
S315020004100170BDE8000FF0BDD0B502AF82B0EFF3B8
S3150200042003804FF0704101EB00604CF20032801500
S31502000430C4F20002835823F4803383508058EFF3CA
S31502000440038001EB006040F27C418015C2F200217C
S315020004500C5894F82D0078B1E069002800F0C880A5
S315020004602168496AC97900293FD0A06B58B3D0E9FF
S315020004700012CDE9001227E0A069022804D82069FB
S31502000480017941F040010171E06901280ED120692C
S31502000490017941F0100101712069017941F00801E9
S315020004A001712069017901F0EF0101712068406A4A
S315020004B0C07900287CD0A06B002868D0D0E9001251
S315020004C0CDE9001264E06846E16B01600521017125
S315020004D0616B8847A06B00281CBFDDE90012C0E9EA
S315020004E00012002084F82B00E069012819D00228A6
S315020004F007D003286FD12069017941F040010171CB
S3150200050069E02069017941F01001017120690179E0
S3150200051041F0080101712069017901F0EF010171D1
S3150200052059E094F82A0000284DD020684EF2801334
S31502000530CEF2000390F90F00420900F01F010120DC
S3150200054000FA01F143F82210BFF34F8FBFF36F8F0A
S315020005502169CA7942F08002CA7121690A7942F098
S3150200056010020A7121690A7902F0F7020A712169F9
S315020005700A7902F0EF020A71216904224A7021699E
S315020005804A7902F0FE024A7184F82C0023E068469A
S31502000590E16B016005210171616B8847A06B002840
S315020005A01CBFDDE90012C0E90012002084F82B000E
S315020005B02069C07C8DF800009DF80000012084F8B7
S315020005C02D0002B0D0BD2069417A01F0F7014172D7
S315020005D0206908214170D4E90401C07C226A88544A
S315020005E0D4E90701013801F10101C4E9070101D08B
S315020005F002B0D0BD2069017901F0BF01017102B0DC
S31502000600D0BDB0B502AF82B0EFF303804FF07041B8
S3150200061001EB00604CF200358015C4F20005425928
S3150200062022F4803242514059EFF3038001EB00601D
S3150200063040F27C418015C2F200210C5894F8270042
S31502000640D0B194F82600032806D194F8280002288F
S3150200065002D194F8300090B1206994F82410817484
S3150200066094F8280094F82710013084F82800481ED0
S3150200067084F8270002B0B0BD94F8290008B102B090
S31502000680B0BD2068406AC079E0B194F82B00C8B9C1
S31502000690206AB8B1A06B20B1D0E90012CDE90012F0
S315020006A000E06846E16B016005210171616B8847D4
S315020006B0A06B00281CBFDDE90012C0E90012002071
S315020006C084F82B00E06960B1D4E90401226A895CEE
S315020006D08174D4E90701013801F10101C4E9070176
S315020006E0CDD12069C17901F07F01C17120696FF016
S315020006F0BE0190F90720B2F1FF3F03DC002901F1A8
S315020007000101F6D1206890F9100055F8201021F465
S31502000710803145F8201055F82000206890F9100025
S3150200072000280CD4C0B21C214EF2802300F01F0216
S3150200073001EAD000CEF2000301219140C1502069A6
S31502000740C17941F04001C17102B0B0BDD0B502AF6E
S3150200075082B0EFF303804FF0704101EB006040F28C
S315020007607C418015C2F200210C582068406AC0798B
S31502000770B8B1A06B20B1D0E90012CDE9001200E0B9
S315020007806846E16B016005210171616B8847A06BC8
S3150200079000281CBFDDE90012C0E90012002084F81F
S315020007A02B0094F8290030B194F82700012802D1D1
S315020007B094F8300078B3E06968BB94F82A0010B365
S315020007C020684EF28013CEF20003012290F90F0048
S315020007D000F01F01400902FA01F143F82010BFF3AD
S315020007E04F8FBFF36F8F2069C17941F08001C171CC
S315020007F02069042141702069417901F0FE014171AD
S3150200080084F82C2007E02069417A01F0F701417251
S315020008102069082141702069C17901F0BF01C171C7
S3150200082020696FF0BE01C279520603D5002901F193
S315020008300101F8D1EFF303804FF0704101EB006044
S315020008404CF200318015C4F20001425822F4803283
S315020008504250405802B0D0BDF0B503AF4DF804BDCA
S3150200086082B0EFF303804FF0704101EB006040F27B
S315020008707C418015C2F200210C5821694A7A4B7AD2
S3150200088002F01F0002F003020F2803F0E0034B728E
S3150200089001D83AB939E021694B785B0658BF42F074
S315020008A001027AB3012584F82B5020690026C6710D
S315020008B020462168FFF7C2FC94F82600A16984F855
S315020008C028002069C4E90761B32184F82C6084F802
S315020008D02A60C171A06B20B1D0E90012CDE90012E5
S315020008E000E06846E16B01600571616B8847A06BA9
S315020008F000281CBFDDE90012C0E90012002084F8BE
S315020009002B0069E04A78520629D4010715D494F8D7
S315020009102C10002918BF10F0040138D140075BD50E
S315020009202068406AC079002856D0A06B002867D09C
S31502000930D0E90012CDE9001263E0254615F82B0F27
S3150200094058B3A1690020C4E9070194F8261084F877
S315020009502810012184F82C0084F82A0023E00120C3
S3150200096084F82B000820487020682369406A417980
S315020009700278807942EA011141EAC01040F0020091
S31502000980D8702069417941F00101417124E0254680
S3150200099015F82B0F08B1012108E094F8290002216D
S315020009A0002851EA11912069B322C271A06B20B1CD
S315020009B0D0E90023CDE9002300E06846E26B02603D
S315020009C00171616B8847A06B00281CBFDDE900122C
S315020009D0C0E9001200202870EFF303804FF0704147
S315020009E001EB00604CF200318015C4F2000142585E
S315020009F022F480324250405802B05DF804BBF0BD8A
S31502000A006846E16B0160042101716EE74EF2240132
S31502000A10C4F201018878097801F00F02A2F10801F7
S31502000A2003293BD8DFE801F0022C101E40F20041F8
S31502000A30C2F2002151F820004AF6AB21CAF6AA21D9
S31502000A40A0FB0101480830E040F20041C2F2002159
S31502000A5051F820004AF6AB21CAF6AA21A0FB0101F1
S31502000A60C80822E040F20041C2F2002151F82000FB
S31502000A704AF6AB21CAF6AA21A0FB0101080914E035
S31502000A8040F20041C2F2002151F820004AF6AB21A1
S31502000A90CAF6AA21A0FB0101880806E040F200413D
S31502000AA0C2F2002151F82000D04040F29841C2F231
S31502000AB0002108607047D4D4D4D4D4D4D4D4D4D4A6
S31502000AC0F0B503AF2DE9000F81B04EF2FA394CF2C0
S31502000AD004144AF20150C4F20109C4F20104CFF629
S31502000AE0FF700230A9F8000001202080208808B19A
S31502000AF02FF005C0BEA040F2004BC2F2002B4EF210
S31502000B002406012190ED001FC4F2010643F60000FF
S31502000B1024F8041CC1F69C408BED001F4FF40041E3
S31502000B20CBE90410CBE90700B078317801F00F0267
S31502000B30A2F1080103292BD8DFE801F002200C16E6
S31502000B404AF6AB215BF82000CAF6AA21A0FB0101F6
S31502000B50480820E04AF6AB215BF82000CAF6AA2133
S31502000B60A0FB0101C80816E04AF6AB215BF820009B
S31502000B70CAF6AA21A0FB010108090CE04AF6AB213C
S31502000B805BF82000CAF6AA21A0FB0101880802E050
S31502000B905BF82000D04040F2984A4EF60045C2F279
S31502000BA0002AC4F2010506214EF60148CAF80000E1
S31502000BB04FF65060CFF6FF70C4F20108295409209F
S31502000BC086F87E00287820B998F80000800700F0A1
S31502000BD00381287840B901202870C820012100F03D
S31502000BE051F928780128FCD1002088F800002870E5
S31502000BF00020B073307E0007FCD545F60170B08048
S31502000C0040F2111030850020B071307E8006FCD58E
S31502000C1042F232350420C3F21215207605F18070B5
S31502000C2046F8040C022030700520B070B078317896
S31502000C3001F00F02A2F1080103292BD8DFE801F027
S31502000C4002200C164AF6AB215BF82000CAF6AA214E
S31502000C50A0FB0101480820E04AF6AB215BF8200020
S31502000C60CAF6AA21A0FB0101C80816E04AF6AB2182
S31502000C705BF82000CAF6AA21A0FB010108090CE0D4
S31502000C804AF6AB215BF82000CAF6AA21A0FB0101B5
S31502000C90880802E05BF82000D040CAF800009620DF
S31502000CA00121012400F0EEF8347046F8045CB078B5
S31502000CB0317801F00F02A2F1080103292DD84AF278
S31502000CC00154DFE801F002200C164AF6AB215BF86C
S31502000CD02000CAF6AA21A0FB0101480822E04AF632
S31502000CE0AB215BF82000CAF6AA21A0FB0101C808C5
S31502000CF018E04AF6AB215BF82000CAF6AA21A0FB4F
S31502000D00010108090EE04AF6AB215BF82000CAF69B
S31502000D10AA21A0FB0101880804E05BF820004AF240
S31502000D200154D040CAF800009620012100F0AAF82A
S31502000D300520B070B078317801F00F02A2F10801F7
S31502000D4003292BD8DFE801F002200C164AF6AB2164
S31502000D505BF82000CAF6AA21A0FB0101480820E0A0
S31502000D604AF6AB215BF82000CAF6AA21A0FB0101D4
S31502000D70C80816E04AF6AB215BF82000CAF6AA219B
S31502000D80A0FB010108090CE04AF6AB215BF8200042
S31502000D90CAF6AA21A0FB0101880802E05BF820003E
S31502000DA0D04042F20001CAF80000C4F2000101205C
S31502000DB04FF425420C80BFF35F8F0872BFF35F8F3B
S31502000DC00A80307386F82E0086F82F00A9F80020D4
S31502000DD001B0BDE8000FF0BD4FF47A7000F010F8D4
S31502000DE006E700BF00BF00BF00BF00BF00BF00BFD5
S31502000DF0006CDC0200127A0000800000002D310136
S31502000E007047B0B502AF42F22404C820C4F22004EF
S31502000E1001210025257100F035F82570207808B1EA
S31502000E202FF005C0207840F002002070207880075D
S31502000E30FCD4002004F8020C14F8020C08B12FF0BE
S31502000E4005C84FF0030E002004F11C0111F8102012
S31502000E5002F07F0201F8102011F91020002AFBD4BB
S31502000E6001300FF00DC8012000F0B8F84EF64C41E3
S31502000E700120C4F2010100220A70BDE8B04000F070
S31502000E8083B8704740F2984241F20023C2F2002230
S31502000E90C0F27A03484312689A420FD344F23F21C2
S31502000EA0C0F20F0111444DF68362C4F21B32A1FB5C
S31502000EB00212910CA0FB0101C9B11DE04CF6002102
S31502000EC0C3F69A31B1FBF2F148F63812C0F241028A
S31502000ED0904205D24FF47A725043B0FBF1F006E02D
S31502000EE0B0FBF1F0904207D24FF47A7148430028E2
S31502000EF008BF704700F004B84FF0FF3000F000B8AA
S31502000F0001380028FCD17047F0B503AF4DF8048DC7
S31502000F104CF2201840F23844C4F200080026C2F20D
S31502000F20002438F8200CB8F80010084085B203E017
S31502000F3001360434102E09D025FA06F0C007F7D080
S31502000F4021680029F4D0F0B28847F1E728F8105C4E
S31502000F50B8F800002842FBD15DF8048BF0BD80B5DD
S31502000F606F464FF0040E4CF2003041F28831C4F263
S31502000F700000C0F2002131F8022B002A18BF0260DD
S31502000F8004300FF009C080BD0122EFF3108182F315
S31502000F90108840F28C42C2F2002232F8103023B19D
S31502000FA032F81030013B22F8103032F8102012B11C
S31502000FB081F3108870474EF2FA3241F2345CC4F281
S31502000FC00102C0F2002C13883CF8100043F42543BA
S31502000FD023EA0000108081F310887047D0B502AF73
S31502000FE00122EFF3108182F3108840F28C42C2F2A2
S31502000FF0002232F8103083B94EF2FA3E41F2345CE6
S31502001000C4F2010EC0F2002CBEF800403CF81030CB
S31502001010234343F42543AEF8003032F8103001334F
S3150200102022F8103081F31088D0BD80B56F4600F0EB
S3150200103007F8FFF71BF8FEE700BE7047D4D4D4D4F6
S31502001040F0B503AF2DE900074EF6085840F201202D
S31502001050CEF20008C0F20E004EF20004C8F80C00F0
S31502001060CEF20104BFF34F8FBFF36F8F58F8080C0F
S31502001070226842F004022260C0F3035110F00F0FFF
S315020010805FEA0F900129BFF34F8FBFF36F8F5FEABD
S31502001090108001290CD858B94EF20800CEF2000091
S315020010A0016841F480310160BFF34F8FBFF36F8F48
S315020010B04FF4700040F20001C8F880000020C0F230
S315020010C00021C8F80010FEF7C4FFFFF7F9FC012063
S315020010D0FEF7BFFF40F20000C2F2002080F30A884A
S315020010E02068800724D5D8F80000B0F1007F1FD110
S315020010F020694FF40071C0F3C300626901FA00F37C
S31502001100C2F3C30081400020DA080646CB08014636
S3150200111042F007C000BF00BFE6E802010FF005C0BB
S315020011204FF0005243F005C0E2E802010FF005C09D
S3150200113041F2B039C0F20029D9F800508DB1D9F880
S3150200114004002E46041D03E0013E04F10C0408D0FF
S3150200115060790028F8D154E90101091A00F0E0F893
S31502001160F2E7D9F808A0BAF1000F13D0D9F80C00AB
S31502001170564600F1080403E0013E04F1100409D0CA
S3150200118060790028F8D154E902022168121A00F0A7
S31502001190CBF8F1E7FFF73AFCFFF733FE0320FFF740
S315020011A01DFF4FF00C0E40F63050C4F240000021F5
S315020011B020F8041B0FF005C04EF210140320C4F2EF
S315020011C00104FFF7E1FE0320FFF708FF44F20400E3
S315020011D00021C4F22000016041608160C1600320E9
S315020011E0FFF7D2FED4F8C80210B1D4F8C80211E053
S315020011F0207878B10120FFF7F1FE207800F0C000D8
S315020012008028FAD10020207020783F28FCD80120BF
S31502001210FFF7BAFE0220FEF71CFF9DB1D9F80400C3
S315020012204FF48076041D03E0013D04F10C0409D05D
S315020012306079B6EB002FF7D154E90101091A00F0E3
S315020012406FF8F1E7BAF1000F16D0D9F80C004FF497
S31502001250807500F1080404E0BAF1010A04F11004F1
S315020012600AD06079B5EB002FF6D154E90202216863
S31502001270121A00F059F8EFE740F2A444C2F2002431
S31502001280204600F02DF8204600F040F8BFF34F8FBD
S31502001290002041F28E51BFF36F8FC8F8480241F227
S315020012A08E50C0F20020C0F20021BFF34F8F081A01
S315020012B0BFF36F8F8410012C08DB41F28E55C0F20A
S315020012C0002555F8040B8047013CFAD1FFF747FE8B
S315020012D00020BDE80007BDE8F040FFF7D2BDD4D438
S315020012E0D0B502AF05490446054A00F01DF8054887
S315020012F00549204400F014F8D0BD00BF500000029A
S315020013000000000000000000000000000249401A30
S3150200131002490860704700BF08000000A0040022CE
S315020013200A46002100F00AB8D0B502AF00239A425D
S3150200133003D0CC5CC4540133F9E7D0BD00239A42F2
S3150200134008BF7047C1540133F9E7D4D40000010045
S31502001350080200000000010009020000000001006E
S315020013600A020000000001000B020000000401074F
S3150200137009040000000401070A0400000600000038
S315020013804C130002000000005C005D005E005F007E
S31502001390020403040404D4D40000006800000068B8
S315020013A000000080000000800000002200000022F1
S315020013B009000000C81300021000000034140002E5
S315020013C00300000098130002000000680000006895
S315020013D00001000D00000068000000680001000D19
S315020013E0000000800000008000010008000000806C
S315020013F0000000800001000800000000000000005C
S315020014000100000500000020000000200100000489
S315020014100000002200000022000000033004002227
S31502001420A404002200000003A4040022A404002253
S315020014300000000300000068000000680000009041
S315020014400001090D00000068000000680000002786
S315020014500001020D00000068000000685000000252
S315020014600001010D000000800000008000000090D5
S31502001470000109080000008000000080000000272B
S3150200148000010208000000800000008050000002F7
S3150200149000010108000000000000000000000090AA
S315020014A001010905000000000000000000000027FD
S315020014B001000205000000000000000050000002CA
S315020014C0010001050000002000000020000000903D
S315020014D0010109040000002000000020000000278E
S315020014E0010002040000002000000020500000025B
S315020014F0010001040000002200000022000000900A
S31502001500000109030000002200000022000000275B
S315020015100000020300000022000000225000000228
S3150200152000000103A4040022A404002250000002C9
S315020015300000010301000200080010002000D4D4BC
S3150200154000000106362E312E30004275696C742079
S31502001550776974682052656E65736173204164769B
S31502001560616E63656420466C657869626C652053BA
S315020015706F667477617265205061636B616765207F
S3130200158076657273696F6E20362E312E30003C
S3090300A100FFFFFFFF56
S3090300A104FFFFFFFF52
S3090300A200FFFFFFFD57
S3090300A28000000000D1
S7050200102BBD
