S00C000070756D702E7372656356
S3150000000000040020590A0000E5080000690A000003
S31500000010690A0000690A0000690A0000690A00000E
S31500000020000000000000000000000000690A000057
S31500000030690A000000000000690A0000690A000061
S3150000004080B56F4640F22045C2F2000544F24024D6
S315000000502846C0F20F0400F0D7FD2846012100F023
S3150000006013FE284600F03CFE28464FF4FA7100F0D5
S31500000070F3FD0120214600F0EFFB284642F2107105
S3150000008000F0EAFD0120214600F0E6FBECE7D4D4BF
S31500000090022818BF704740F2304040F67461C2F241
S315000000A00000C0F2000100F007B8D4D480B56F4656
S315000000B0FFF7C6FF002080BD80B56F4645F254228B
S315000000C0C5F24F020260084600F018F8002080BD15
S315000000D0C8B2012383409BB24FF4803C002A08BF7C
S315000000E00CFA00F36FF0010000EAD11008220101BA
S315000000F0C4F20802002053507047D4D4F0B503AFC1
S315000001002DE9000B04460088D0B340F6806843F220
S3150000011040090025C0F20008C4F2080904E000BF47
S315000001202088013585422BD2002608E009F8160002
S31500000130C820012100F090FB0136032EF0D0606844
S3150000014038F8162000EBC50189889142F4D150F8A1
S31500000150350000F0B85119F91600B1F1807F07D1CA
S315000001600028E9D419F8160060F07F00DEE700BF2A
S31500000170B0F1FF3FE0DC19F8160000F07F00D5E78C
S3150000018040F2984CEFF31081012080F31088C2F200
S31500000190000CDCF800203AB940F60352C4F208021B
S315000001A00023137040231370DCF800200132CCF8D2
S315000001B0002081F31088218829B340F6000E002123
S315000001C0C4F2080E08E000BF0EEB861040F825309A
S315000001D020880131814216D2636803EBC106B588D7
S315000001E053F831302E0AD803EDB2EDD50EEB86105A
S315000001F050F8252022F4803240F8252023F480325E
S3150000020040F82520E0E7EFF31081012080F3108805
S31500000210DCF8000020B1DCF800000138CCF8000062
S31500000220DCF8000038B940F60350C4F2080000229A
S3150000023002708022027081F31088BDE8000BF0BDC9
S31500000240F0B503AF4DF8048D0446087C012202FA8E
S3150000025000F0E06061602274087C49F20003C4F299
S31500000260160303EB0020A06048694FF0000E6061A2
S315000002708869C4F818E0E061D1F81C80EFF31083B8
S3150000028082F3108844F21005087CC4F208054FF08A
S3150000029000422E6822FA00F026EA0000286028684C
S315000002A083F31088A0684FF425430360A068C0F864
S315000002B02CE0A068C0F83CE0A068C0F848E00B78E5
S315000002C0087A032BA3684FEAC0504E6808BF00F5B2
S315000002D08030D862A0680261A0684261A06882612D
S315000002E0A068C0F824E0A068C0F828E0D8F8180094
S315000002F0A268D061D8F81C00A2681062A068721EBD
S315000003008266A06842660A78D8F838C0012A06D004
S3150000031042B948684FF0FF3202EB500337E04FF026
S31500000320FF3334E0A268CB68906E002B00F1010029
S3150000033018BF98422AD8526B666802F0100502F080
S315000003400C02043A3678B2FA82F252094FF0010EE4
S31500000350032E88BF8EEA15120025C0F20335002A47
S3150000036040F2000E1CBF0025C0F202259842C0F2E2
S31500000370022E84BF0025C0F20335002A18BFAE4600
S31500000380002B18BFAE464FF0FF3300E0013BA068DC
S315000003904365A06883650878042803D3A068C3650D
S315000003A0A0680366D8F83800B8BB98F80000B0B16A
S315000003B00A7898F80130022A03D0032A03D10322CF
S315000003C005E0092203E00922002B08BF06221801D6
S315000003D040EA8310104440EA0C0040F4807C98F810
S315000003E00200D0B10A7898F80330022A04D0032A12
S315000003F005D14FF4403208E04FF4102205E04FF4E7
S315000004001022002B08BF4FF4C022180540EA835083
S31500000410104440EA0C0040F0807C6068C36993F8A1
S315000004203020D00705D0986AA2680138D06493F8C6
S315000004303020900703D5D86AA26801381065087C79
S31500000440052802D8A06800224264A06800228263C0
S31500000450A068C0F88820D8F8380040B998F820007D
S3150000046098F82120400340EA42704CEA000C98F8C4
S3150000047030004FF4A0020028A06808BF4FF4AA027B
S3150000048002640878012804D1A0680022C264A0682A
S315000004900265A0684EF00302C0F834C0A06802638B
S315000004A0A0684EF001020263D4E90202C26091F92B
S315000004B01200497C224600F0B5F898F9240098F815
S315000004C02210224600F0AEF898F9250098F823107D
S315000004D0224600F0A7F845F25401C0F24701002079
S315000004E021605DF8048BF0BDD0E9021200204A605D
S315000004F07047D4D4F0B503AF4DF8048D846802F08C
S31500000500030CA36E002903F1010318BF8B4228D800
S31500000510D4F834E0102505EA021546682EFA05F5EA
S3150000052005F0100E05F00C053678043DB5FA85F594
S315000005306D09032E4FF003064FF0010888BF88EAC5
S315000005401E15002D18BF02268B4288BF0326334690
S31500000550002D08BF0223D4F830E0002918BF334627
S3150000056018E01507D4F830E04FF00405A1F10103B7
S3150000057058BF0225960704F14C0404D445EA0C053D
S3150000058044F8253005E044F82530846804EB8504FA
S3150000059023650023846855062AD4022A2DD163B325
S315000005A0A26E002902F1010218BF8A4225D8656BA6
S315000005B0406805F4801605F44025A5F580250078E9
S315000005C0B5FA85F56D094FF00108032888BF88EA5A
S315000005D016550326002D18BF02268A4288BF032619
S315000005E03046002D08BF0220002918BF304605E01E
S315000005F0216C41F480012164846818462EF4403150
S3150000060041EA0341BCF1010F18BF8E462EF040723D
S31500000610BCF1000F18BF42EA0061002021635DF8BB
S31500000620048BF0BD002848BF704780B56F464EF278
S31500000630001CC3B2CEF2000C4FEA011E43EA0C01C5
S3150000064081F800E340F29C41C2F2000141F8232008
S3150000065046F20031C4F2000151F8232022F4803220
S3150000066041F8232051F8231000F01F01012202FA5D
S3150000067001F11C2202EAD00040EA0C02BFF35F8FB0
S31500000680C2F8801140F80C1080BDD4D44EF2200080
S31500000690C4F20100817940F200420068C2F2000211
S315000006A052F82110C0F3026021FA00F040F2AC418A
S315000006B0C2F2000108607047F0B503AF2DE9000BE8
S315000006C04EF28044C4F201044CF204154AF203507F
S315000006D0C4F2010524F8820C01202880288800280D
S315000006E0FCD147F200010120C4F2000125F8040CF8
S315000006F08860086040F2004842F6005041F200214E
S31500000700C2F20008C0F23110C0F27A014EF22006A1
S315000007104FF400424CF2002388E8070008F10C0170
S31500000720C4F20106C0F6EB330DC1B079316858F852
S315000007302000C1F3026140F2AC49C840C2F2000990
S31500000740C9F80000002004F86D0C092086F8820024
S31500000750207810B9607880073FD0207848B901200A
S315000007602070C820012100F077F800BF207801280A
S31500000770FCD10020607020700020B074307F00072C
S31500000780FCD54FF4985030810020B072307F80063F
S31500000790FCD50320287641F22120C2F20000306009
S315000007A00520B071B079316858F82000C1F30261B4
S315000007B0C840C9F8000042F20C00C4F20000F12162
S315000007C00170012100F8041CF02101704FF425404E
S315000007D024F8820CBDE8000BF0BD4FF47A7000F0EF
S315000007E001F8C9E77047D4D4B0B502AF43F2240488
S315000007F0C4F208040025C8200121257100F02CF858
S31500000800257000BF20780028FCD1207840F0020037
S31500000810207000BF20788007FCD4002004F8020C6A
S3150000082014F8020C0028FBD10020012104F11C025F
S3150000083012F8103003F07F0302F8103012F910306E
S31500000840002BFBD4C9074FF001004FF0000108BF91
S31500000850B0BDEDE77047D4D440F2AC42C2F200021C
S31500000860126841F20023C0F27A039A4201FB00F0BB
S315000008700FD340F6FF01C0F23D0111444DF68362ED
S31500000880C4F21B32A1FB0212110DA0FB0101D9B16A
S315000008901FE04CF6002348F63811C3F69A33C0F22F
S315000008A04101B3FBF2F2884206D24FF47A71484313
S315000008B0B0FBF2F0800807E09200B0FBF2F088424D
S315000008C007D24FF47A714843002808BF704700F0FA
S315000008D005B84FF0FF3000F001B8D4D40138002835
S315000008E0FCD17047F0B503AF2DE9000B46F2201896
S315000008F0C4F20008B8F80000B8F8201040F25845D5
S3150000090001EA00091FFA89F60024C2F2000502E096
S315000009100134102C0AD026FA04F0C007F8D055F896
S3150000092024100029F4D0E0B28847F1E7A8F8109027
S31500000930BDE8000BF0BDD4D4F0B503AF4DF804BD4F
S3150000094084B048F248040320C4F2000400F05CF8C6
S3150000095040F60C71C0F200016FF0FF000E882060B7
S315000009604FF0FF3003900290002E01901CBF6FF0F5
S31500000970010001904EF28032002001A9CEF2000261
S3150000098051F8203004EB8005AB6242F8203001308C
S315000009900328F5D1032000F00BF8002E1EBF46F207
S315000009A00030C4F20000066004B05DF804BBF0BD80
S315000009B00122EFF3108182F3108840F2A042C2F2C6
S315000009C0000232F8103023B132F81030013B22F821
S315000009D0103032F8102012B181F3108870474EF2B1
S315000009E0FE3CC4F2010C40F60E72BCF80030C0F2B8
S315000009F0000232F8100043F4254222EA0000ACF867
S31500000A00000081F31088704780B56F460122EFF32E
S31500000A10108182F3108840F2A042C2F2000232F83E
S31500000A2010308BB94EF2FE3C40F60E73C4F2010C48
S31500000A30C0F20003BCF800E033F8103043EA0E03BE
S31500000A4043F42543ACF8003032F81030013322F875
S31500000A50103081F3108880BD80B56F4600F006F82F
S31500000A60FFF724FBFEE7D4D400BE7047F0B503AF12
S31500000A702DE9000B4EF60850CEF200004FF470013F
S31500000A80C0F8801040F20001C0F2000101600020B1
S31500000A90FFF7FEFAFFF710FE0120FFF7F9FA40F61E
S31500000AA09068C0F20008D8F8006040F20000C2F278
S31500000AB0000080F30A8896B1D8F804003546041D74
S31500000AC004E000BF013D04F10C0408D06079002861
S31500000AD0F8D154E90101091A00F030F9F2E7D8F823
S31500000AE00890B9F1000F13D0D8F80C004D4600F16C
S31500000AF0080403E0013D04F1100409D060790028E0
S31500000B00F8D154E902022168121A00F01BF9F1E744
S31500000B10FFF7BCFDFFF768FE0320FFF775FF40F601
S31500000B200E510920C4F208014FF6FF72013821F870
S31500000B30022FFBD10320FFF73BFF0320FFF764FFE3
S31500000B400420C4F20E000021016041608160C16092
S31500000B500320FFF72DFF0220FFF79AFAA6B1D8F877
S31500000B6004004FF48075041D04E000BF013E04F14B
S31500000B700C0409D06079B5EB002FF7D154E90101D7
S31500000B80091A00F0DBF8F1E7B9F1000F16D0D8F832
S31500000B900C004FF4807600F1080404E0B9F1010975
S31500000BA004F110040AD06079B6EB002FF6D154E9AF
S31500000BB002022168121A00F0C5F8EFE740F2C444B9
S31500000BC0C2F20004204600F08FF8204600F0A2F89A
S31500000BD040F6667040F66671C0F20000C0F2000191
S31500000BE0091A8C10012C06DB051F00BF55F8040FEF
S31500000BF08047013CFAD1FFF79FFE0020BDE8000BBD
S31500000C00BDE8F040FFF726BED0B502AF0446C06887
S31500000C10002818BF00F0A8F8002140F238402160F3
S31500000C20217240F62C61C2F20000C0F20001E060C1
S31500000C30FFF706FB2168E06840F20312FFF75AFC53
S31500000C4040F23040C2F200004FF481710122BDE84B
S31500000C50D040FFF73DBAD4D4B0B502AF40F62C620F
S31500000C60C0F2000252680C468A42054603D2E86882
S31500000C7000212A6002E0E8682C60111B40F2031292
S31500000C80FFF738FC6C60B0BDD0B502AF0229044650
S31500000C9007D001290BD021B90021216004F8081FD3
S31500000CA00AE040F62C60C0F20000416800E061688E
S31500000CB00120216004F8080F40F23840C2F200001B
S31500000CC040F20312FFF716FC227840F23040C2F2DF
S31500000CD000004FF48171BDE8D040FFF7F9B9D4D4D4
S31500000CE0C068FFF701BCD4D4D0B502AF05490446AD
S31500000CF0054A00F027F805480549204400F01EF88B
S31500000D00D0BD00BF40000000000000000000000051
S31500000D10040000000249401A02490860704700BFFB
S31500000D2008000000B0040020D4D4D4D4D4D4D4D441
S31500000D300148006870470000B00400200A46002100
S31500000D4000F00AB8D0B502AF00239A4203D0CC5CBB
S31500000D50C4540133F9E7D0BD00239A4208BF704757
S31500000D60C1540133F9E7D4D4D0B502AFC0B10446BB
S31500000D7000202060194800F037F81949086880B14A
S31500000D80A0420ED850F8041C4218A2420ED0A0422F
S31500000D900146F3D113490C22FFF7CAFF425017E070
S31500000DA0D0BD20600C6054F8041C07E054F8042CF5
S31500000DB004461144026840F8041C10466218824238
S31500000DC006D1026850F8040C2260084444F8040C6A
S31500000DD00248BDE8D04000F008B800BFB4040020C7
S31500000DE0B8040020080000007047704701010000A9
S31500000DF000000000000000000000000000000000ED
S31500000E000000000000000000000000000000FFFFDE
S31500000E10DFDF00000000000000000000000000000E
S31500000E2000000000000000000000000000000000BC
S31500000E30A00F000000000000D007000002FFDF0046
S31500000E400000000000000000EC0D0000050000009E
S31500000E50020100000000010303010000050000007C
S31500000E60040100000000010008010000000001006C
S31500000E7000030000050000004C0E0000000000000A
S31500000E80020403040404D4D400000020000000205F
S31500000E9003000000A80E000004000000CC0E0000B5
S31500000EA001000000880E0000000000200000002065
S31500000EB00000000320040020C404002000000003FA
S31500000EC0C4040020C8040020000000030000002025
S31500000ED0000000200000006000010C03000000205C
S31500000EE000000020000000080000020300000020AF
S31500000EF0000000204000000000000103C4040020A0
S31500000F00C4040020400000000000010300000100AE
S31500000F10020008001000200000000106362E312EC7
S31500000F2030004275696C7420776974682052656E6A
S31500000F306573617320416476616E63656420466CF7
S31500000F40657869626C6520536F6674776172652097
S31500000F505061636B6167652076657273696F6E2099
S30B00000F60362E312E300092
S3090100A100FFFFFFFF58
S3090100A200FFFDFFFF59
S70500000A5997
