S01C000077617465725F7175616C6974795F73656E736F722E7372656384
S31500000000200400209D0C0000090B0000AD0C000030
S31500000010AD0C0000AD0C0000AD0C0000AD0C0000F6
S31500000020000000000000000000000000AD0C000011
S31500000030AD0C000000000000AD0C0000AD0C00008F
S31500000040490500007D04000021060000A506000009
S31500000050490500007D04000021060000A5060000F9
S30D000000604000350040003500A8
S3150000006880B56F4640F28C4041F2440144F2402488
S31500000078C2F20000C0F20001C0F20F0400F030F82E
S3150000008840F24045C2F20005284600F0DBFE40F289
S315000000984846C2F2000600BF2846002100F0EAFEE4
S315000000A80320214600F0E6FC304600F0F1FE03206E
S315000000B8214600F0DFFCEFE7022818BF704740F240
S315000000C8844041F2C801C2F20000C0F2000100F00B
S315000000D83DBBD4D480B56F46FFF7C2FF002080BD74
S315000000E8F0B503AF2DE9000F0246087848F2000381
S315000000F8C4F2110303EB00204FF00008106282F8E7
S315000001080080D1614B694EF2001C53628B69C2F8BC
S315000001182880D3629378CEF2000C23F003035E1C8A
S3150000012896704E784FF0010E002E04BF43F002037E
S31500000138937091F90B008D7A00F01F040EFA04F6FD
S315000001480CF18004430944F8236046F20039BFF3F2
S315000001584F8FC4F20009BFF36F8F59F8203040F271
S31500000168305A23F4803349F8203059F820302B01CF
S315000001780CF54075C2F2000A2B544AF8202091F972
S31500000188050091F804B000F01F060EFA06F64309BA
S3150000019844F82360BFF34F8FBFF36F8F59F82030B1
S315000001A823F4803349F8203059F820304FEA0B13EE
S315000001B82B544AF8202091F9070091F806B000F070
S315000001C81F060EFA06F6430944F82360BFF34F8F5D
S315000001D8BFF36F8F59F8203023F4803349F8203065
S315000001E859F820304FEA0B132B544AF8202091F97E
S315000001F8090091F808B000F01F060EFA06F6430942
S3150000020844F82360BFF34F8FBFF36F8F59F8203040
S315000002184FF0004423F4803349F8203059F8203051
S315000002284FEA0B132B544AF82020EFF310808EF375
S31500000238108844F204050B78C4F208052E6824FADF
S3150000024803F326EA03032B602B6880F31088106AF1
S3150000025880F80280106A80F80480106A80F80980A5
S31500000268106A80F80A80106A80F80B80106AA0F875
S315000002781A8008780EFA00F340F20120034202D0F1
S31500000288136A4024DC74136A06241C770B780EFA6A
S3150000029803F3034203D0106A4FF478438382C87885
S315000002A84E788B78C00040EA03102EB1032E08BFA3
S315000002B840F04000F22600E0E226136A0025187096
S315000002C8106A8671C8690226037B06EA4306082B6C
S315000002D8136A08BF0A265E73166A437884783572ED
S315000002E80678156A06F0FE06022E4FEAC31664F370
S315000002F8451609D1FF236B7000780228106A08BFDB
S3150000030846F01006C67116E0EE714068136A8678E4
S315000003185E7046781D7806F0030605F0FC052E4447
S315000003281E70C6789E74DE79007806F0A30600F083
S315000003385C003044D8710020D369C2E90300C2E9E1
S315000003480500C86993F90530017859F8236003F068
S315000003581F0526F4803649F8236059F823600126DC
S3150000036806FA05F40CF5C0755B09BFF35F8F45F80F
S3150000037823404CF82340D36993F90B3059F82340AE
S3150000038824F4803449F8234059F8234003F01F0425
S3150000039806FA04F45B09BFF35F8F45F823404CF86F
S315000003A82340D36993F9073059F8234024F480345D
S315000003B849F8234059F8234003F01F0406FA04F4C9
S315000003C85B09BFF35F8F45F823404CF82340D36998
S315000003D893F9093059F8234024F4803449F8234026
S315000003E859F8234003F01F04A6405B09BFF35F8F4B
S315000003F845F823604CF823601C23166A63F39F01B3
S31500000408B170408944F65511C5F243311081002078
S315000004185160BDE8000FF0BD03460020C3E9051290
S315000004287047D4D480B56F46D0F820E09EF802C055
S315000004380CF07B038EF80230837803F00303A2EBFB
S31500000448030C0B44026AC0E9033C937843F080032B
S315000004589370827802F00302022A06D10988006A9C
S3150000046841F47E41C181002080BD0978006AC170CF
S31500000478002080BDD0B502AF84B0EFF303804FF003
S31500000488704101EB006046F200318015C4F20001AC
S31500000498425822F480324250415840F23051C2F25A
S315000004A800010C58E0690169206911B1E0B104B096
S315000004B8D0BDC8B1A07800F00301E068022905D1D3
S315000004C80088216A40F47E40C88102E00078216AEB
S315000004D8C870A078216900F00302881AE1682061D3
S315000004E81144E1600028E2D1206A817801F07B019D
S315000004F804318170606A00284FF00000E060D6D0B1
S31500000508A06A40B1D0E900C2D0E90213CDE900C221
S31500000518CDE9021300E06846E16909780160002127
S31500000528816080210171E16AC160616A8847A06AB9
S3150000053800281CBF9DE81E001EC004B0D0BDD4D440
S31500000548D0B502AF86B0EFF303804FF0704101EBF0
S31500000558006046F200318015C4F20001425822F4C8
S3150000056880324250415840F23051C2F200010C58D4
S31500000578A07800F00302206A022A03D1018A6FF3E9
S315000005885F2100E04179A0690191D0B1606901A9B4
S3150000059800F038FDA0786169A26900F00300014403
S315000005A8101A6161A06134D1606A90B3A06AE0B1A3
S315000005B8D0E900C2D0E90213CDE902C2CDE904139D
S315000005C814E0606A28B3A06A40B1D0E900CED0E949
S315000005D80232CDE902CECDE9043200E002A8E26992
S315000005E8127881600260042106E002A8E1690978B0
S315000005F801600021816001210171E16AC160616ABF
S315000006088847A06A28B102AC1ECC016042608360AC
S31500000618C46006B0D0BDD4D4B0B502AF84B0EFF391
S3150000062803804FF0704101EB006040F230528115B3
S31500000638C2F2000255580416296A8A7802F07B022B
S315000006488A70696AE1B1A86A40B1D0E900C2D0E906
S315000006580213CDE900C2CDE9021300E06846E96954
S31500000668097801600021816002210171E96AC1608F
S31500000678696A8847A86A00281CBF9DE82E002EC014
S3150000068846F20030C4F2000050F8241021F48031FC
S3150000069840F8241050F8240004B0B0BDF0B503AFFC
S315000006A84DF804BD84B0EFF303804FF0704101EBC1
S315000006B8006040F230528115C2F200025458A17807
S315000006C8236A01F00301022903D1198A6FF35F2116
S315000006D800E059791A79D50602F0380204D51D7F4B
S315000006E865F3861282F040021D7905F0C7051D7173
S315000006F8636A0516D3B1A06A40B1D0E900CED0E945
S315000007080263CDE900CECDE9026300E06846E369FD
S315000007181B78816003600271E16AC160616A88477B
S31500000728A06A00281CBF9DE84E004EC046F2003065
S31500000738C4F2000050F8251021F4803140F8251045
S3150000074850F8250004B05DF804BBF0BD80B56F46CF
S3150000075845F25422C5F24F020260084600F002F83C
S31500000768002080BDF0B503AF2DE9000B04460088D4
S31500000778D0B341F2E40843F240090025C0F200086C
S31500000788C4F2080904E000BF2088013585422BD24F
S31500000798002608E009F81600C820012100F06AF9C9
S315000007A80136032EF0D0606838F8162000EBC50134
S315000007B889889142F4D150F8350000F0B85119F9FA
S315000007C81600B1F1807F07D10028E9D419F8160080
S315000007D860F07F00DEE700BFB0F1FF3FE0DC19F80C
S315000007E8160000F07F00D5E740F22C5CEFF310818D
S315000007F8012080F31088C2F2000CDCF800203AB918
S3150000080840F60352C4F20802002313704023137003
S31500000818DCF800200132CCF8002081F3108821880A
S3150000082829B340F6000E0021C4F2080E08E000BF06
S315000008380EEB861040F8253020880131814216D209
S31500000848636803EBC106B58853F831302E0AD8031E
S31500000858EDB2EDD50EEB861050F8252022F4803245
S3150000086840F8252023F4803240F82520E0E7EFF30E
S315000008781081012080F31088DCF8000020B1DCF834
S3150000088800000138CCF80000DCF8000038B940F662
S315000008980350C4F20800002202708022027081F31D
S315000008A81088BDE8000BF0BD4EF22000C4F201002E
S315000008B8817940F220420068C2F2000252F8211003
S315000008C8C0F3026021FA00F040F25C51C2F2000166
S315000008D808607047F0B503AF2DE9000B4EF280446F
S315000008E8C4F201044CF204154AF20350C4F201059D
S315000008F824F8820C0120288028880028FCD147F299
S3150000090800010120C4F2000125F8040C8860086083
S3150000091840F2204842F6005041F20021C2F2000897
S31500000928C0F23110C0F27A014EF220064FF40042AE
S315000009384CF2002388E8070008F10C01C4F201060E
S31500000948C0F6EB330DC1B079316858F82000C1F311
S31500000958026140F25C59C840C2F20009C9F80000B9
S31500000968002004F86D0C092086F88200207810B95A
S31500000978607880073FD0207848B901202070C820C9
S31500000988012100F077F800BF20780128FCD100206B
S31500000998607020700020B074307F0007FCD54FF4DB
S315000009A8985030810020B072307F8006FCD5032035
S315000009B8287641F22120C2F2000030600520B0718D
S315000009C8B079316858F82000C1F30261C840C9F807
S315000009D8000042F20C00C4F20000F121017001216E
S315000009E800F8041CF02101704FF4254024F8820C0D
S315000009F8BDE8000BF0BD4FF47A7000F001F8C9E7C6
S31500000A087047D4D4B0B502AF43F22404C4F2080444
S31500000A180025C8200121257100F02CF8257000BF9B
S31500000A2820780028FCD1207840F00200207000BF12
S31500000A3820788007FCD4002004F8020C14F8020C75
S31500000A480028FBD10020012104F11C0212F8103005
S31500000A5803F07F0302F8103012F91030002BFBD494
S31500000A68C9074FF001004FF0000108BFB0BDEDE720
S31500000A787047D4D440F25C52C2F20002126841F2C6
S31500000A880023C0F27A039A4201FB00F00FD340F626
S31500000A98FF01C0F23D0111444DF68362C4F21B32D8
S31500000AA8A1FB0212110DA0FB0101D9B11FE04CF602
S31500000AB8002348F63811C3F69A33C0F24101B3FB56
S31500000AC8F2F2884206D24FF47A714843B0FBF2F04C
S31500000AD8800807E09200B0FBF2F0884207D24FF494
S31500000AE87A714843002808BF704700F005B84FF0F0
S31500000AF8FF3000F001B8D4D401380028FCD1704783
S31500000B08F0B503AF2DE9000B46F22018C4F2000831
S31500000B18B8F80000B8F8201040F2EC4501EA0009E0
S31500000B281FFA89F60024C2F2000502E00134102CEF
S31500000B380AD026FA04F0C007F8D055F82410002980
S31500000B48F4D0E0B28847F1E7A8F81090BDE8000BAA
S31500000B58F0BDD4D4F0B503AF4DF804BD84B048F267
S31500000B6848060320C4F2000600F06CF86FF0FF0098
S31500000B7841F2D40430604FF0FF300021C0F2000487
S31500000B880122CDE9020000BF34F8113002FA01F55E
S31500000B98002B01F1010118BFA8430829F4D14EF230
S31500000BA880320190002001A9CEF2000251F82030CF
S31500000BB806EB8005AB6242F8203001300328F5D1F8
S31500000BC8032000F013F846F200310020C4F20001B9
S31500000BD834F81020002A18BF41F8202001300828D0
S31500000BE8F6D104B05DF804BBF0BDD4D40122EFF30E
S31500000BF8108182F3108840F25052C2F2000232F895
S31500000C08103023B132F81030013B22F8103032F898
S31500000C18102012B181F3108870474EF2FE3CC4F2E0
S31500000C28010C41F27012BCF80030C0F2000232F832
S31500000C38100043F4254222EA0000ACF8000081F3D4
S31500000C481088704780B56F460122EFF3108182F352
S31500000C58108840F25052C2F2000232F810308BB9B6
S31500000C684EF2FE3C41F27013C4F2010CC0F20003CE
S31500000C78BCF800E033F8103043EA0E0343F425438A
S31500000C88ACF8003032F81030013322F8103081F316
S31500000C98108880BD80B56F4600F006F8FFF71AFA8F
S31500000CA8FEE7D4D400BE7047F0B503AF2DE9000BBC
S31500000CB84EF60850CEF200004FF47001C0F88010CE
S31500000CC840F20001C0F2000101600020FFF7F4F9CC
S31500000CD8FFF700FE0120FFF7EFF941F2F408C0F232
S31500000CE80008D8F8006040F22000C2F2000080F345
S31500000CF80A8896B1D8F804003546041D04E000BFFA
S31500000D08013D04F10C0408D060790028F8D154E9B3
S31500000D180101091A00F072F9F2E7D8F80890B9F15A
S31500000D28000F13D0D8F80C004D4600F1080403E074
S31500000D38013D04F1100409D060790028F8D154E97E
S31500000D4802022168121A00F05DF9F1E7FFF7ACFD1F
S31500000D58FFF758FE0320FFF775FF40F60E510920EE
S31500000D68C4F208014FF6FF72013821F8022FFBD1B1
S31500000D780320FFF73BFF0320FFF764FF0420C4F2BC
S31500000D880E000021016041608160C1600320FFF709
S31500000D982DFF0220FFF790F9A6B1D8F804004FF40A
S31500000DA88075041D04E000BF013E04F10C0409D05F
S31500000DB86079B5EB002FF7D154E90101091A00F063
S31500000DC81DF9F1E7B9F1000F16D0D8F80C004FF469
S31500000DD8807600F1080404E0B9F1010904F1100471
S31500000DE80AD06079B6EB002FF6D154E902022168E1
S31500000DF8121A00F007F9EFE740F26454C2F2000451
S31500000E08204600F0DBF8204600F0EEF841F2DE104E
S31500000E1841F2DE11C0F20000C0F20001091A8C107E
S31500000E28012C06DB051F00BF55F8040F8047013C5F
S31500000E38FAD1FFF78FFE0020BDE8000BBDE8F040B1
S31500000E48FFF716BED0B502AF044640F2BC4041F2E9
S31500000E587801C2F20000C0F20001FFF741F941F241
S31500000E687A1041F28411C0F20000C0F20001C4E910
S31500000E780001D0BD19B1012918BF704704300168B7
S31500000E8840F2BC40C2F200000A22FFF7CBBAD4D423
S31500000E98D0B502AF044640F2BC40C2F2000021467B
S31500000EA81B22FFF7B9FA002818BFD0BD207A617A4D
S31500000EB8A27A000200EE100A01EE101AE37AB8EEE2
S31500000EC8C00AB8EE411A100231EE000A01EE100A05
S31500000ED8207B03EE103AB8EEC11AB8EE433A000288
S31500000EE833EE011A03EE100A607BB8EEC33A04EE3D
S31500000EF8100AA07BB8EE444A000234EE033A04EE28
S31500000F08100AE07B9FED2A2A05EE100A207CB8EE2F
S31500000F18C44AB8EE455A35EE044A000280EE020A83
S31500000F2881EE021A83EE023A84EE022A04EE100AD1
S31500000F38607CB8EEC44A05EE100A207DB8EE455A24
S31500000F48617D35EE044AB2EE045A000284EE054A83
S31500000F5805EE100A06EE101AB8EEC55AB8EE466A3D
S31500000F689FED147A36EE055A85EE075A608A237E77
S31500000F7800BA000C2086E08A84ED070A00BA000C45
S31500000F88208740F28C4084ED081A84ED093A84EDF6
S31500000F980A2A84ED0B4A84ED0D5AC2F20000214656
S31500000FA81B2284F83A30BDE8D040FFF73BBA00BFB1
S31500000FB80000C84200401C467047D4D4D0B502AFE2
S31500000FC805490446054A00F01DF805480549204428
S31500000FD800F014F8D0BD00BF680000000000000053
S31500000FE800000000000000000249401A024908609B
S31500000FF8704700BF08000000600500200A4600216F
S3150000100800F00AB8D0B502AF00239A4203D0CC5CF0
S31500001018C4540133F9E7D0BD00239A4208BF70478C
S31500001028C1540133F9E7D4D40001000000000020C0
S315000010380F00FFFF00000000FFFF0000090200008C
S315000010480C040C050C060C0700000000000000004C
S315000010580000000000000000301000000001000041
S31500001068040000200F00FFFF00000000FFFF000043
S31500001078000200000C000C010C020C03000000002A
S3150000108800000000C10F000000000000641000000E
S315000010980000010400010000000001040101000035
S315000010A80000010008010000000001050901000018
S315000010B8000001050A01000000000100000300000D
S315000010C80600000098100000000000008001810161
S315000010D882018301B601B701B801B901020403040C
S315000010E80404D4D4200000202000002003000000BF
S315000010F80C1100000400000030110000010000007F
S31500001108EC10000020000020200000200000000352
S315000011184004002064050020000000036405002048
S3150000112864050020000000030000002000000020E5
S315000011380000006000010C030000002000000020F1
S31500001148000000080000020300000020080000203C
S31500001158600000000000010364050020640500200B
S3150000116868000000000001030100020008001000EA
S31500001178200055AA030A00FE000000FF55AA020A2D
S31500001188000A000000FFD4D400000106362E312ED6
S3150000119830004275696C7420776974682052656EF0
S315000011A86573617320416476616E63656420466C7D
S315000011B8657869626C6520536F667477617265201D
S315000011C85061636B6167652076657273696F6E201F
S30B000011D8362E312E300018
S3090100A100FFFFFFFF58
S3090100A200FFFDFFFF59
S70500000C9D51
