S0130000736F696C5F73656E736F722E7372656361
S3150000000000040020850A000011090000950A00007E
S31500000010950A0000950A0000950A0000950A00005E
S31500000020000000000000000000000000950A00002B
S31500000030950A000000000000950A0000950A0000DD
S309000000401906000097
S3150000004480B56F4600F0F4FD00F008FEFEE7D4D458
S31500000054022818BF704740F2204040F65451C2F2BD
S315000000640000C0F2000100F007B8D4D480B56F4692
S31500000074FFF7E6FF002080BD80B56F4645F25422A7
S31500000084C5F24F020260084600F002F8002080BD67
S31500000094F0B503AF2DE9000B04460088D0B340F653
S315000000A4625843F240090025C0F20008C4F2080968
S315000000B404E000BF2088013585422BD2002608E0E3
S315000000C409F81600C820012100F0DAFB0136032ED8
S315000000D4F0D0606838F8162000EBC5018988914293
S315000000E4F4D150F8350000F0B85119F91600B1F101
S315000000F4807F07D10028E9D419F8160060F07F0044
S31500000104DEE700BFB0F1FF3FE0DC19F8160000F0AF
S315000001147F00D5E740F28C4CEFF31081012080F389
S315000001241088C2F2000CDCF800203AB940F60352FB
S31500000134C4F208020023137040231370DCF8002075
S315000001440132CCF8002081F31088218829B340F6C7
S31500000154000E0021C4F2080E08E000BF0EEB861064
S3150000016440F8253020880131814216D2636803EBBA
S31500000174C106B58853F831302E0AD803EDB2EDD551
S315000001840EEB861050F8252022F4803240F8252004
S3150000019423F4803240F82520E0E7EFF310810120B4
S315000001A480F31088DCF8000020B1DCF80000013888
S315000001B4CCF80000DCF8000038B940F60350C4F26D
S315000001C40800002202708022027081F31088BDE8C4
S315000001D4000BF0BDF0B503AF2DE9000F83B08646E2
S315000001E44869CEF804100290C8680023CEF81800B7
S315000001F40869C4F21703CEF820000020CEF81C00CC
S31500000204088844F20C0803EB4020CEF80000486945
S315000002148B7886780579B6FA86F46409240244EA6A
S3150000022443334FF410743F2E04BF48F24024CFF6F4
S31500000234FF74002D18BF4FF4307443EA0405AEF87A
S315000002441450027890F802A00192427890F8039034
S31500000254009291F803B00E79EFF31083012484F32E
S315000002641088B1F800C0C4F20808CCF1100CD8F814
S31500000274002004FA0CF4A243C8F80020D8F80020A1
S3150000028483F3108846F2C012DEF800302A401A8042
S3150000029409F03F02DEF800306AF30D221A82F203F7
S315000002A4009C42EA4B02DEF8003042EA4412DA814C
S315000002B4DEF80020019B4FF0010C13738079DEF801
S315000002C400200138B0FA80F0400982F8D00091F994
S315000002D406404EF2001346F2003040F29042CEF24F
S315000002E40003C4F20000002CC2F200021DD44E7AB0
S315000002F4E5B236015C1984F8006342F825E050F84B
S31500000304256026F4803640F8256050F8256005F00F
S315000003141F06C5F342150CFA06F603EB8504BFF374
S315000003245F8FC4F8806143F8256091F90740002C7B
S315000003341ED4897AE6B209019D1985F8001342F89C
S3150000034426E050F82610012521F4803140F82610C5
S3150000035450F8261006F01F01C6F3421605FA01F1FD
S3150000036403EB8605BFF35F8FC5F8801143F82610AB
S31500000374029C94F9071000291ED4667AC9B2360184
S315000003845D1885F8006342F821E050F821600125E4
S3150000039426F4803640F8216050F8216001F01F06EB
S315000003A4C1F3421105FA06F603EB8105BFF35F8F2D
S315000003B4C5F8806143F8216094F9081000291ED419
S315000003C4A67AC9B236015D1885F8006342F821E0C1
S315000003D450F8212022F4803240F8212050F82100E0
S315000003E401F01F000122C1F3421102FA00F003EBEF
S315000003F48102BFF35F8FC2F8800143F8210044F203
S3150000040443410020C5F24121CEF81000CEF8081071
S3150000041403B0BDE8000FF0BDF0B503AF4DF8048D91
S315000004240246D1E90005D2E900438E68D3F814C028
S31500000434A080136820F0C04E9D8213681E81106848
S315000004444FEA1E43C38049F6FF70136800EA154459
S31500000454DC82136800EA164058814EF22000C4F28A
S31500000464010040F2A0430068C2F200031B68C0F317
S315000004740264A340C0F3021023FA00F044F6D353F7
S31500000484C1F26203A0FB0303980941F23603584301
S315000004944DF68363C4F21B33A0FB0303980C0628B2
S315000004A4D1E900054FF0060488BF9C0C45EA000319
S315000004B4980004F1010003D400245B0026D435E03F
S315000004C40125EFF3108485F3108844F20C05C4F279
S315000004D408052E6826F480062E602D6884F310889D
S315000004E443F20004C4F20F0490252570146884F8BE
S315000004F4DE00CC788D68A4064FF4807458BF4FF4A0
S315000005048064C5F340752C445B000FD5136802253F
S3150000051483F8DF00C87840064FF4007058BF4FF4E4
S3150000052400608B6805EA53731844044310684482D8
S31500000534C86800283ED003891C051C4629D51468C2
S3150000054449F6FF78A4F8903044891568A5F89C40CC
S3150000055484891568A5F89E4004681568A5F8944032
S31500000564166808EA1445A6F896501568C4F341744B
S3150000057485F892404468156808EA1446A5F8984038
S315000005841568C4F34174A5F89A60156885F8934014
S315000005940489A4050FD5847CC57C16682C4386F88B
S315000005A4A640C4891568A5F8A840008A1468A4F86A
S315000005B4AA0000E000231068A0F89030088A1368A7
S315000005C4A3F880009CF8040058B11068BEFA8EF6B1
S315000005D4038823F01F039B1B1F330380908A184351
S315000005E4908244F24340C5F24120D060096800205D
S315000005F411615DF8048BF0BD818A026800201180C8
S315000006047047D4D4006800EB4100018C00201180AF
S315000006147047D4D4F0B503AF4DF804BD90B0EFF3F2
S3150000062403804FF0704101EB006040F29042801568
S31500000634C2F200021458EFF3038001EB006046F2A5
S3150000064400318015C4F20001425822F4803242502F
S315000006544058002062688DF80200A1691288236A56
S31500000664ADF800208DF808000193F9B1E069EC4675
S3150000067490B1034666CB0DF1200EAEE8660093E812
S3150000068466008EE86600BCE86C0001466CC19CE816
S315000006946C006CC1A16900E060468847E06928B136
S315000006A408A96CC96CC091E86C006CC010B05DF808
S315000006B404BBF0BD4EF22000C4F20100817940F281
S315000006C400420068C2F2000252F82110C0F3026030
S315000006D421FA00F040F2A041C2F20001086070471E
S315000006E4F0B503AF2DE9000B4EF28044C4F20104C9
S315000006F44CF204154AF20350C4F2010524F8820CA4
S315000007040120288028880028FCD147F20001012016
S31500000714C4F2000125F8040C8860086040F2004821
S3150000072442F6005041F20021C2F20008C0F2311034
S31500000734C0F27A014EF220064FF400424CF2002336
S3150000074488E8070008F10C01C4F20106C0F6EB3391
S315000007540DC1B079316858F82000C1F3026140F246
S31500000764A049C840C2F20009C9F80000002004F8F4
S315000007746D0C092086F88200207810B9607880070D
S315000007843FD0207848B901202070C820012100F00C
S3150000079477F800BF20780128FCD100206070207013
S315000007A40020B074307F0007FCD54FF49850308198
S315000007B40020B072307F8006FCD50320287641F2F3
S315000007C42120C2F2000030600520B071B079316892
S315000007D458F82000C1F30261C840C9F8000042F28B
S315000007E40C00C4F20000F1210170012100F8041C80
S315000007F4F02101704FF4254024F8820CBDE8000B6B
S31500000804F0BD4FF47A7000F001F8C9E77047D4D40C
S31500000814B0B502AF43F22404C4F208040025C8208C
S315000008240121257100F02CF8257000BF20780028DE
S31500000834FCD1207840F00200207000BF20788007A9
S31500000844FCD4002004F8020C14F8020C0028FBD196
S315000008540020012104F11C0212F8103003F07F037A
S3150000086402F8103012F91030002BFBD4C9074FF0F0
S3150000087401004FF0000108BFB0BDEDE77047D4D4C6
S3150000088440F2A042C2F20002126841F20023C0F212
S315000008947A039A4201FB00F00FD340F6FF01C0F23F
S315000008A43D0111444DF68362C4F21B32A1FB0212D0
S315000008B4110DA0FB0101D9B11FE04CF6002348F647
S315000008C43811C3F69A33C0F24101B3FBF2F28842FF
S315000008D406D24FF47A714843B0FBF2F0800807E081
S315000008E49200B0FBF2F0884207D24FF47A71484383
S315000008F4002808BF704700F005B84FF0FF3000F03D
S3150000090401B8D4D401380028FCD17047F0B503AF40
S315000009142DE9000B46F22018C4F20008B8F80000CE
S31500000924B8F8201040F24C4501EA00091FFA89F68E
S315000009340024C2F2000502E00134102C0AD026FA83
S3150000094404F0C007F8D055F824100029F4D0E0B21A
S315000009548847F1E7A8F81090BDE8000BF0BDD4D4A1
S31500000964F0B503AF4DF804BD84B048F24804032043
S31500000974C4F2000400F05CF840F66051C0F20001D5
S315000009846FF0FF000E8820604FF0FF300390029056
S31500000994002E01901CBF6FF0010001904EF28032D0
S315000009A4002001A9CEF2000251F8203004EB8005A4
S315000009B4AB6242F8203001300328F5D1032000F061
S315000009C40BF8002E1EBF46F20030C4F2000006608B
S315000009D404B05DF804BBF0BD0122EFF3108182F38D
S315000009E4108840F29442C2F2000232F8103023B169
S315000009F432F81030013B22F8103032F8102012B1D0
S31500000A0481F3108870474EF2FE3CC4F2010C40F6A6
S31500000A14EC52BCF80030C0F2000232F8100043F485
S31500000A24254222EA0000ACF8000081F310887047E2
S31500000A3480B56F460122EFF3108182F3108840F2ED
S31500000A449442C2F2000232F810308BB94EF2FE3CE8
S31500000A5440F6EC53C4F2010CC0F20003BCF800E00B
S31500000A6433F8103043EA0E0343F42543ACF8003060
S31500000A7432F81030013322F8103081F3108880BD2B
S31500000A8480B56F4600F006F8FFF7F0FAFEE7D4D417
S31500000A9400BE7047F0B503AF2DE9000B4EF60850C3
S31500000AA4CEF200004FF47001C0F8801040F200014D
S31500000AB4C0F2000101600020FFF7CAFAFFF710FE3A
S31500000AC40120FFF7C5FA40F67058C0F20008D8F8BE
S31500000AD4006040F20000C2F2000080F30A8896B17A
S31500000AE4D8F804003546041D04E000BF013D04F1B6
S31500000AF40C0408D060790028F8D154E90101091AD8
S31500000B0400F0E8F8F2E7D8F80890B9F1000F13D02E
S31500000B14D8F80C004D4600F1080403E0013D04F149
S31500000B24100409D060790028F8D154E9020221683A
S31500000B34121A00F0D3F8F1E7FFF7BCFDFFF768FEE1
S31500000B440320FFF775FF40F60E510920C4F2080191
S31500000B544FF6FF72013821F8022FFBD10320FFF76D
S31500000B643BFF0320FFF764FF0420C4F20E000021BC
S31500000B74016041608160C1600320FFF72DFF022000
S31500000B84FFF766FAA6B1D8F804004FF48075041D81
S31500000B9404E000BF013E04F10C0409D06079B5EB12
S31500000BA4002FF7D154E90101091A00F093F8F1E78F
S31500000BB4B9F1000F16D0D8F80C004FF4807600F186
S31500000BC4080404E0B9F1010904F110040AD06079BB
S31500000BD4B6EB002FF6D154E902022168121A00F08E
S31500000BE47DF8EFE740F2B444C2F20004204600F078
S31500000BF451F8204600F064F840F6466040F6466137
S31500000C04C0F20000C0F20001091A8C10012C06DBA8
S31500000C14051F00BF55F8040F8047013CFAD1FFF7C2
S31500000C249FFE0020BDE8000BBDE8F040FFF726BE9E
S31500000C34D0B502AF40F22844C2F2000440F6105187
S31500000C44C0F200012046FFF7C5FA40F62851C0F26B
S31500000C5400012046BDE8D040FFF7DEBB40F2284045
S31500000C64C2F20000FFF7C8BCD0B502AF40F2A444FC
S31500000C7440F22840C2F20004C2F2000001212246DA
S31500000C84FFF7C0FC208840F2A641C2F200010880AA
S31500000C94D0BDD4D4D0B502AF05490446054A00F008
S31500000CA41DF805480549204400F014F8D0BD00BFDE
S31500000CB444000000000000000000000000000000E6
S31500000CC40249401A02490860704700BF0800000044
S31500000CD4B00400200A46002100F00AB8D0B502AFDD
S31500000CE400239A4203D0CC5CC4540133F9E7D0BD47
S31500000CF400239A4208BF7047C1540133F9E7000143
S31500000D043F3F000000DFDFFFFFD4D4D40000020021
S31500000D14000F00DF0002FF006D0C00000000000061
S31500000D24020D0000020000000000000000000000A8
S31500000D340000000000000018008000000100000010
S31500000D44000001000801000000000100000300008B
S31500000D54030000003C0D00000000000060010204D6
S31500000D640304040400000020000000200300000027
S31500000D74880D000004000000AC0D00000100000016
S31500000D84680D0000000000200000002000000003A1
S31500000D9420040020B404002000000003B404002052
S31500000DA4B40400200000000300000020000000201E
S31500000DB40000006000010C03000000200000002079
S31500000DC400000008000002030000002000000020CC
S31500000DD44400000000000103B4040020B404002011
S31500000DE44400000000000103010002000800100096
S31500000DF42000D4D400000106362E312E3000427570
S31500000E04696C7420776974682052656E65736173C2
S31500000E1420416476616E63656420466C6578696218
S31500000E246C6520536F667477617265205061636BDD
S31500000E346167652076657273696F6E20362E312E72
S30700000E44300076
S3090100A100FFFFFFFF58
S3090100A200FFFDFFFF59
S70500000A856B
